:020000040800F2
:10000000000002207110010885410008914100089C
:1000100099410008A1410008A94100080000000022
:10002000000000000000000000000000AD3D0008DE
:10003000B141000800000000813F0008D93F0008DE
:10004000B5100108B5100108B5100108B510010878
:10005000B5100108B5100108B5100108B510010868
:10006000B5100108B5100108B5100108B510010858
:10007000B5100108B5100108B5100108B510010848
:10008000B5100108B5100108B5100108B510010838
:10009000B5100108B5100108B5100108B510010828
:1000A000B5100108B5100108B5100108B510010818
:1000B000B5100108B5100108B5100108B510010808
:1000C000B5100108B5100108B5100108B5100108F8
:1000D000B5100108B5100108B5100108B5100108E8
:1000E000B5100108B5100108B5100108B5100108D8
:1000F000B5100108B5100108B5100108B5100108C8
:10010000B5100108B5100108B5100108B5100108B7
:10011000B5100108B5100108B5100108B5100108A7
:10012000B5100108B5100108B5100108B510010897
:10013000B5100108B5100108B5100108B510010887
:10014000B5100108B5100108B5100108B510010877
:10015000B5100108B5100108B5100108B510010867
:10016000B5100108B5100108B5100108B510010857
:10017000B5100108B5100108B5100108B510010847
:08018000B5100108B5100108DB
:1001880010B5054C237833B9044B13B10448AFF3C9
:1001980000800123237010BD7804002000000000B7
:1001A80000140108084B10B51BB108480849AFF303
:1001B80000800848036803B910BD074B002BFBD02B
:1001C800BDE81040184700BF0000000000140108F7
:1001D8007C0400207404002000000000154B002B54
:1001E80008BF134B9D46A3F5803A00218B460F4666
:1001F8001348144A121A10F093FF0F4B002B00D02B
:1002080098470E4B002B00D098470020002104008F
:100218000D000D48002802D00C4811F043F810F0EA
:1002280057FF2000290000F01FF810F041FF00BF21
:1002380000000800000000000000000000000000AE
:1002480078040020A0320120AD120108B91201087B
:1002580030140108000000207404002078040020F5
:10026800A03201200000000080B584B004AF00F087
:1002780015F90A200421002201F05CF90246214BFD
:100288001A60204B1B68002B00D1FEE70223009365
:100298000023019300230293002303931A481B4968
:1002A8008222002301F04CFF0223009300230193D4
:1002B8000023029300230393154816498222002342
:1002C80001F03EFF022300930023019300230293D1
:1002D80000230393104811498222002301F030FFC4
:1002E8000223009300230193002302930023039326
:1002F8000B480C498222002301F022FF02F0A0FAE9
:10030800FEE700BF58320120E50300088C130108FE
:100318000504000894130108690400089C130108E7
:1003280031030008A413010880B588B000AF7860D5
:10033800274B7B6164233B6102F05AFB0346FB6059
:1003480024484FF480510DF021FF0023FB612CE07D
:1003580097ED057AD7ED057A67EE277A17EE900ABA
:1003680010F044FD02460B461046194616A3D3E981
:10037800002310F0DDFB02460B461046194610F02C
:1003880089FD03467B610023BB6102E0BB69013341
:10039800BB61BB69B3F57A7FF8D80E484FF40041CA
:1003A8000DF0F4FEFB690133FB613B69FA699A427F
:1003B800CED3094B1B781A4607F10C031846114691
:1003C80001F0C8FFBCE700BF287E8CB96B09F03F7D
:1003D8006811C842000C02400400002080B582B0B9
:1003E80000AF786004484FF400510DF0CFFE4FF491
:1003F8007A7002F00FF8F5E7000C024080B584B07F
:1004080000AF78600123FB60134801210DF02CFE3A
:100418000346002B1FD002E0642001F0FBFF0E48CA
:1004280001210DF021FE0346002BF5D102E06420E6
:1004380001F0F0FF084801210DF016FE0346002BDD
:10044800F5D0064B1A6807F10C031046194600222E
:10045800002301F081F9D7E700000240583201205B
:1004680080B584B000AF78600A4B1A6807F10803BA
:10047800104619464FF0FF32002301F0A7FAF86042
:10048800FB68012B04D104484FF480410DF07EFE37
:10049800EAE700BF58320120000C024080B58EB058
:1004A80000AF0F20012104F0CDF94FF40210012113
:1004B80004F022FA012003F0E3FF012387F8343027
:1004C8004FF470433B63002387F83730032387F8E2
:1004D8003530002387F8363007F1300331481946A4
:1004E8000DF0F8FC0120012104F0ACF9002387F895
:1004F8002C300123BB62002387F82F30032387F8B1
:100508002D30002387F82E3007F128032648194696
:100518000DF0E0FC4FF410733B62022387F824309F
:10052800002387F82730012387F826301E48042146
:1005380006220DF03DFE4BF68033BB614FF400738D
:10054800FB824FF400733B8200237B820023BB8332
:1005580007F110031548194608F01AF81348012145
:1005680008F050F9124B3B600023BB8063233B81AA
:100578004FF480637B814FF48043BB814BF6FF735C
:10058800FB803B460B48194605F028F80A4801212C
:1005980005F004F9034810210DF0B6FD3837BD46C3
:1005A80080BD00BF000C024000000240003C00403B
:1005B800A0860100005400400058004080B500AFFC
:1005C800114A114B1B6843F0010313600E4B0022C4
:1005D8009A600D4A0C4B1B6823F0847323F4803314
:1005E8001360094B094A5A60074A074B1B6823F4F2
:1005F80080231360044B0022DA6000F087F8044B74
:100608004FF000629A6080BD00380240103000242C
:1006180000ED00E080B487B000AF00233B61002309
:100628007B610223FB600023BB6002237B60324BAB
:100638009B6803F00C033B613B69042B07D0082B34
:1006480009D0002B3FD12D4B2D4A1A603FE02B4B90
:100658002C4A1A603BE0284B5B6803F480039B0D2F
:10066800BB60254B5B6803F03F037B60BB68002BD6
:100678000DD0244A7B68B2FBF3F21F4B596847F64A
:10068800C0730B409B0903FB02F37B610CE01C4A1F
:100698007B68B2FBF3F2184B596847F6C0730B40FE
:1006A8009B0903FB02F37B61134B5B6803F4403344
:1006B8001B0C01335B00FB607A69FB68B2FBF3F348
:1006C8000E4A136003E00D4B0D4A1A6000BF0A4B37
:1006D8009B6803F0F0031B090B4AD35CDBB23B6158
:1006E800064B1A683B6922FA03F3044A13601C3765
:1006F800BD465DF8047B70470038024008000020C2
:100708000024F40000127A000C00002080B483B0AA
:1007180000AF00237B6000233B60354A344B1B68E5
:1007280043F480331360324B1B6803F400333B609F
:100738007B6801337B603B68002B03D17B68B3F592
:10074800A06FF0D12A4B1B6803F40033002B02D0B2
:1007580001233B6001E000233B603B68012B42D151
:10076800234A234B1B6C43F080531364214A214BCB
:100778001B6843F4804313601D4A1D4B9B689360BC
:100788001B4A1B4B9B6843F400439360184A184B61
:100798009B6843F4A0539360154B174A5A60144A58
:1007A800134B1B6843F08073136000BF104B1B682A
:1007B80003F00073002BF9D0104B40F205621A6069
:1007C8000B4A0B4B9B6823F003039360084A084BC2
:1007D8009B6843F00203936000BF054B9B6803F0DE
:1007E8000C03082BF9D10C37BD465DF8047B704724
:1007F800003802400070004008544007003C0240A6
:1008080080B584B000AF0346FB71FB79104A52F8FB
:1008180023301846012104F015F8FB790D4A32F807
:100828001330BB6001233B730023BB730123FB73AD
:1008380002237B73FB79084A52F8232007F1080347
:10084800104619460DF046FB1037BD4680BD00BF67
:10085800B4130108AC1301081C00002080B483B055
:1008680000AF0346FB71FB79064A52F82330FA7948
:10087800054931F812201A830C37BD465DF8047B10
:10088800704700BF1C000020AC13010880B483B07F
:1008980000AF0346FB71FB79064A52F82330FA7918
:1008A800054931F812205A830C37BD465DF8047BA0
:1008B800704700BF1C000020AC13010880B483B04F
:1008C80000AF0346FB71FB79094A52F82330FA79E5
:1008D800074951F822205269F979064830F8111071
:1008E8004A405A610C37BD465DF8047B704700BF2B
:1008F8001C000020AC13010880B588B000AF034687
:100908000A46FB711346BB7101231846012103F007
:1009180099FF4FF48040012104F00CF800233B7745
:100928000023FB770123BB61FB79174A52F8232088
:1009380007F11803104619460DF0CCFABB79012BC4
:100948001FD1002200231046194607F029FD012374
:100958003B6100233B7508237B750123BB7507F1B9
:100968001003184604F0E4F906233B730F237B7346
:100978000F23BB730123FB7307F10C0318460EF01A
:1009880095F92037BD4680BD2C00002080B582B087
:1009980000AF0346FB71FB79064A52F82330012267
:1009A800184611460DF060FB034618460837BD4649
:1009B80080BD00BF2C00002080B582B000AF1C2095
:1009C80003F06CFB78607B68002B07D07B68002203
:1009D8001A607B680433184603F0F0F87B68184601
:1009E8000837BD4680BD00BF80B58AB000AFF8604B
:1009F800B9607A603B60FB683B620023FB617B68FF
:100A080003F07F43002B02D003F0A8FAFEE77B68CF
:100A1800002B02D103F0A2FAFEE702F0C1FD034663
:100A2800002B02D13B68002B01D1012300E00023F9
:100A3800002B02D103F092FAFEE701F045FF3B6A72
:100A48001B68BB61F868B96800F032F9BA69BB681D
:100A58001A437B681A407B689A420DD1BA69BB6811
:100A680013437B623B6A1A687B68DB431A403B6A24
:100A78001A6000233B6012E03B68002B0CD03B6AF5
:100A88001A1D7B6843F0A063104619463A6802F0C5
:100A98009FF900237B6202E03B6A1B687B6201F0DE
:100AA80021FF78613B68002B26D07B69002B01D1A0
:100AB80003F00CFA02F038FE78627B6A03F00073E8
:100AC800002B15D103F012FA3B6A1B687B627A6A25
:100AD8007B681A407B689A4206D13B6A1A687B6831
:100AE800DB431A403B6A1A6003F020FA0123FB61DA
:100AF8007B6A23F07F437B627B6A18462837BD46B2
:100B080080BD00BF80B58CB000AFF860B9607A6076
:100B18003B60FB687B620023BB6200233B62BB68CF
:100B280003F07F43002B02D003F018FAFEE7BB68FE
:100B3800002B02D103F012FAFEE702F031FD034662
:100B4800002B02D1BB6B002B01D1012300E0002355
:100B5800002B02D103F002FAFEE701F0B5FE7B6A32
:100B68001B68FB61F869B9683A6800F057F9B86121
:100B7800BB69002B0ED0FB69FB620023BB637B685B
:100B8800002B27D07B6A1A68BB68DB431A407B6A54
:100B98001A601FE0BB6B002B02D1FB69FB6219E0F6
:100BA8007B68002B03D0BB6A43F08073BB623B6851
:100BB800002B03D0BB6A43F08063BB627B6A191DBC
:100BC800BA68BB6A134308461946BA6B02F000F9C3
:100BD8000023FB6201F086FE7861BB6B002B2BD0F3
:100BE8007B69002B01D103F071F902F09DFDF862D9
:100BF800FB6A03F00073002B1AD103F077F97B6AC4
:100C08001B68FB62F86AB9683A6800F007F903469E
:100C1800002B09D07B68002B06D07B6A1A68BB685A
:100C2800DB431A407B6A1A6003F080F900233B62B9
:100C3800FB6A23F07F43FB62FB6A18463037BD46E8
:100C480080BD00BF80B584B000AF786039607B6834
:100C5800FB603B6803F07F43002B02D003F07EF972
:100C6800FEE703F043F9FB681B68BB60FB681A6882
:100C78003B68DB431A40FB681A6003F057F9BB680E
:100C880018461037BD4680BD80B586B000AF786085
:100C98007B687B6103F062F938617B691B68FB60E4
:100CA800386903F065F9FB6818461837BD4680BDFA
:100CB80080B58CB000AF786039600023BB627B6878
:100CC8003B6200237B623B6803F07F43002B02D02A
:100CD80003F044F9FEE73B6A0433FB61FB69083320
:100CE800BB6101F0F1FDFB69DB68FB623B6A1A68D6
:100CF8003B681A433B6A1A603CE0FB6A5B687B61AD
:100D0800FB6A1B683B6100237B623B6903F07F43FE
:100D1800FB603B6923F07F433B61FB6803F0806322
:100D2800002B08D13B6A1A683B691340002B0BD093
:100D380001237B6208E03B6A1A683B691A403B69F9
:100D48009A4201D101237B627B6A002B10D0FB6899
:100D580003F08073002B03D0BA6A3B691343BB626C
:100D68003B6A1B6843F00073F86A194602F0FAF808
:100D78007B69FB62FA6ABB699A42BED13B6A1A6810
:100D8800BB6ADB431A403B6A1A6001F0ABFD3B6A61
:100D98001B6818463037BD4680BD00BF80B584B09B
:100DA80000AF78607B68FB60FB680433BB6001F0D0
:100DB8008BFD0FE0BB68DA68BB6808339A4202D142
:100DC80003F0CCF8FEE7BB68DB6818464FF000710B
:100DD80002F0C8F8BB681B68002BEBD1F86803F079
:100DE800A3F901F07FFD1037BD4680BD80B582B004
:100DF80000AF7860396078683968FFF759FF0837BD
:100E0800BD4680BD80B582B000AF78603960786833
:100E18003968FFF717FF0837BD4680BD80B487B033
:100E280000AFF860B9607A6000237B617B68002BB3
:100E380007D1FA68BB681340002B0AD001237B61F5
:100E480007E0FA68BB681A40BB689A4201D10123DF
:100E58007B617B6918461C37BD465DF8047B70478B
:100E680080B485B000AF78607B68BB607B68002B7E
:100E780002D10023FB6002E0BB689B69FB60FB6852
:100E880018461437BD465DF8047B704780B586B0B8
:100E980004AF00237B6000F093FA0F4B1B68002B14
:100EA8000FD0022300930023019300230293002311
:100EB80003930A480A494FF48272002301F040F96B
:100EC80078607B68002B02D103F048F8FEE77B6866
:100ED80018460837BD4680BDC404002071100008BC
:100EE800DC13010880B586B000AFF860B9607A609D
:100EF8003B60BB68002B02D100237B611CE02C20E7
:100F080003F0CCF878617B69002B15D000F058FA13
:100F18007B69FA681A607B69BA689A617B697A6842
:100F2800DA617B693A681A627B693A6A5A627B6954
:100F38000433184602F062FEBB68002B02D103F0AE
:100F48000DF8FEE77B6918461837BD4680BD00BF1F
:100F580080B588B000AFF860B9607A603B60002364
:100F6800FB611D4B1B68002B30D0BB683B617B6865
:100F78007B61FB68BB61BB68052B1CDC02F010FBC6
:100F88000346022B0BD1144B1A6807F110031046C5
:100F98001946BA6A002300F0DFFBF86116E00E4B31
:100FA8001A6807F11003104619460022002300F0C2
:100FB800D3FBF8610AE0084B1A6807F110031046E2
:100FC80019463A68002300F08DFCF861FB69184661
:100FD8002037BD4680BD00BFC404002080B485B062
:100FE80000AF78607B68FB60FB681B6818461437A5
:100FF800BD465DF8047B704780B586B002AF786067
:101008003960184B1B68DB68DB68FB60FB680433DE
:10101800184602F05BFEFB68DB69012B1BD1FB68FD
:101028009A697B681344F86819463A687B6800F047
:10103800A7F80346012B0ED100230093F86800217E
:101048007A680023FFF784FFB860BB68002B02D1E1
:1010580002F084FFFEE7FB685B6AF8689847103780
:10106800BD4680BDBC04002080B584B000AF786068
:1010780007F10803184600F03FF8F860BB68F86805
:10108800194600F003F800F0BDF8F1E780B584B028
:1010980000AF7860396001F017FC07F108031846C3
:1010A80000F04EF8F860BB68002B1ED13B68002B9F
:1010B8000AD17A68FB689A4206D801F013FC78686E
:1010C800F968FFF799FF12E00A4B19687A68FB681C
:1010D800D31A0846194601F007F801F003FC034645
:1010E800002B04D102F0F2FE01E001F0FBFB103707
:1010F800BD4680BDC404002080B485B000AF7860D0
:101108000E4B1B681B68002B0CBF01230023DBB2AE
:101118001A467B681A607B681B68002B05D1074B51
:101128001B68DB681B68FB6001E00023FB60FB6851
:1011380018461437BD465DF8047B7047BC04002090
:1011480080B584B000AF786001F052FCF8600B4BBA
:101158001B68FA689A4205D200F0DAF87B68012227
:101168001A6002E07B6800221A60044AFB68136078
:10117800FB6818461037BD4680BD00BFC804002074
:1011880080B586B000AFF860B9607A603B60002334
:101198007B61FB68BA685A60FB68FA681A61BA68CA
:1011A8007B689A4212D87A683B68D21AFB689B69B6
:1011B8009A4202D301237B611BE0104B1A68FB683B
:1011C80004331046194602F049FD12E07A683B687C
:1011D8009A4206D2BA683B689A4202D301237B61DD
:1011E80007E0074B1A68FB6804331046194602F0FB
:1011F80035FD7B6918461837BD4680BDC004002000
:10120800BC04002080B58AB002AF6FE0BB68002B39
:101218006CDB3B69FB61FB695B69002B04D0FB69F4
:101228000433184602F052FD3B1D1846FFF788FFAD
:10123800B861BB68092B58D801A252F823F000BF47
:10124800711200087112000871120008F5120008E6
:10125800C1120008EB120008711200087112000890
:10126800F5120008C1120008FA68FB699B691A4464
:10127800FB68F8691146BA69FFF782FF0346012B3C
:1012880019D1FB695B6AF8699847FB69DB69012B2F
:1012980011D1FA68FB699B691A4400230093F86925
:1012A80000210023FFF754FE78617B69002B02D1EF
:1012B80002F054FEFEE719E0FA68FB699A61FB69DF
:1012C8009B69002B02D102F049FEFEE7FB699A698F
:1012D800BB691344F8691946BA69BB69FFF750FF3F
:1012E80004E0F86902F020FF00E000BF074B1A682D
:1012F80007F10803104619460022002300F066FB98
:101308000346002B82D12037BD4680BDC40400208F
:1013180080B588B002AF3DE0274B1B68DB681B68CF
:101328007B61254B1B68DB68DB683B613B690433E9
:10133800184602F0CBFC3B695B6A386998473B6901
:10134800DB69012B26D13B699A697B691344FB60F1
:10135800FA687B699A420ED93B69FA685A603B6918
:101368003A691A61144B1A683B69043310461946E6
:1013780002F074FC0EE000230093386900217A69BA
:101388000023FFF7E5FDB860BB68002B02D102F02F
:10139800E5FDFEE7084B1B681B68002BBCD1064B1C
:1013A8001B687B60054B1B68034A1360034A7B6814
:1013B80013601837BD4680BDBC040020C00400205F
:1013C80080B500AF02F092FD154B1B68002B24D1AD
:1013D800144802F0F3FB144802F0F0FB134B114AD7
:1013E8001A60134B104A1A600A200C21002200F0E0
:1013F800A1F802460A4B1A60094B1B68002B02D160
:1014080002F0ACFDFEE7064B1B68002B05D0044B31
:101418001B681846074900F01DFE02F087FD80BDD5
:10142800C404002094040020A8040020BC04002068
:10143800C0040020E413010880B584B000AF7860D0
:101448007B68FB6002F052FDFB685B69002B14BFF0
:1014580001230023DBB2BB6002F068FDBB681846BD
:101468001037BD4680BD00BF80B485B000AF78603E
:101478007B68FB60FB681B6A18461437BD465DF83D
:10148800047B704780B584B000AF786039607B68B2
:10149800FB60FB68002B02D102F060FDFEE702F062
:1014A80025FDFB681A68FB68DB6BF968096C01FBB2
:1014B80003F31A44FB685A60FB6800229A63FB68CE
:1014C8001A68FB689A60FB681A68FB68DB6B013B6B
:1014D800F968096C01FB03F31A44FB68DA60FB68DE
:1014E8004FF0FF325A64FB684FF0FF329A643B6852
:1014F800002B0ED1FB681B69002B14D0FB6810333E
:10150800184601F0D3FC0346012B0CD102F0DEFC97
:1015180009E0FB681033184602F050FBFB682433DF
:10152800184602F04BFB02F001FD01231846103764
:10153800BD4680BD80B588B000AFF860B96013467D
:10154800FB710023FB61FB68002B2AD0542002F0BA
:10155800A5FDB861BB69002B23D0FB68BA6802FB04
:1015680003F301337B61786902F098FD0246BB6999
:101578001A60BB691B68002B10D0BB69FA68DA6374
:10158800BB69BA681A64B8690121FFF77BFFBB69B8
:10159800FA7983F85020BB69FB6102E0B86902F070
:1015A800C3FDFB69002B02D102F0D8FCFEE7FB6902
:1015B80018462037BD4680BD80B584B000AF0346CD
:1015C800FB71542002F06AFDF860FB68002B32D0F2
:1015D800FB6800225A60FB6800221A60FB68002240
:1015E8009A60FB680022DA60FB6800229A63FB6855
:1015F8000122DA63FB6800221A64FB684FF0FF32AD
:101608005A64FB684FF0FF329A64FB68FA7983F8F2
:101618005020FB681033184602F0D0FAFB682433D8
:10162800184602F0CBFA02F097F8F8680021002279
:10163800002300F091F8FB68002B02D102F08EFC29
:10164800FEE7FB6818461037BD4680BD90B585B0EB
:1016580000AF78607B68BB60BB68002B02D102F0EA
:101668007DFCFEE7BB685C6801F08AFF03469C428C
:1016780011D1BB68DB685A1EBB68DA60BB68DB68DF
:10168800002B05D1B86800210022002300F064F87F
:101698000123FB6001E00023FB60FB681846143758
:1016A800BD4690BD90B585B000AF786039607B6865
:1016B800BB60BB68002B02D102F050FCFEE7BB68A0
:1016C8005C6801F05DFF03469C4207D1BB68DB689C
:1016D8005A1CBB68DA600123FB600EE0B868002181
:1016E8003A68002300F072F9F860FB68012B04D116
:1016F800BB68DB685A1CBB68DA60FB68184614379D
:10170800BD4690BD80B584B000AF786039607B6815
:10171800002B02D102F022FCFEE73A687B689A426D
:1017280002D902F01BFCFEE7786800210222FFF7CD
:1017380001FFF860FB68002B02D0FB683A689A63E7
:10174800FB68002B02D102F009FCFEE7FB68184693
:101758001037BD4680BD00BF80B58AB000AFF860C5
:10176800B9607A603B6000237B62FB683B623B6A3E
:10177800002B02D102F0F2FBFEE7BB68002B03D17D
:101788003B6A1B6C002B01D1012300E00023002BD6
:1017980002D102F0E3FBFEE73B68022B03D13B6A70
:1017A800DB6B012B01D1012300E00023002B02D1C8
:1017B80002F0D4FBFEE701F0F3FE0346002B02D152
:1017C8007B68002B01D1012300E00023002B02D10C
:1017D80002F0C4FBFEE702F089FB3B6A9A6B3B6AA6
:1017E800DB6B9A4202D33B68022B1DD1386AB96879
:1017F8003A6800F0E9FAF8613B6A5B6A002B0AD0A4
:101808003B6A2433184601F051FB0346012B07D1EC
:1018180002F05CFB04E0FB69002B01D002F056FBF0
:1018280002F084FB012359E07B68002B03D102F00E
:101838007DFB002352E07B6A002B06D107F11403DD
:10184800184601F0E7FB01237B6202F06FFB01F011
:101858003BF802F04BFB3B6A5B6CB3F1FF3F02D1F4
:101868003B6A00225A643B6A9B6CB3F1FF3F02D18A
:101878003B6A00229A6402F059FB07F114023B1DEF
:101888001046194601F0E0FB0346002B1ED1386ACA
:1018980000F0AEFB0346002B12D03B6A03F11002A6
:1018A8007B681046194601F05DFA386A00F026FB9D
:1018B80001F018F80346002B0FD102F007FB0CE0EB
:1018C800386A00F01BFB01F00DF884E7386A00F075
:1018D80015FB01F007F8002300E07CE718462837DD
:1018E800BD4680BD80B588B000AFF860B9607A6049
:1018F8003B60FB68BB61BB69002B02D102F02EFB89
:10190800FEE7BB68002B03D1BB691B6C002B01D120
:10191800012300E00023002B02D102F01FFBFEE7A9
:101928003B68022B03D1BB69DB6B012B01D101237F
:1019380000E00023002B02D102F010FBFEE702F0CA
:101948007DFB02F00BFB7861BB699A6BBB69DB6BB3
:101958009A4202D33B68022B2DD1B869B9683A681C
:1019680000F032FA0346002B05D07B68002B02D02A
:101978007B6801221A60BB699B6CB3F1FF3F12D1EF
:10198800BB695B6A002B13D0BB692433184601F08E
:101998008DFA0346002B0BD07B68002B08D07B68A0
:1019A80001221A6004E0BB699B6C5A1CBB699A64EB
:1019B8000123FB6101E00023FB61786902F0D8FA9A
:1019C800FB6918462037BD4680BD00BF80B58AB088
:1019D80000AFF860B9607A603B6000237B62FB6807
:1019E8003B623B6A002B02D102F0B8FAFEE7BB6803
:1019F800002B03D13B6A1B6C002B01D1012300E0B3
:101A08000023002B02D102F0A9FAFEE701F0C8FD7D
:101A18000346002B02D17B68002B01D1012300E093
:101A28000023002B02D102F099FAFEE702F05EFAD9
:101A38003B6A9B6B002B3BD03B6ADB68FB61386AD7
:101A4800B96800F031FA3B68002B1CD13B6A9B6BEC
:101A58005A1E3B6A9A633B6A1B68002B04D101F04B
:101A68008FFD02463B6A5A603B6A1B69002B1BD0FC
:101A78003B6A1033184601F019FA0346012B13D1BB
:101A880002F024FA10E03B6AFA69DA603B6A5B6AA2
:101A9800002B09D03B6A2433184601F007FA0346A5
:101AA800002B01D002F012FA02F040FA012366E09E
:101AB8007B68002B03D102F039FA00235FE07B6AD0
:101AC800002B06D107F11403184601F0A3FA0123ED
:101AD8007B6202F02BFA00F0F7FE02F007FA3B6A8D
:101AE8005B6CB3F1FF3F02D13B6A00225A643B6A48
:101AF8009B6CB3F1FF3F02D13B6A00229A6402F06B
:101B080015FA07F114023B1D1046194601F09CFA1C
:101B18000346002B2BD1386A00F03CFA0346002B11
:101B28001FD03B6A1B68002B08D102F0DFF93B6A23
:101B38005B68184601F052FD02F0F8F93B6A03F1C0
:101B480024027B681046194601F00CF9386A00F047
:101B5800D5F900F0C7FE0346002B0FD102F0B6F905
:101B68000CE0386A00F0CAF900F0BCFE5EE7386A9B
:101B780000F0C4F900F0B6FE002300E056E718466E
:101B88002837BD4680BD00BF80B588B000AFF8607B
:101B9800B9607A60FB68BB61BB69002B02D102F0B7
:101BA800DDF9FEE7BB68002B03D1BB691B6C002B7A
:101BB80001D1012300E00023002B02D102F0CEF96D
:101BC800FEE702F03BFA02F0C9F97861BB699B6B4A
:101BD800002B28D0B869B96800F066F9BB699B6B1F
:101BE8005A1EBB699A63BB695B6CB3F1FF3F12D1A4
:101BF800BB691B69002B13D0BB691033184601F071
:101C080055F90346002B0BD07B68002B08D07B6866
:101C180001221A6004E0BB695B6C5A1CBB695A64F8
:101C28000123FB6101E00023FB61786902F0A0F960
:101C3800FB6918462037BD4680BD00BF80B586B019
:101C480000AF786039607B683B613B69002B02D14B
:101C580002F084F9FEE73B68002B03D13B691B6C5B
:101C6800002B01D1012300E00023002B02D102F058
:101C780075F9FEE702F0E2F902F070F9F8603B69E5
:101C88009B6B002B0CD03B69DB68BB6038693968FB
:101C980000F00AF93B69BA68DA6001237B6101E068
:101CA80000237B61F86802F063F97B6918461837EE
:101CB800BD4680BD80B584B000AF78607B68002BDE
:101CC80002D102F04BF9FEE702F010F97B689B6B3A
:101CD800FB6002F02BF9FB6818461037BD4680BD43
:101CE80080B584B000AF78607B68FB60FB68002B30
:101CF80002D102F033F9FEE702F0F8F8FB68DA6B7C
:101D0800FB689B6BD31ABB6002F010F9BB681846DE
:101D18001037BD4680BD00BF80B584B000AF786085
:101D28007B68002B02D102F019F9FEE77B689B6BF8
:101D3800FB60FB6818461037BD4680BD80B584B08F
:101D480000AF78607B68FB60FB68002B02D102F073
:101D580005F9FEE7F86800F0A5F9FB681B68002B99
:101D680004D0FB681B68184602F0DEF9F86802F038
:101D7800DBF91037BD4680BD80B483B000AF786012
:101D88007B68DB6C18460C37BD465DF8047B7047F2
:101D980080B483B000AF786039607B683A68DA64F1
:101DA8000C37BD465DF8047B704700BF80B483B034
:101DB80000AF78607B6893F8503018460C37BD4602
:101DC8005DF8047B704700BF80B586B000AFF8604F
:101DD800B9607A6000237B61FB681B6C002B0FD114
:101DE800FB681B68002B54D101F0C8FCFB685B68DA
:101DF800184601F051FC7861FB6800225A6048E0FF
:101E08007B68002B1AD1FB689A68FB681B6C10462C
:101E1800B9681A460FF08EF8FB689A68FB681B6C65
:101E28001A44FB689A60FB689A68FB685B689A4288
:101E38002FD3FB681A68FB689A602AE0FB68DA68A7
:101E4800FB681B6C1046B9681A460FF073F8FB68FC
:101E5800DA68FB681B6C5B421A44FB68DA60FB6853
:101E6800DA68FB681B689A4207D2FB685A68FB6805
:101E78001B6C5B421A44FB68DA607B68022B08D152
:101E8800FB689B6B002B04D0FB689B6B5A1EFB689E
:101E98009A63FB689B6B5A1CFB689A637B691846BC
:101EA8001837BD4680BD00BF80B582B000AF7860EE
:101EB80039607B681B68002B1AD07B68DA687B68FE
:101EC8001B6C1A447B68DA607B68DA687B685B683D
:101ED8009A4203D37B681A687B68DA607B68DA68A1
:101EE8007B681B6C386811461A460FF023F801E02E
:101EF80001F032FC0837BD4680BD00BF80B582B016
:101F080000AF786001F0F2FF14E07B685B6A002B99
:101F18000AD07B682433184600F0C8FF0346002B1C
:101F280003D001F0E1F800E008E07B689B6C5A1EE2
:101F38007B689A647B689B6C002BE6DC7B684FF0BF
:101F4800FF329A6401F0F2FF01F0D0FF14E07B68E1
:101F58001B69002B0FD07B681033184600F0A6FFD2
:101F68000346002B01D001F0BFF87B685B6C5A1E5A
:101F78007B685A6400E003E07B685B6C002BE6DC5E
:101F88007B684FF0FF325A6401F0D0FF0837BD4636
:101F980080BD00BF80B584B000AF786001F0A6FFB7
:101FA8007B689B6B002B02D10123FB6001E00023BF
:101FB800FB6001F0BBFFFB6818461037BD4680BDCB
:101FC80080B584B000AF78607B68002B02D101F047
:101FD800C5FFFEE77B689B6B002B02D10123FB60EA
:101FE80001E00023FB60FB6818461037BD4680BD42
:101FF80080B584B000AF786001F078FF7B689A6B99
:102008007B68DB6B9A4202D10123FB6001E000236D
:10201800FB6001F08BFFFB6818461037BD4680BD9A
:1020280080B584B000AF78607B68002B02D101F0E6
:1020380095FFFEE77B689A6B7B68DB6B9A4202D15F
:102048000123FB6001E00023FB60FB6818461037A2
:10205800BD4680BD80B485B000AF7860396000238C
:10206800FB6014E00E4AFB6852F83330002B0BD1AA
:102078000B49FB683A6841F83320094AFB68DB00E2
:1020880013447A685A6005E0FB680133FB60FB681B
:10209800072BE7D91437BD465DF8047B704700BFAE
:1020A8006032012080B485B000AF78600023FB6007
:1020B80010E00C4AFB68DB0013445A687B689A42BC
:1020C80005D1084AFB68002142F8331005E0FB6897
:1020D8000133FB60FB68072BEBD91437BD465DF86D
:1020E800047B70476032012080B584B000AF78600F
:1020F80039607B68FB6001F0F9FEFB685B6CB3F14B
:10210800FF3F02D1FB6800225A64FB689B6CB3F165
:10211800FF3F02D1FB6800229A6401F007FFFB68C9
:102128009B6B002B05D1FB6824331846396800F0F7
:1021380095FEF868FFF7E2FE1037BD4680BD00BF88
:1021480080B58AB002AFF860B9603B601346FB8087
:10215800FB68002B02D101F001FFFEE7BB6A042BEC
:1021680002D901F0FBFEFEE7FB881846396B01F047
:10217800F9F8B861BB69002B72D0BB691A6BFB8890
:1021880003F18043013B9B0013447B617B6923F08F
:1021980007037B617B6903F00703002B02D001F082
:1021A800DDFEFEE7FB880093B869B968BA6A7B6B05
:1021B80000F0DEFF7869F9683A6801F0B1FD02467F
:1021C800BB691A60FB6A002B02D0FB6ABA691A6005
:1021D80001F08CFE2E4B1B6801332D4A13602D4BEA
:1021E8001B68002B09D12B4ABB691360284B1B685D
:1021F800012B0FD101F008F80CE0274B1B68002BCE
:1022080008D1244B1B68DA6ABB6A9A4202D8214A71
:10221800BB691360214B1B680133204A13601F4BB5
:102228001A68BB691A64BB69DA6A1D4B1B689A4253
:1022380003D9BB69DB6A1A4A1360BB69DA6A1346B9
:102248009B0013449B00174A1A44BB690433104689
:10225800194601F0DFFC0123FB6101F067FE02E093
:102268004FF0FF33FB61FB69012B0BD10A4B1B6855
:10227800002B07D0074B1B68DA6ABB6A9A4201D267
:1022880001F024FEFB6918462037BD4680BD00BF1B
:10229800A4050020CC040020B0050020C0050020C3
:1022A800AC050020D004002080B584B000AF786071
:1022B80001F01CFE7B68002B02D1204B1B6800E05C
:1022C8007B68FB60FB680433184601F0FFFCFB6881
:1022D8009B6A002B04D0FB681833184601F0F6FC03
:1022E800FB6804331648194601F094FC154B1B682B
:1022F8000133144A1360144B1B680133124A1360EC
:1023080001F014FE114B1B68002B14D00B4B1B68FB
:10231800FA689A4209D10E4B1B68002B02D001F0D3
:102328001DFEFEE701F0D2FD05E001F0DFFD01F042
:1023380003F901F0FBFD1037BD4680BDCC04002039
:10234800780500208C050020C0050020B00500207D
:10235800C405002080B586B000AF786039600023DE
:102368007B617B68002B02D101F0F8FDFEE73B683A
:10237800002B02D101F0F2FDFEE7234B1B68002B76
:1023880002D001F0EBFDFEE700F09EFA1F4B1B6840
:102398003B617B681A683B681344FB607B681A687A
:1023A8003B699A420BD97B681A68FB689A4211D933
:1023B800FA683B699A420DD901237B610AE07B6880
:1023C8001A68FB689A4203D8FA683B699A4201D9AD
:1023D80001237B617B68FA681A607B69002B08D04F
:1023E8000B4B1B680433184601F070FCF86800F0CA
:1023F80083FF00F077FAB860BB68002B01D101F0C9
:1024080065FD1837BD4680BDC4050020A80500201D
:10241800CC04002080B584B000AF78600023FB6056
:102428007B68002B19D0114B1B68002B02D001F0E0
:1024380095FDFEE700F048FA0D4B1A687B681344D7
:10244800BB600C4B1B680433184601F03FFCB868AE
:1024580000F052FF00F046FAF860FB68002B01D14B
:1024680001F034FD1037BD4680BD00BFC405002013
:10247800A8050020CC04002080B584B000AF7860A7
:1024880001F034FD7B68002B02D1074B1B6800E08C
:102498007B68FB60FB68DB6ABB6001F047FDBB68DB
:1024A80018461037BD4680BDCC04002080B586B0E4
:1024B80000AF7860396000237B613B68042B02D948
:1024C80001F04CFDFEE73B68042B01D904233B6077
:1024D80001F00CFD7B68002B02D13A4B1B6800E031
:1024E8007B683B613B699B6CFB60FA683B689A427E
:1024F80062D03A68FB689A420DD9324B1B683A6938
:102508009A420FD02F4B1B68DA6A3B689A4209D867
:1025180001237B6106E02B4B1B683A699A4201D183
:1025280001237B613B69DB6ABB603B699A6C3B6951
:10253800DB6A9A4202D13B693A68DA623B693A68D7
:102548009A643B699B69002B04DB3B68C3F1050275
:102558003B699A613B695969BA6813469B00134401
:102568009B00194A1344994201D1012300E000233A
:10257800002B1CD03B690433184601F0A7FB3B69CC
:10258800DA6A124B1B689A4203D93B69DB6A0F4A25
:1025980013603B69DA6A13469B0013449B000A4A9E
:1025A8001A443B6904331046194601F033FB7B6932
:1025B800012B01D101F08AFC01F0B8FC1837BD46A7
:1025C80080BD00BFCC040020D0040020AC05002052
:1025D80080B584B000AF786001F088FC7B68002B80
:1025E80002D1244B1B6800E07B68FB60FB68043366
:1025F800184601F06BFBFB689B6A002B04D0FB6854
:102608001833184601F062FBFB6804331A48194670
:1026180001F000FB01F08AFC164B1B68FA689A422D
:102628001AD1164B1B68002B09D0154B1B68002BC1
:1026380002D001F093FCFEE701F048FC16E00E4BD7
:102648001A68104B1B689A4203D10A4B00221A6081
:102658000CE000F035FB09E0084B1B68002B05D0A7
:1026680001F044FC00F068FF01F060FC1037BD4643
:1026780080BD00BFCC04002090050020B0050020DC
:10268800C4050020A405002080B584B000AF7860A0
:102698000023FB607B68BB607B68002B02D101F0E4
:1026A8005DFCFEE7BB685B690E4A934201D10123DA
:1026B80000E00023002B0FD0BB689B6A0A4A9342B4
:1026C8000AD0BB689B6A002B01D1012300E00023DC
:1026D800002B01D00123FB60FB6818461037BD466C
:1026E80080BD00BF900500206405002080B584B03F
:1026F80000AF78607B68FB607B68002B02D101F03B
:102708002DFCFEE7FB68002B34D01C4B1B68FA68D5
:102718009A422FD001F0EAFBF868FFF7B5FF0346AD
:10272800012B25D1FB680433184601F0CFFAFB686A
:10273800DA6A134B1B689A4203D9FB68DB6A104AB2
:102748001360FB68DA6A13469B0013449B000D4A2A
:102758001A44FB6804331046194601F05BFAFB681B
:10276800DA6A064B1B68DB6A9A4201D301F0AEFBBA
:1027780001F0DCFB1037BD4680BD00BFCC04002053
:10278800AC050020D004002080B586B000AF78608A
:1027980000237B617B683B617B68002B02D101F0E1
:1027A800DDFBFEE701F04AFC01F0D8FBF860386970
:1027B800FFF76AFF0346012B30D11C4B1B68002B27
:1027C80026D13B69DA6A1A4B1B68DB6A9A4201D345
:1027D80001237B613B690433184601F077FA3B69B2
:1027E800DA6A144B1B689A4203D93B69DB6A114ABF
:1027F80013603B69DA6A13469B0013449B000E4A38
:102808001A443B6904331046194601F003FA05E0FF
:102818003B6918330948194601F0FCF9F86801F0DA
:10282800A7FB7B6918461837BD4680BDC405002044
:10283800CC040020AC050020D00400206405002052
:1028480080B586B004AF00230093002301930023D2
:102858000293002303931248124982220023FFF7B0
:102868006FFC78607B68012B02D1FEF70FFB786064
:102878007B68012B0AD101F071FB0B4B01221A6016
:102888000A4B00221A6001F0ABFA05E07B68002BC6
:1028980002D101F063FBFEE70837BD4680BD00BFEB
:1028A80059310008EC130108B0050020A8050020E4
:1028B80080B500AF01F052FB024B00221A6001F014
:1028C800F7FA80BDB005002080B400AF044B1B6848
:1028D8000133034A1360BD465DF8047B704700BFAF
:1028E800C405002080B582B000AF00237B60384B60
:1028F8001B68002B02D101F031FBFEE701F0F6FA6C
:10290800334B1B68013B324A1360314B1B68002B69
:1029180056D1304B1B68002B52D02FE02E4BDB6872
:10292800DB683B603B681833184601F0CFF93B6819
:102938000433184601F0CAF93B68DA6A274B1B686A
:102948009A4203D93B68DB6A244A13603B68DA6A17
:1029580013469B0013449B00214A1A443B680433E6
:102968001046194601F056F93B68DA6A1D4B1B6898
:10297800DB6A9A4202D31C4B01221A60164B1B6871
:10298800002BCBD1194B1B68002B11D00CE000F0A9
:10299800DFF80346002B02D0134B01221A60134BB9
:1029A8001B68013B114A1360104B1B68002BEED1CA
:1029B8000D4B1B68012B03D101237B6001F086FAC4
:1029C80001F0B4FA7B6818460837BD4680BD00BFE1
:1029D800C4050020A405002064050020AC050020E3
:1029E800D0040020CC040020B8050020B405002045
:1029F80080B582B000AF01F079FA054B1B687B60A7
:102A080001F094FA7B6818460837BD4680BD00BFC0
:102A1800A805002080B582B000AF01F00FFB01F0DF
:102A28009DFA7860054B1B683B60786801F0A0FA56
:102A38003B6818460837BD4680BD00BFA805002082
:102A480080B400AF034B1B681846BD465DF8047B95
:102A5800704700BFA405002080B586B000AFF860BD
:102A6800B9607A6000237B6105233B61FFF72CFF87
:102A7800314B1B68BA689A4257D33B69013B3B61AB
:102A88007B695B01FA68D1183A6913469B001344C5
:102A98009B002A4A134408461946012200F094FC78
:102AA80002467B6913447B613B69002BE5D17B6956
:102AB8005B01FA681A44224B1B6810461946022229
:102AC80000F082FC02467B6913447B617B695B01F1
:102AD800FA681A441B4B1B6810461946022200F07C
:102AE80073FC02467B6913447B617B695B01FA686E
:102AF800134418461449042200F066FC02467B6918
:102B080013447B617B695B01FA68134418460F49DB
:102B1800032200F059FC02467B6913447B617B6801
:102B2800002B02D07B6800221A60FFF7DBFE7B696E
:102B380018461837BD4680BDA4050020D0040020E3
:102B48005C05002060050020780500209005002025
:102B580080B586B000AF00237B614E4B1B68002B0D
:102B680040F087804C4B1B6801334B4A13604A4B3B
:102B78001B683B613B69002B18D1484B1B681B68DD
:102B8800002B02D001F0EAF9FEE7444B1B68FB601A
:102B9800434B1B68414A1360414AFB681360414B31
:102BA8001B6801333F4A136000F0C6FC3E4B1B68AC
:102BB8003A699A424ED3394B1B681B68002B01D1E6
:102BC800012300E00023002B04D0374B4FF0FF32E5
:102BD8001A603FE0314B1B68DB68DB68BB60BB6891
:102BE8005B687B603A697B689A4203D22E4A7B68AD
:102BF80013602FE0BB680433184601F067F8BB6820
:102C08009B6A002B04D0BB681833184601F05EF8A5
:102C1800BB68DA6A254B1B689A4203D9BB68DB6A32
:102C2800224A1360BB68DA6A13469B0013449B0070
:102C38001F4A1A44BB6804331046194600F0EAFFDD
:102C4800BB68DA6A1B4B1B68DB6A9A4201D3012313
:102C58007B61B0E7174B1B68DA6A154913469B007E
:102C680013449B000B441B68012B07D901237B618C
:102C780004E0114B1B6801330F4A13600F4B1B68AC
:102C8800002B01D001237B617B6918461837BD46AC
:102C980080BD00BFC4050020A80500205C050020F9
:102CA80060050020BC05002030000020AC05002095
:102CB800D0040020CC040020B4050020B805002072
:102CC80080B582B000AF224B1B68002B03D0214B8C
:102CD80001221A6038E01F4B00221A600BE01E4BDD
:102CE8001B68002B02D101F039F9FEE71A4B1B686B
:102CF800013B194A1360184B1A68184913469B0080
:102D080013449B000B441B68002BE8D0124B1A6835
:102D180013469B0013449B00104A13447B607B6856
:102D28005B685A687B685A607B685A687B680833B6
:102D38009A4204D17B685B685A687B685A607B68F2
:102D48005B68DB68064A13600837BD4680BD00BF74
:102D5800C4050020B8050020AC050020D0040020E0
:102D6800CC04002080B584B000AF786039607B68FF
:102D7800002B02D101F0F2F8FEE7124B1B68183362
:102D88007868194600F06AFF0E4B1B680433184632
:102D980000F09CFF3B68B3F1FF3F07D1094B1B686C
:102DA80004330948194600F035FF07E0074B1A6855
:102DB8003B681344FB60F86800F09EFA1037BD4684
:102DC80080BD00BFCC04002090050020A80500208D
:102DD80080B586B000AFF860B9607A60FB68002BF8
:102DE80002D101F0BBF8FEE7184B1B68002B02D19B
:102DF80001F0B4F8FEE7164B1B68BA6842F00042CF
:102E08009A61134B1B681833F868194600F002FFE3
:102E18000F4B1B680433184600F058FF7B68B3F16A
:102E2800FF3F07D10A4B1B6804330A48194600F0D4
:102E3800F1FE07E0084B1A687B6813447B617869E8
:102E480000F05AFA1837BD4680BD00BFC4050020FF
:102E5800CC04002090050020A805002080B584B08F
:102E680000AF786039607B68002B02D101F076F8FA
:102E7800FEE70C4B1B6818337868194600F0CAFE49
:102E8800084B1B680433184600F020FF064B1A68ED
:102E98003B681344FB60F86800F02EFA1037BD4613
:102EA80080BD00BFCC040020A805002080B584B0F8
:102EB80000AF78607B68DB68DB68BB60BB68002BB1
:102EC80002D101F04BF8FEE7BB681833184600F052
:102ED800FDFE1E4B1B68002B1DD1BB680433184632
:102EE80000F0F4FEBB68DA6A194B1B689A4203D9F2
:102EF800BB68DB6A164A1360BB68DA6A13469B0034
:102F080013449B00134A1A44BB68043310461946FD
:102F180000F080FE05E0BB6818330F48194600F042
:102F280079FEBB68DA6A0D4B1B68DB6A9A4205D9E1
:102F38000123FB600A4B01221A6001E00023FB60B9
:102F4800FB6818461037BD4680BD00BFC405002089
:102F5800AC050020D004002064050020CC0400202B
:102F6800B805002080B584B000AF78603960244B84
:102F78001B68002B02D100F0F1FFFEE73B6843F02D
:102F880000427B681A607B68DB68BB60BB68002B0B
:102F980002D100F0E3FFFEE7786800F097FEBB6817
:102FA8000433184600F092FEBB68DA6A154B1B68BA
:102FB8009A4203D9BB68DB6A124A1360BB68DA6AB3
:102FC80013469B0013449B000F4A1A44BB68043302
:102FD8001046194600F01EFEBB68DA6A0B4B1B68E8
:102FE800DB6A9A4205D90123FB60094B01221A606A
:102FF80001E00023FB60FB6818461037BD4680BD22
:10300800C4050020AC050020D0040020CC0400201A
:10301800B805002080B582B000AF78607B68002BCF
:1030280002D100F09BFFFEE7054B1A687B681A6027
:10303800044B1A687B685A600837BD4680BD00BFDC
:10304800BC050020A805002080B584B000AF7860DA
:1030580039607B68002B02D100F080FFFEE73B68F7
:10306800002B02D100F07AFFFEE700F03FFF1C4B77
:103078001B68BB603B681B68B3F1FF3F02D10023AC
:10308800FB6026E07B681A68164B1B689A4207D0DB
:103098007B685A68BB689A4202D80123FB6018E033
:1030A8007B685B68BA68D21A3B681B689A420ED282
:1030B8003B681A687B685968BB68CB1A1A443B6836
:1030C8001A607868FFF7A6FF0023FB6001E0012380
:1030D800FB6000F02BFFFB6818461037BD4680BD2B
:1030E800A8050020BC05002080B400AF034B0122D6
:1030F8001A60BD465DF8047B704700BFB805002024
:1031080080B485B000AF78607B68002B05D07B6801
:10311800BB60BB685B6CFB6001E00023FB60FB6885
:1031280018461437BD465DF8047B704780B485B0F7
:1031380000AF786039607B68002B04D07B68FB6047
:10314800FB683A685A641437BD465DF8047B7047DB
:1031580080B582B000AF786000F094F8034B1B682C
:10316800012B01D900F0B2FEF6E700BFD004002021
:1031780080B586B000AFF860B9607A603B60002324
:103188007B6113E0BA687B6913441978FA687B6934
:10319800134430330A461A71BA687B6913441B78A2
:1031A800002B00D105E07B6901337B617B69092B2A
:1031B800E8D9FB68002283F83D207B68042B01D9FD
:1031C80004237B60FB687A68DA62FB687A689A6431
:1031D800FB680022DA64FB680433184600F00EFD31
:1031E800FB681833184600F009FDFB68FA681A6195
:1031F8007B68C3F10502FB689A61FB68FA685A624A
:103208001837BD4680BD00BF80B582B000AF00232F
:103218007B600CE07A6813469B0013449B00114ABC
:103228001344184600F0CAFC7B6801337B607B6856
:10323800042BEFD90C4800F0C1FC0C4800F0BEFC90
:103248000B4800F0BBFC0B4800F0B8FC0A4800F043
:10325800B5FC0A4B044A1A60094B044A1A6008373D
:10326800BD4680BDD004002034050020480500205C
:103278006405002078050020900500205C050020EA
:103288006005002080B582B000AF28E0FFF71CFB86
:10329800164B1B68002B0CBF01230023DBB27B609D
:1032A800FFF720FB7B68002B19D100F01FFE0F4BA6
:1032B800DB68DB683B603B680433184600F006FDBA
:1032C8000B4B1B68013B0A4A13600A4B1B68013B06
:1032D800084A136000F02AFE386800F01DF9054B13
:1032E8001B68002BD2D10837BD4680BD7805002069
:1032F800A40500208C05002080B582B000AF78605E
:10330800134B1B687A685A60124B1B687A689A429A
:1033180009D2114B1A680E4B1B6804331046194624
:1033280000F09CFC10E00D4B1A68094B1B68043335
:103338001046194600F092FC094B1B687A689A42BD
:1033480002D2074A7B6813600837BD4680BD00BFBC
:10335800CC040020A8050020600500205C050020A2
:103368003000002080B584B000AF03463960FB8090
:10337800502000F093FEF860FB68002B1FD03B68DC
:10338800002B06D1FB889B00184600F087FE0346F9
:1033980000E03B68FA681363FB681B6B002B05D1E0
:1033A800F86800F0C1FE0023FB6008E0FB681A6BB8
:1033B800FB889B001046A5211A460DF0B1FEFB685C
:1033C80018461037BD4680BD90B58BB000AFF86089
:1033D800B9601346FB7100237B62BB681B68002B36
:1033E80078D0BB683B623B6A5B685A683B6A5A6044
:1033F8003B6A5A683B6A08339A4204D13B6A5B6865
:103408005A683B6A5A603B6A5B68DB68FB61BB6869
:10341800BB61BB695B685A68BB695A60BB695A681B
:10342800BB6908339A4204D1BB695B685A68BB69B7
:103438005A60BB695B68DB687B617B6A5B01FA6821
:1034480013447A691A607B6A5B01FA6813447A69E3
:1034580034325A607B6A5B01FA6813447A69126CE9
:103468009A607B6A5B01FA681344FA791A737B6A7B
:103478005B01FA6813447A69D26A1A61FB79032BF3
:1034880009D17B699B6A002B05D07B6A5B01FA68CE
:10349800134402221A737B6A5B01FA6813447A693F
:1034A800926C5A617B6A5B01FA68134400229A6144
:1034B8007B6A5B01FA68D4187B691B6B184600F0BD
:1034C8000FF80346A3837B6A01337B627A69FB6941
:1034D8009A429CD17B6A18462C37BD4690BD00BFE6
:1034E80080B485B000AF78600023FB6005E07B689E
:1034F80001337B60FB680133FB607B681B78A52B7D
:10350800F5D0FB689B08FB60FB689BB21846143734
:10351800BD465DF8047B704780B582B000AF786027
:103528007B681B6B184600F0FFFD786800F0FCFD17
:103538000837BD4680BD00BF80B483B000AF0E4BD6
:103548001B681B68002B01D1012300E00023002B1E
:1035580004D00A4B4FF0FF321A6008E0064B1B6894
:10356800DB68DB687B607B685B68044A13600C3748
:10357800BD465DF8047B70475C05002030000020E4
:1035880080B483B000AF054B1B687B607B6818462E
:103598000C37BD465DF8047B704700BFCC040020A3
:1035A80080B483B000AF0B4B1B68002B02D1012302
:1035B8007B6008E0084B1B68002B02D102237B606C
:1035C80001E000237B607B6818460C37BD465DF838
:1035D800047B7047B0050020C405002080B584B086
:1035E80000AF78607B68FB607B68002B4AD0FB6883
:1035F800DA6A264B1B68DB6A9A4243D2FB689B69EE
:10360800002B06DB214B1B68DB6AC3F10502FB6854
:103618009A61FB685969FB68DA6A13469B00134490
:103628009B001B4A1344994201D1012300E0002367
:10363800002B22D0FB680433184600F047FB134BDD
:103648001B68DA6AFB68DA62FB68DA6A114B1B6886
:103658009A4203D9FB68DB6A0E4A1360FB68DA6A90
:1036680013469B0013449B00094A1A44FB68043321
:103678001046194600F0CEFA04E0044B1B68DA6ADB
:10368800FB68DA621037BD4680BD00BFCC0400205D
:10369800D0040020AC05002080B584B000AF78606D
:1036A8007B68BB600023FB607B68002B32D0BB6863
:1036B800DA6ABB689B6C9A422CD0BB68DB6C002B27
:1036C80028D1BB680433184600F000FBBB689A6C2D
:1036D800BB68DA62BB68DB6AC3F10502BB689A6142
:1036E800BB68DA6A0E4B1B689A4203D9BB68DB6A6F
:1036F8000B4A1360BB68DA6A13469B0013449B00AD
:10370800084A1A44BB6804331046194600F082FA86
:103718000123FB60FB6818461037BD4680BD00BF1B
:10372800AC050020D004002080B483B000AF094B62
:103738001B689B697B60074B1B68064A1268D26A44
:10374800C2F105029A617B6818460C37BD465DF8E0
:10375800047B7047CC04002080B400AF064B1B6884
:10376800002B04D0044B1B68DA6C0132DA64BD46C6
:103778005DF8047B704700BFCC04002080B500AF23
:10378800084B1B68002B0CD0064B1B68DB6C002B0E
:1037980002D100F0E3FBFEE7024B1B68DA6C013A4A
:1037A800DA6480BDCC04002080B586B000AFF86034
:1037B800B9607A60382000F071FC38613B69002BF1
:1037C80049D0294B1B68002B04D1274A3B69136059
:1037D80000F098F9BB68012B01D90123BB603B6954
:1037E80000229A863B69BA68DA623B697A681A638A
:1037F8003B69FA681A603B690433184600F0FEF921
:103808003B691833184600F0F9F93B693A691A61BF
:103818003B693A695A62BB68C3F102023B699A6123
:103828003B69DA6A114B1B689A4203D93B69DB6A28
:103838000E4A13603B69DA6A13469B0013449B00E7
:103848000B4A1A443B6904331046194600F0E2F962
:1038580001237B6102E04FF0FF337B617B691846EF
:103868001837BD4680BD00BF34060020380600204A
:10387800C805002080B584B000AF786039601A4B65
:103888001A687B681344FB60184B1B68043318469E
:1038980000F01CFA154B1B68FA685A60124B1B683B
:1038A800FA689A4209D2124B1A68104B1B68043303
:1038B8001046194600F0D2F908E00E4B1A680B4B77
:1038C8001B6804331046194600F0C8F93B68002B02
:1038D80006D0064B1B6818333868194600F0BEF945
:1038E8001037BD4680BD00BF3C06002034060020CE
:1038F8001C0600201806002080B582B000AF2AE020
:1039080000F02CFB174BDB68DB687B607B681833A7
:10391800184600F0DBF9002000F02AFB7B6804332E
:10392800184600F0D3F97B68DA6A0F4B1B689A4295
:1039380003D97B68DB6A0C4A13607B68DA6A134632
:103948009B0013449B00094A1A447B6804331046C1
:10395800194600F05FF9034B1B68002BD0D10837DC
:10396800BD4680BD2006002038060020C80500207E
:1039780080B582B000AFFFF73BF80246324B1B68B8
:10398800D31A324A136054E0314B1B680133304A72
:1039980013602E4B1B68013B2C4A13602C4B1B6891
:1039A800002B09D12B4B1B687B602B4B1B68294ACA
:1039B8001360294A7B68136036E0264B1B68DB6876
:1039C800DB683B603B685A68214B1B689A4200D908
:1039D8002FE000F0C3FA3B680433184600F076F98C
:1039E8003B689B6A002B04D03B681833184600F0EC
:1039F8006DF9002000F0BCFA3B68DA6A174B1B68C7
:103A08009A4203D93B68DB6A144A13603B68DA6A56
:103A180013469B0013449B00114A1A443B68043325
:103A28001046194600F0F6F80A4B1B681B68002B75
:103A3800C3D1064B1B68002BA6D1054B1B68024A55
:103A480013600837BD4680BD4006002044060020AC
:103A58003C060020180600201C060020380600201E
:103A6800C805002080B582B000AFFFF745FFFFF71B
:103A78007FFF09E0204B1B68002B00D139E01E4B6B
:103A88001B68013B1C4A13601B4B1A681B491346F1
:103A98009B0013449B000B441B68002BEAD0164B79
:103AA8001A6813469B0013449B00144A13447B6016
:103AB8007B685B685A687B685A607B685A687B6871
:103AC80008339A4204D17B685B685A687B685A60FD
:103AD8007B685B68DB680A4A1360094B1B681B68D4
:103AE800074A1168064A1268126B08461146984739
:103AF80000BF0837BD4680BD38060020C805002035
:103B08003406002080B582B000AF00237B600CE053
:103B18007A6813469B0013449B000E4A13441846C8
:103B280000F04CF87B6801337B607B68012BEFD990
:103B3800094800F043F8094800F040F8084800F048
:103B48003DF8084B044A1A60074B044A1A600837C4
:103B5800BD4680BDC8050020F005002004060020F1
:103B680020060020180600201C06002080B584B01E
:103B780000AF78607B68DB68DB68BB60BB681833C4
:103B8800184600F0A3F8BB6818330A48194600F035
:103B980041F8BB68DA6A084B1B68DB6A9A4202D3B1
:103BA8000123FB6001E00023FB60FB681846103727
:103BB800BD4680BD200600203406002080B483B0B6
:103BC80000AF78607B6803F108027B685A607B6805
:103BD8004FF0FF329A607B6803F108027B68DA6075
:103BE8007B6803F108027B681A617B6800221A600F
:103BF8000C37BD465DF8047B704700BF80B483B0C6
:103C080000AF78607B6800221A610C37BD465DF80A
:103C1800047B704780B485B000AF786039607B68FA
:103C28005B68FB603B68FA685A60FB689A683B68A7
:103C38009A60FB689B683A685A60FB683A689A60C1
:103C48003B687A681A617B681B685A1C7B681A6033
:103C58001437BD465DF8047B704700BF80B485B05B
:103C680000AF786039603B681B68BB60BB68B3F124
:103C7800FF3F03D17B681B69FB600CE07B6808335E
:103C8800FB6002E0FB685B68FB60FB685B681A68C6
:103C9800BB689A42F6D9FB685A683B685A603B6829
:103CA8005B683A689A603B68FA689A60FB683A68A9
:103CB8005A603B687A681A617B681B685A1C7B6883
:103CC8001A601437BD465DF8047B704780B485B030
:103CD80000AF78607B681B69FB607B685B687A680B
:103CE80092689A607B689B687A6852685A60FB6839
:103CF8005A687B689A4203D17B689A68FB685A6065
:103D08007B6800221A61FB681B685A1EFB681A60F0
:103D1800FB681B6818461437BD465DF8047B70477E
:103D280080B485B000AFF860B9607A60FB68043B86
:103D3800FB60FB684FF080721A60FB68043BFB6015
:103D4800BA68FB681A60FB68043BFB600C4AFB68B6
:103D58001A60FB68143BFB607A68FB681A60FB68B2
:103D6800043BFB60FB686FF002021A60FB68203BB3
:103D7800FB60FB6818461437BD465DF8047B704746
:103D88008D3D000880B500AF054B1B68B3F1FF3FC0
:103D980002D000F0E3F8FEE700F0E0F8FEE700BF2D
:103DA80034000020064B19680868B0E8F04F80F32B
:103DB8000988BFF36F8F4FF0000080F311887047B8
:103DC800CC040020B3480068006880F3088862B615
:103DD80061B6BFF34F8FBFF36F8F00DF00BF00BF27
:103DE80080B584B000AF2C4BFB60FB681B78DBB25E
:103DF800BB60FB68FF221A70FB681B78DBB2FB71A3
:103E0800FB79DBB203F05003DAB2244B1A70244B6F
:103E180007221A6009E0224B1B68013B204A136005
:103E2800FB79DBB25B00DBB2FB71FB79DBB2DBB2A7
:103E38005BB2002BEFDB1A4B1B681B02184A13609E
:103E4800174B1B6803F4E063154A1360BB68DAB2CA
:103E5800FB681A70134A134B1B6843F47003136012
:103E6800104A104B1B6843F07043136000F0C4F80D
:103E78000D4B00221A6000F0D9F80C4A0B4B1B6856
:103E880043F040431360FFF79DFFFFF77BFF0023DC
:103E980018461037BD4680BD00E400E04806002003
:103EA8004C06002020ED00E03400002034EF00E054
:103EB80080B500AF044B1B68B3F57A7F02D000F0E1
:103EC8004DF8FEE780BD00BF3400002080B400AF8D
:103ED800054B4FF080521A60BFF34F8FBFF36F8FBF
:103EE800BD465DF8047B704704ED00E080B500AF87
:103EF80000F034F80B4B1B6801330A4A1360BFF318
:103F08004F8FBFF36F8F074B1B68012B08D1064BF0
:103F18001B6803F01F03002B02D000F01FF8FEE718
:103F280080BD00BF3400002004ED00E080B500AF84
:103F3800094B1B68002B02D100F010F8FEE7064B76
:103F48001B68013B044A1360034B1B68002B02D11A
:103F5800002000F00DF880BD34000020EFF3118040
:103F68004FF0500181F3118870470023184600BFB5
:103F780080F31188704700BFEFF30980BFF36F8F9C
:103F8800124B1A681EF0100F08BF20ED108A20E9A6
:103F9800F04F10604DF8043D4FF0500080F3118849
:103FA800FEF78EFE4FF0000080F3118808BC1968F8
:103FB8000868B0E8F04F1EF0100F08BFB0EC108A88
:103FC80080F30988BFF36F8F704700BFCC040020CF
:103FD80080B500AFFFF7C2FFFEF7BAFD0346002B1E
:103FE80003D0044B4FF080521A600020FFF7C0FF47
:103FF80080BD00BF04ED00E080B400AF074A084B65
:104008001B680849A1FB03139B09013B1360064B7E
:1040180007221A60BD465DF8047B704714E000E093
:1040280008000020D34D621010E000E0DFF86800BF
:10403800016841F470010160704700BF80B582B02B
:1040480000AFEFF305837B607B680F2B0CD90D4A1B
:104058007B6813441B78FB700B4B1B78FA789A42E9
:1040680002D2FFF77BFFFEE7084B1B6803F4E06210
:10407800074B1B689A4202D9FFF770FFFEE7083723
:10408800BD4680BDF0E300E0480600200CED00E0EE
:104098004C06002008ED00E088ED00E080B584B013
:1040A80000AF78600023FB607B6803F00703002BF8
:1040B80004D07B6823F0070308337B60FEF704FC19
:1040C800154B1B68002B05D1144B23F007031A4628
:1040D800114B1A60124B1A687B681344114A9342B9
:1040E80013D80F4B1A687B681A440D4B1B689A4209
:1040F8000BD9094B1A680A4B1B681344FB60084B21
:104108001A687B681344064A1360FEF7EBFBFB68EA
:1041180018461037BD4680BD54320120580600208D
:1041280050320120F72B010080B582B000AF7860D3
:104138007B68002B02D0FFF711FFFEE70837BD466A
:1041480080BD00BF80B400AF034B00221A60BD469B
:104158005DF8047B704700BF5032012080B400AF87
:10416800054B1B68C3F5953303F5FC731846BD462C
:104178005DF8047B704700BF5032012080B400AF67
:10418800BD465DF8047B704780B400AFFEE700BF12
:1041980080B400AFFEE700BF80B400AFFEE700BF09
:1041A80080B400AFFEE700BF80B400AFBD465DF845
:1041B800047B704780B483B000AF0346FB80044A99
:1041C800FB8813600C37BD465DF8047B704700BF61
:1041D8000030004080B483B000AF0346FB71044A4E
:1041E800FB7953600C37BD465DF8047B704700BF10
:1041F8000030004080B483B000AF0346FB80044A1F
:10420800FB8893600C37BD465DF8047B704700BFA0
:104218000030004080B400AF034B4AF6AA221A606F
:10422800BD465DF8047B70470030004080B400AFA5
:10423800034B4CF6CC421A60BD465DF8047B7047D0
:104248000030004080B485B000AF0346FB800023F7
:10425800FB73094BDA68FB881340002B02D001235B
:10426800FB7301E00023FB73FB7B18461437BD4644
:104278005DF8047B704700BF0030004080B400AF99
:10428800104A104B1B6843F0010313600D4B0022CA
:104298009A600C4A0B4B1B6823F0847323F4803319
:1042A8001360084B084A5A60064A064B1B6823F4F9
:1042B80080231360034B0022DA60BD465DF8047B5F
:1042C800704700BF003802401030002480B483B02B
:1042D80000AF0346FB71054B00221A70034AFB79B5
:1042E80013700C37BD465DF8047B704702380240F6
:1042F80080B582B000AF00233B600023FB71002330
:10430800BB71312000F086FC0346BB713B6801336A
:104318003B603B68B3F5A06F02D0BB79002BF0D0AF
:10432800312000F077FC0346002B02D00123FB71FB
:1043380001E00023FB71FB7918460837BD4680BDB4
:1043480080B485B000AF0346FB710023FB600A4BC5
:104358001B68FB60FB6823F0F803FB60FB79DB005C
:10436800FA681343FB60044AFB6813601437BD46C0
:104378005DF8047B704700BF0038024080B483B00A
:1043880000AF0346FB71044AFB7913600C37BD4646
:104398005DF8047B704700BF0000474280B483B0DB
:1043A80000AF0346FB710C4B00221A700A4B002227
:1043B8001A70FB79012B02D0042B04D007E0064BBE
:1043C80001221A7003E0044B05221A7000BF0C3753
:1043D800BD465DF8047B70477038024080B483B0F6
:1043E80000AF0346FB71044AFB7913600C37BD46E6
:1043F8005DF8047B704700BF800E474280B485B0EB
:1044080000AFF860B9607A603B600A497B689A013E
:10441800BB681A433B685B08013B1B041A43FB68F3
:104428001A43BB691B0613434B601437BD465DF83E
:10443800047B70470038024080B483B000AF034665
:10444800FB71044AFB7913600C37BD465DF8047BA9
:10445800704700BF6000474280B483B000AF786007
:10446800396006497B689A013B681B071343C1F80A
:1044780084300C37BD465DF8047B70470038024035
:1044880080B483B000AF0346FB71044AFB79136024
:104498000C37BD465DF8047B704700BF6800474293
:1044A80080B483B000AF0346FB71044AFB79136004
:1044B8000C37BD465DF8047B704700BF4C0047428F
:1044C80080B485B000AF786039600023FB600A4B88
:1044D8009B68FB60FB6823F0EC63FB607A683B68D1
:1044E8001343FA681343FB60034AFB68936014376D
:1044F800BD465DF8047B70470038024080B485B043
:1045080000AF786039600023FB600A4B9B68FB6052
:10451800FB6823F07843FB607A683B681343FA68CA
:104528001343FB60034AFB6893601437BD465DF88C
:10453800047B70470038024080B485B000AF7860D3
:104548000023FB60094B9B68FB60FB6823F00303B7
:10455800FB60FA687B681343FB60044AFB6893605E
:104568001437BD465DF8047B704700BF0038024031
:1045780080B400AF054B9B68DBB203F00C03DBB2E1
:104588001846BD465DF8047B704700BF00380240FE
:1045980080B485B000AF78600023FB60094B9B684E
:1045A800FB60FB6823F0F003FB60FA687B68134349
:1045B800FB60044AFB6893601437BD465DF8047BD2
:1045C800704700BF0038024080B485B000AF786003
:1045D8000023FB60094B9B68FB60FB6823F4E053F6
:1045E800FB60FA687B681343FB60044AFB689360CE
:1045F8001437BD465DF8047B704700BF00380240A1
:1046080080B485B000AF78600023FB60094B9B68DD
:10461800FB60FB6823F46043FB607B68DB00FA689F
:104628001343FB60034AFB6893601437BD465DF88B
:10463800047B70470038024080B489B000AF7860CE
:104648000023BB6100237B610023FB6102233B61E4
:104658000023FB600223BB60484B9B6803F00C03FC
:10466800BB61BB69042B07D0082B09D0002B3FD1B5
:104678007B68434A1A603FE07B68424A1A603BE025
:104688003E4B5B6803F480039B0DFB603B4B5B6810
:1046980003F03F03BB60FB68002B0DD0394ABB68B1
:1046A800B2FBF3F2354B596847F6C0730B409B09D0
:1046B80003FB02F3FB610CE0314ABB68B2FBF3F287
:1046C8002E4B596847F6C0730B409B0903FB02F356
:1046D800FB612A4B5B6803F440331B0C01335B001E
:1046E8003B61FA693B69B2FBF3F27B681A6003E04D
:1046F8007B68234A1A6000BF204B9B6803F0F003D5
:10470800BB61BB691B09BB611F4ABB6913441B78AA
:10471800DBB27B617B681A687B69DA407B685A6028
:10472800164B9B6803F4E053BB61BB699B0ABB61F2
:10473800154ABB6913441B78DBB27B617B685A68F6
:104748007B69DA407B689A600C4B9B6803F4604392
:10475800BB61BB695B0BBB610B4ABB6913441B782C
:10476800DBB27B617B685A687B69DA407B68DA6018
:104778002437BD465DF8047B704700BF003802400F
:104788000024F40000127A003800002080B485B0BC
:1047980000AF78600023FB607B6803F44073B3F5D7
:1047A800407F11D10F4B9B68FB60FB6823F4F81323
:1047B800FB607B6823F0704323F44073FA6813436B
:1047C800FB60084AFB6893600649064B1A6F7B68D2
:1047D800C3F30B0313430B671437BD465DF8047B23
:1047E800704700BF0038024080B483B000AF034672
:1047F800FB71044AFB7913600C37BD465DF8047BF6
:10480800704700BF3C0E474280B483B000AF0346F8
:10481800FB71044AFB7913600C37BD465DF8047BD5
:10482800704700BF400E474280B483B000AF786045
:10483800034A7B6813600C37BD465DF8047B7047FC
:104848005C01474280B483B000AF78600B46FB70D0
:10485800FB78002B06D00949084B1A6B7B68134379
:104868000B6306E00549054B1A6B7B68DB43134075
:104878000B630C37BD465DF8047B70470038024077
:1048880080B483B000AF78600B46FB70FB78002BD8
:1048980006D00949084B5A6B7B6813434B6306E003
:1048A8000549054B5A6B7B68DB4313404B630C3758
:1048B800BD465DF8047B70470038024080B483B081
:1048C80000AF78600B46FB70FB78002B06D00949D7
:1048D800084B9A6B7B6813438B6306E00549054BCD
:1048E8009A6B7B68DB4313408B630C37BD465DF8DE
:1048F800047B70470038024080B483B000AF786012
:104908000B46FB70FB78002B06D00949084B1A6C44
:104918007B6813430B6406E00549054B1A6C7B68FA
:10492800DB4313400B640C37BD465DF8047B7047CE
:104938000038024080B483B000AF78600B46FB704B
:10494800FB78002B06D00949084B5A6C7B68134347
:104958004B6406E00549054B5A6C7B68DB43134002
:104968004B640C37BD465DF8047B70470038024045
:1049780080B483B000AF78600B46FB70FB78002BE7
:1049880006D00949084B1A697B6813430B6106E096
:104998000549054B1A697B68DB4313400B610C37EB
:1049A800BD465DF8047B70470038024080B483B090
:1049B80000AF78600B46FB70FB78002B06D00949E6
:1049C800084B5A697B6813434B6106E00549054B60
:1049D8005A697B68DB4313404B610C37BD465DF871
:1049E800047B70470038024080B483B000AF786021
:1049F8000B46FB70FB78002B06D00949084B9A69D7
:104A08007B6813438B6106E00549054B9A697B680F
:104A1800DB4313408B610C37BD465DF8047B704760
:104A28000038024080B483B000AF78600B46FB705A
:104A3800FB78002B06D00949084B1A6A7B68134398
:104A48000B6206E00549054B1A6A7B68DB43134095
:104A58000B620C37BD465DF8047B70470038024096
:104A680080B483B000AF78600B46FB70FB78002BF6
:104A780006D00949084B5A6A7B6813434B6206E023
:104A88000549054B5A6A7B68DB4313404B620C3778
:104A9800BD465DF8047B70470038024080B483B09F
:104AA80000AF78600B46FB70FB78002B06D00949F5
:104AB800084B1A6D7B6813430B6506E00549054BE7
:104AC8001A6D7B68DB4313400B650C37BD465DF8F8
:104AD800047B70470038024080B483B000AF786030
:104AE8000B46FB70FB78002B06D00949084B5A6D22
:104AF8007B6813434B6506E00549054B5A6D7B6897
:104B0800DB4313404B650C37BD465DF8047B7047AB
:104B18000038024080B483B000AF78600B46FB7069
:104B2800FB78002B06D00949084B9A6D7B68134324
:104B38008B6506E00549054B9A6D7B68DB4313409E
:104B48008B650C37BD465DF8047B70470038024022
:104B580080B483B000AF78600B46FB70FB78002B05
:104B680006D00949084B1A6E7B6813430B6606E0AA
:104B78000549054B1A6E7B68DB4313400B660C37FF
:104B8800BD465DF8047B70470038024080B483B0AE
:104B980000AF78600B46FB70FB78002B06D0094904
:104BA800084B5A6E7B6813434B6606E00549054B74
:104BB8005A6E7B68DB4313404B660C37BD465DF885
:104BC800047B70470038024080B483B000AF0346CE
:104BD8000A46FB711346BB71BB79002B08D00C4900
:104BE8000B4B1B78DAB2FB791343DBB20B7009E08D
:104BF8000749074B1B78DAB2FB79DB43DBB213407A
:104C0800DBB20B700C37BD465DF8047B704700BF04
:104C18000D38024080B487B000AF0346FB71002313
:104C2800FB6000237B610023FB74FB795B09DBB22B
:104C3800FB60FB68012B03D1124B1B687B6109E009
:104C4800FB68022B03D10F4B1B6F7B6102E00D4BFE
:104C58005B6F7B61FB7903F01F03FB60FB687A697C
:104C680022FA03F303F00103002B02D00123FB74A3
:104C780001E00023FB74FB7C18461C37BD465DF839
:104C8800047B70470038024080B400AF044A044BEC
:104C98005B6F43F080735367BD465DF8047B7047D4
:104CA8000038024080B485B000AF0346FB71002392
:104CB800FB73094BDA68FB791340002B02D0012300
:104CC800FB7301E00023FB73FB7B18461437BD46DA
:104CD8005DF8047B704700BF0038024080B483B0A1
:104CE80000AF0346FB71044AFB7913700C37BD46CD
:104CF8005DF8047B704700BF0E38024080B400AFF7
:104D0800094B00221A60084B00225A60064B002209
:104D18009A60054B0022DA60034B044A5A61BD468B
:104D28005DF8047B704700BF003C0140FFFF7F0037
:104D380080B485B000AF78600023FB60344BFB6023
:104D48007B689B79002B4FD03149314B1A687B68BF
:104D58001B68DB4313400B602D492D4B5A687B6859
:104D68001B68DB4313404B607B681B791A46FB6862
:104D78001344FB60FB68FA6811687A6812680A4392
:104D88001A602349224B9A687B681B68DB431340EF
:104D98008B601F491E4BDA687B681B68DB43134036
:104DA800CB607B685B79102B0ED11949184B9A6838
:104DB8007B681B6813438B601549154BDA687B6861
:104DC8001B681343CB601DE0114BFB607B685B796C
:104DD8001A46FB681344FB60FB68FA6811687A6836
:104DE80012680A431A600DE07B681B791A46FB6853
:104DF8001344FB60FB68FA6811687A681268D2434A
:104E08000A401A601437BD465DF8047B704700BF3E
:104E1800003C014080B483B000AF78607B6800221A
:104E28001A607B6800221A717B680C225A717B68B1
:104E380000229A710C37BD465DF8047B704700BFAD
:104E480080B483B000AF78600549054B1A697B6868
:104E580013430B610C37BD465DF8047B704700BFF8
:104E6800003C014080B485B000AF78600023FB733C
:104E7800084B5A697B681340002B02D00123FB734F
:104E880001E00023FB73FB7B18461437BD465DF831
:104E9800047B7047003C014080B483B000AF786069
:104EA800034A7B6853610C37BD465DF8047B704745
:104EB800003C014080B485B000AF78600023FB73EC
:104EC8000023BB600C4B1A687B681340BB600A4B1D
:104ED8005A697B681340002B05D0BB68002B02D0B1
:104EE8000123FB7301E00023FB73FB7B1846143797
:104EF800BD465DF8047B7047003C014080B483B038
:104F080000AF7860034A7B6853610C37BD465DF893
:104F1800047B7047003C014080B500AF4FF0005063
:104F28000121FFF77FFD4FF000500021FFF77AFDC8
:104F380080BD00BF80B485B000AF786039600023C1
:104F4800FB600023BB60134B1B68FB607B6840F66B
:104F5800FE7202FA03F3DB43FA681340FB603B6816
:104F68001A683B685B681A433B689B681A433B684E
:104F7800DB681343BB607B68BA6802FA03F3FA681C
:104F88001343FB60034AFB6813601437BD465DF8A2
:104F9800047B70470074004080B483B000AF786031
:104FA8007B6800221A607B6800225A607B680022B6
:104FB8009A607B680022DA600C37BD465DF8047B96
:104FC800704700BF80B483B000AF78600B46FB70B9
:104FD800FB78002B09D00C490B4B1A687B68012021
:104FE80000FA03F313430B6009E00749064B1A68FC
:104FF8007B68012000FA03F3DB4313400B600C3796
:10500800BD465DF8047B70470074004080B483B0EF
:1050180000AF78600B46FB70FB78002B0AD00D4977
:105028000C4B5A687B681B091846012383401343BD
:105038004B600AE00749074B5A687B681B0918460A
:1050480001238340DB4313404B600C37BD465DF8BA
:10505800047B70470074004080B483B000AF0346FF
:10506800FB71FB79002B06D0084A084B5B6843F0BC
:105078000303536005E0054A044B5B6823F0030310
:1050880053600C37BD465DF8047B704700740040E0
:1050980080B485B000AFF860B9601346FB71FB7946
:1050A800002B09D00C480C4B1A68FB68B96801FA48
:1050B80003F31343036009E00748074B1A68FB68CA
:1050C800B96801FA03F3DB43134003601437BD46A4
:1050D8005DF8047B704700BF0074004080B485B061
:1050E80000AF78600B467B800023FB60074BFB60BA
:1050F800FA687B6813440833FB60FB681A467B88B0
:1051080013601437BD465DF8047B70470074004097
:1051180080B485B000AF78600B467B800023FB60CD
:10512800074BFB60FA687B6813441433FB60FB6829
:105138001A467B8813601437BD465DF8047B7047B8
:105148000074004080B485B000AF78600B467B8067
:1051580013463B800023FB600023BB607B68082B61
:1051680005D17B881A023B881343FB6004E07B88E7
:105178001A043B881343FB60074BBB607A68BB6823
:1051880013442033BB60BB68FA681A601437BD4605
:105198005DF8047B704700BF0074004080B485B0A0
:1051A80000AF78600023FB60084BFB607B689A08BF
:1051B800FB6813442C33FB60FB681B689BB21846E2
:1051C8001437BD465DF8047B704700BF007400408B
:1051D80080B483B000AF78600B46FB70FB78002B7F
:1051E8000AD00D490C4B1A687B684FF4805000FABE
:1051F80003F313430B600AE00749074B1A687B68FF
:105208004FF4805000FA03F3DB4313400B600C3774
:10521800BD465DF8047B70470074004080B485B0DB
:1052280000AFF860B9601346FB71FB79002B09D019
:105238000C480C4B1A68FB68B96801FA03F313436E
:10524800036009E00748074B1A68FB68B96801FA68
:1052580003F3DB43134003601437BD465DF8047B5A
:10526800704700BF0074004080B485B000AF78601C
:1052780039600023FB730A4B5A6B7B68396801FA63
:1052880003F31340002B02D00123FB7301E000233A
:10529800FB73FB7B18461437BD465DF8047B7047EB
:1052A8000074004080B483B000AF7860396005496D
:1052B8007B683A6802FA03F34B630C37BD465DF826
:1052C800047B70470074004080B485B000AF7860FC
:1052D80039600023FB730023BB60104B1A687B689E
:1052E800396801FA03F31340BB600C4B5A6B7B68B7
:1052F800396801FA03F31340002B05D0BB68002B73
:1053080002D00123FB7301E00023FB73FB7B1846EB
:105318001437BD465DF8047B704700BF0074004039
:1053280080B483B000AF7860396005497B683A681B
:1053380002FA03F34B630C37BD465DF8047B7047F4
:105348000074004080B500AF4FF080500121FFF796
:1053580069FB4FF080500021FFF764FB80BD00BF60
:1053680080B483B000AF0346FB71044AFB79136035
:105378000C37BD465DF8047B704700BF20000E4225
:1053880080B485B000AF78600023FB60094B1B68D0
:10539800FB60FB6823F0E003FB60FA687B6813435B
:1053A800FB60044AFB6813601437BD465DF8047B54
:1053B800704700BF0070004080B483B000AF034660
:1053C800FB71044AFB7913600C37BD465DF8047B1A
:1053D800704700BF10000E4280B483B000AF034690
:1053E800FB71044AFB7913600C37BD465DF8047BFA
:1053F800704700BFA0000E4280B483B000AF0346E0
:10540800FB71044AFB7913600C37BD465DF8047BD9
:10541800704700BFA4000E4280B483B000AF78602C
:105428007B68002B06D1094A084B1B6823F480438C
:10543800136005E0054A054B1B6843F4804313607D
:105448000C37BD465DF8047B704700BF0070004014
:1054580080B483B000AF0346FB71044AFB79136044
:105468000C37BD465DF8047B704700BF24000E4230
:1054780080B485B000AF78600B46FB700023FB60FA
:10548800124B1B68FB60FB6823F00303FB60FA68A0
:105498007B681343FB600D4AFB6813600C4A0C4B96
:1054A8001B6943F004031361FB78012B01D130BF62
:1054B80000E020BF064A064B1B6923F00403136172
:1054C8001437BD465DF8047B704700BF007000408C
:1054D80000ED00E080B400AF0B4A0B4B1B6843F0B3
:1054E80004031360084A084B1B6843F00203136067
:1054F800064A064B1B6943F00403136130BFBD46DF
:105508005DF8047B704700BF0070004000ED00E0CC
:1055180080B485B000AF78600023FB73084B5A68ED
:105528007B681340002B02D00123FB7301E00023AA
:10553800FB73FB7B18461437BD465DF8047B704748
:105548000070004080B483B000AF78600549054B17
:105558001A687B689B0013430B600C37BD465DF8E7
:10556800047B70470070004080B582B000AF78605F
:105578007B68174A93420AD14FF400100121FFF7C4
:1055880051FA4FF400100021FFF74CFA1CE07B6839
:10559800104A93420AD14FF480000121FFF742FAE2
:1055A8004FF480000021FFF73DFA0DE07B680A4ABE
:1055B800934209D14FF400000121FFF733FA4FF469
:1055C80000000021FFF72EFA0837BD4680BD00BF56
:1055D8000054004000580040005C004080B58AB08C
:1055E80000AF786039600023FB8400237B840423A8
:1055F800BB84574BFB617B689B88FB84FB8C23F047
:105608003F03FB8407F10C031846FFF715F87B6985
:10561800FB61FB694F4AA2FB03239B0C7B84FA8C3A
:105628007B8C1343FB847B68FA8C9A807B681B888D
:105638009BB223F001039AB27B681A800023FB8493
:105648003B681B68444A934215D83B681B685B005B
:10565800FA69B2FBF3F3BB84BB8C032B01D8042398
:10566800BB84FA8CBB8C1343FB847B8C01339AB2CA
:105678007B681A8440E03B68DB884BF6FF729342F4
:1056880009D13B681A6813465B001344FA69B2FBF8
:10569800F3F3BB840EE03B681A6813469B0013447F
:1056A8009A001344FA69B2FBF3F3BB84BB8C43F44E
:1056B8008043BB84BB8CC3F30B03002B03D1BB8C8F
:1056C80043F00103BB84BA8CFB8C13439BB26FEA93
:1056D80043436FEA5343FB847B8C4FF4967202FB7F
:1056E80003F31E4A82FB03129211DB17D31A9BB2F3
:1056F80001339AB27B681A847B68FA8C9A837B6838
:105708001B889BB243F001039AB27B681A807B68BE
:105718001B88FB84FB8C23F4816323F00203FB8446
:105728003B689A883B685B8913439AB2FB8C1343A6
:10573800FB847B68FA8C1A803B689A893B681B89D2
:1057480013439AB27B681A812837BD4680BD00BFD3
:1057580000127A0083DE1B43A0860100D34D62103D
:1057680080B483B000AF78607B6841F288321A60F9
:105778007B6800229A807B684BF6FF72DA807B6830
:1057880000221A817B6800225A817B684FF480428C
:105798009A810C37BD465DF8047B704780B483B0AE
:1057A80000AF78600B46FB70FB78002B08D07B6855
:1057B8001B889BB243F001039AB27B681A8007E00A
:1057C8007B681B889BB223F001039AB27B681A801E
:1057D8000C37BD465DF8047B704700BF80B483B0CA
:1057E80000AF78600B46FB70FB78002B08D07B6815
:1057F8001B889BB243F480739AB27B681A8007E0D7
:105808007B681B889BB223F480739AB27B681A80EA
:105818000C37BD465DF8047B704700BF80B483B089
:1058280000AF78600B46FB70FB78002B08D07B68D4
:105838001B889BB243F400739AB27B681A8007E016
:105848007B681B889BB223F400739AB27B681A802A
:105858000C37BD465DF8047B704700BF80B483B049
:1058680000AF78600B46FB701346BB70BB78002B0B
:1058780004D0FB7843F00103FB7003E0FB7823F0CE
:105888000103FB70FB789AB27B681A820C37BD461D
:105898005DF8047B704700BF80B483B000AF7860C8
:1058A8000B46FB70FB78002B08D07B681B889BB2EB
:1058B80043F480639AB27B681A8007E07B681B8890
:1058C8009BB223F480639AB27B681A800C37BD467A
:1058D8005DF8047B704700BF80B485B000AF786086
:1058E8000B46FB700023FB817B689B89FB81FB894E
:1058F80023F0FE03FB81FB789BB203F0FE039AB210
:10590800FB8913439BB2FB817B68FA899A81143720
:10591800BD465DF8047B704780B483B000AF786003
:105928000B46FB70FB78002B08D07B689B899BB2E9
:1059380043F001039AB27B689A8107E07B689B89F0
:105948009BB223F001039AB27B689A810C37BD465B
:105958005DF8047B704700BF80B483B000AF786007
:105968000B46FB70FB78002B08D07B681B889BB22A
:1059780043F040039AB27B681A8007E07B681B8873
:105988009BB223F040039AB27B681A800C37BD465D
:105998005DF8047B704700BF80B483B000AF7860C7
:1059A8000B46FB70FB78002B0AD07B681B889BB2E8
:1059B8006FEA43436FEA53439AB27B681A8007E061
:1059C8007B681B889BB2C3F30E039AB27B681A806C
:1059D8000C37BD465DF8047B704700BF80B483B0C8
:1059E80000AF78600B46FB70FB78002B08D17B6812
:1059F8001B889BB243F080039AB27B681A8007E049
:105A08007B681B889BB223F080039AB27B681A805C
:105A18000C37BD465DF8047B704700BF80B483B087
:105A280000AF78600B467B807B88B3F5804F08D049
:105A38007B689B8B9BB223F480439AB27B689A83E2
:105A480007E07B689B8B9BB243F480439AB27B68E8
:105A58009A830C37BD465DF8047B704780B483B0E9
:105A680000AF78600B467B807B88B3F5006F08D168
:105A78007B681B889BB243F400639AB27B681A80E8
:105A880007E07B681B889BB223F400639AB27B68AB
:105A98001A800C37BD465DF8047B704780B483B02C
:105AA80000AF78600B467B807B88B3F5005F08D138
:105AB8007B681B889BB243F400539AB27B681A80B8
:105AC80007E07B681B889BB223F400539AB27B687B
