:020000040800F2
:1000000000000220A90E0108B1D10008BFD10008EC
:10001000C5D10008CBD10008D1D1000800000000F4
:10002000000000000000000000000000EDF60008E5
:10003000D7D1000800000000C3F800081BF9000831
:10004000ED0E0108ED0E0108ED0E0108ED0E0108A0
:10005000ED0E0108ED0E0108ED0E0108ED0E010890
:10006000ED0E0108ED0E0108ED0E0108ED0E010880
:10007000ED0E0108ED0E0108ED0E0108ED0E010870
:10008000ED0E0108ED0E0108ED0E0108ED0E010860
:10009000ED0E0108ED0E0108ED0E0108ED0E010850
:1000A000ED0E0108ED0E0108ED0E0108ED0E010840
:1000B000ED0E0108ED0E0108ED0E0108ED0E010830
:1000C000ED0E0108ED0E0108ED0E0108ED0E010820
:1000D000ED0E0108ED0E0108ED0E0108ED0E010810
:1000E000ED0E0108ED0E0108ED0E0108ED0E010800
:1000F000ED0E0108ED0E0108ED0E0108ED0E0108F0
:10010000ED0E0108ED0E0108ED0E0108ED0E0108DF
:10011000ED0E0108ED0E0108ED0E0108ED0E0108CF
:10012000ED0E0108ED0E0108ED0E0108ED0E0108BF
:10013000ED0E0108ED0E0108ED0E0108ED0E0108AF
:10014000ED0E0108ED0E0108ED0E0108ED0E01089F
:10015000ED0E0108ED0E0108ED0E0108ED0E01088F
:10016000ED0E0108ED0E0108ED0E0108ED0E01087F
:10017000ED0E0108ED0E0108ED0E0108ED0E01086F
:08018000ED0E0108ED0E01086F
:10018800134B002B08BF114B9D46A3F5803A002165
:100198008B460F461148124A121A10F0F9FE0D4B01
:1001A800002B00D098470C4B002B00D0984700201C
:1001B800002104000D000B4810F096FE10F0C4FE5C
:1001C800200029000DF0F2F810F094FE000008005D
:1001D800000000000000000000000000D004002023
:1001E800D03301201D0F01089012010800000020E3
:1001F800D0040020D0040020D033012080B500AF07
:10020800124B1B68114A43F0010313600F4B002285
:100218009A600E4B1B680D4A23F0847323F48033D5
:1002280013600A4B0A4A5A60084B1B68074A23F4B2
:1002380080231360054B0022DA6000F089F8054B33
:100248004FF000629A6000BF80BD00BF00380240D6
:100258001030002400ED00E080B487B000AF002328
:100268003B6100237B610223FB600023BB60022308
:100278007B60324B9B6803F00C033B613B69042BAA
:1002880007D0082B09D0002B3DD12D4B2D4A1A60E1
:100298003DE02B4B2C4A1A6039E0284B5B689B0DDC
:1002A80003F00103BB60254B5B6803F03F037B60F1
:1002B800BB68002B0CD0244A7B68B2FBF3F31F4ABF
:1002C80052689209C2F3080202FB03F37B610BE058
:1002D8001C4A7B68B2FBF3F3184A52689209C2F3CE
:1002E800080202FB03F37B61144B5B681B0C03F0F1
:1002F800030301335B00FB607A69FB68B2FBF3F32D
:100308000F4A136003E00E4B0E4A1A6000BF0B4BF6
:100318009B681B0903F00F030C4AD35CDBB23B61FB
:10032800074B1A683B6922FA03F3054A136000BFBA
:100338001C37BD465DF8047B704700BF003802409B
:10034800000000200024F40000127A0004000020BD
:1003580080B483B000AF00237B6000233B60364B42
:100368001B68354A43F480331360334B1B6803F42E
:1003780000333B607B6801337B603B68002B03D113
:100388007B68B3F5A06FF0D12B4B1B6803F40033E7
:10039800002B02D001233B6001E000233B603B6857
:1003A800012B42D1244B1B6C234A43F08053136426
:1003B800224B1B68214A43F4804313601E4B1E4A9C
:1003C8009B6893601C4B9B681B4A43F400439360F3
:1003D800194B9B68184A43F4A0539360164B184A6C
:1003E8005A60154B1B68144A43F08073136000BFB2
:1003F800114B1B6803F00073002BF9D0114B40F22E
:1004080005621A600C4B9B680B4A23F00303936048
:10041800094B9B68084A43F00203936000BF064BF0
:100428009B6803F00C03082BF9D100BF0C37BD46BD
:100438005DF8047B704700BF003802400070004040
:1004480008544007003C024080B400AF034B1B68CF
:100458001B0C1846BD465DF8047B7047002004E07D
:1004680080B400AF044B1B68C3F30B031846BD46AA
:100478005DF8047B704700BF002004E080B483B0BF
:1004880000AF78600B46FB70FB78002B06D00A4B58
:100498005A6809497B6813434B6006E0064B5A6863
:1004A8007B68DB43044913404B6000BF0C37BD46F3
:1004B8005DF8047B704700BF002004E080B483B07F
:1004C80000AF78600B46FB70FB78002B06D00A4B18
:1004D8009A6809497B6813438B6006E0064B9A6863
:1004E8007B68DB43044913408B6000BF0C37BD4673
:1004F8005DF8047B704700BF002004E080B483B03F
:1005080000AF78600B46FB70FB78002B06D00A4BD7
:10051800DA6809497B681343CB6006E0064BDA6862
:100528007B68DB4304491340CB6000BF0C37BD46F2
:100538005DF8047B704700BF002004E080B400AF82
:100548000C4B00221A600B4B0022DA60094B1F2269
:100558005A61084B00229A61064B0022DA61054B6A
:1005680000221A62034B00225A6200BFBD465DF8A2
:10057800047B70470000055080B485B000AF7860F8
:100588000023FB601B4B1B681A4A23F4804323F0AB
:1005980001031360174B1B68FB60FB6823F47F6340
:1005A80023F00203FB607B681A887B685B8813432F
:1005B8009AB27B689B8813439AB27B68DB881343A3
:1005C8009AB27B681B8913439AB27B685B89134391
:1005D8009AB27B689B8913439BB21A46FB68134304
:1005E800FB60044AFB68136000BF1437BD465DF822
:1005F800047B70470000055080B483B000AF78607A
:100608007B6800221A807B6800225A807B6800225F
:100618009A807B680022DA807B6800221A817B68D6
:1006280000225A817B6800229A8100BF0C37BD46A0
:100638005DF8047B704780B483B000AF78607B6856
:100648005B8819467B681B881B04094A0B431362A5
:100658007B68DB8819467B689B881B04044A0B432C
:10066800536200BF0C37BD465DF8047B704700BF7E
:100678000000055080B483B000AF0346FB71FB79DE
:10068800002B06D0094B1B68084A43F0040313608B
:1006980005E0064B1B68054A23F00403136000BFFE
:1006A8000C37BD465DF8047B704700BF000005505D
:1006B80080B483B000AF78607B681B781A467B688B
:1006C8005B781B021A437B689B781B041A437B6880
:1006D800DB781B06044913438B6100BF0C37BD460A
:1006E8005DF8047B704700BF0000055080B483B0FC
:1006F80000AF0346FB71FB79002B06D0094B1B6842
:10070800084A43F00803136005E0064B1B68054AD6
:1007180023F00803136000BF0C37BD465DF8047B67
:10072800704700BF0000055080B483B000AF034697
:10073800FB71FB79002B06D0094B1B68084A43F470
:100748008043136005E0064B1B68054A23F4804389
:10075800136000BF0C37BD465DF8047B704700BFCF
:100768000000055080B483B000AF0346FB71FB79ED
:10077800002B06D0094B1B68084A43F0010313609D
:1007880005E0064B1B68054A23F00103136000BF10
:100798000C37BD465DF8047B704700BF000005506C
:1007A80080B400AF034B9B6A1846BD465DF8047BD6
:1007B800704700BF0000055080B483B000AF034607
:1007C8000A46FB8013467B717B79002B06D00B4BC6
:1007D800DA68FB8809491343CB6008E0074BDB68FC
:1007E800FA88D24392B21146044A0B40D36000BF44
:1007F8000C37BD465DF8047B704700BF000005500C
:1008080080B487B000AF0346FB800023FB7500234C
:100818003B61FB881B0B9BB2FB60FB68012B03D180
:100828000F4B9B683B6109E0FB68022B03D10C4B23
:100838005B683B6102E00A4B1B693B61FA883B69D4
:100848001340002B02D00123FB7501E00023FB7548
:10085800FB7D18461C37BD465DF8047B704700BF1A
:100868000000055080B483B000AF0346FB80044A03
:10087800FB88536100BF0C37BD465DF8047B7047A9
:100888000000055080B485B000AF0346FB8000230C
:10089800FB730023BB600A4B1A69FB881340BB60DB
:1008A800BB68002B02D00123FB7301E00023FB731C
:1008B800FB7B18461437BD465DF8047B704700BFC4
:1008C8000000055080B483B000AF0346FB80044AA3
:1008D800FB88536100BF0C37BD465DF8047B704749
:1008E8000000055080B582B000AF78607B682C4A64
:1008F800934208D10121102004F052FC002110205D
:1009080004F04EFC47E07B68264A93420AD1012155
:100918004FF4003004F024FC00214FF4003004F0C0
:100928001FFC38E07B68204A93420AD101214FF42A
:10093800802004F015FC00214FF4802004F010FC06
:1009480029E07B68194A93420AD101214FF400201B
:1009580004F006FC00214FF4002004F001FC1AE02A
:100968007B68134A93420AD101214FF4801004F0A6
:10097800F7FB00214FF4801004F0F2FB0BE07B68DA
:100988000C4A934207D10121202004F009FC0021E0
:10099800202004F005FC00BF0837BD4680BD00BF1D
:1009A800001001400044004000480040004C004056
:1009B800005000400014014080B58AB000AF786054
:1009C800396000237B6200233B620023FB61002324
:1009D800BB617B681B8A9BB27B627B6A23F44053B2
:1009E8007B623B68DB881A467B6A13437B627B6ABF
:1009F8009AB27B681A827B689B899BB27B627B6A0E
:100A080023F4B05323F00C037B623B689A883B685D
:100A18001B8913439AB23B685B8913439BB21A46FE
:100A28007B6A13437B627B6A9AB27B689A817B6894
:100A38009B8A9BB27B627B6A23F440737B623B6830
:100A48009B891A467B6A13437B627B6A9AB27B68EE
:100A58009A8207F10803184604F07CF97B68304A4B
:100A6800934203D07B682F4A934202D17B693B6251
:100A780001E03B693B627B689B899BB21BB2002B00
:100A88000CDA3A6A13469B0013449A001A443B68EE
:100A98001B685B00B2FBF3F3FB610BE03A6A134699
:100AA8009B0013449A001A443B681B689B00B2FBE6
:100AB800F3F3FB61FB691C4AA2FB03235B091B01DF
:100AC8007B627B6A1B09642202FB03F3FA69D31A6F
:100AD800BB617B689B899BB21BB2002B0CDABB699C
:100AE800DB003233104AA2FB03235B0903F0070340
:100AF8007A6A13437B620BE0BB691B0132330A4AF3
:100B0800A2FB03235B0903F00F037A6A13437B629A
:100B18007B6A9AB27B681A8100BF2837BD4680BDC0
:100B280000100140001401401F85EB5180B483B0D0
:100B380000AF78607B684FF416521A607B68002219
:100B48009A807B680022DA807B6800221A817B68A1
:100B58000C225A817B6800229A8100BF0C37BD465F
:100B68005DF8047B704780B485B000AF7860396069
:100B78000023FB607B681B8A9BB2FB60FB6823F445
:100B88007063FB603B681A883B685B8813439AB2C2
:100B98003B689B8813439AB23B68DB8813439BB23C
:100BA8001A46FB681343FB60FB689AB27B681A829B
:100BB80000BF1437BD465DF8047B704780B483B02E
:100BC80000AF78607B6800221A807B6800225A8018
:100BD8007B6800229A807B680022DA8000BF0C378D
:100BE800BD465DF8047B704780B483B000AF786081
:100BF8000B46FB70FB78002B08D07B689B899BB267
:100C080043F400539AB27B689A8107E07B689B891A
:100C18009BB223F400539AB27B689A8100BF0C37C9
:100C2800BD465DF8047B704780B483B000AF786040
:100C38000B46FB707B681B8B9BB223F0FF039AB2B9
:100C48007B681A837B681B8B9AB2FB789BB2134331
:100C58009AB27B681A8300BF0C37BD465DF8047BE7
:100C6800704780B483B000AF78600B46FB70FB78A8
:100C7800002B0AD07B689B899BB26FEA43436FEADB
:100C880053439AB27B689A8107E07B689B899BB241
:100C9800C3F30E039AB27B689A8100BF0C37BD4636
:100CA8005DF8047B704780B483B000AF78600B4672
:100CB800FB70FB78002B08D07B689B8A9BB243F4BF
:100CC80000639AB27B689A8207E07B689B8A9BB232
:100CD80023F400639AB27B689A8200BF0C37BD4642
:100CE8005DF8047B704780B483B000AF78600B4632
:100CF8007B807B88C3F308039AB27B689A8000BF25
:100D08000C37BD465DF8047B704780B483B000AFF4
:100D180078607B689B889BB2C3F308039BB2184634
:100D28000C37BD465DF8047B704780B483B000AFD4
:100D380078600B46FB707B681B8A9BB223F00F031D
:100D48009AB27B681A827B681B8A9AB2FB789BB23C
:100D580013439AB27B681A8200BF0C37BD465DF810
:100D6800047B704780B483B000AF78600B46FB709B
:100D7800FB78002B08D07B689B899BB243F0020369
:100D88009AB27B689A8107E07B689B899BB223F0C3
:100D980002039AB27B689A8100BF0C37BD465DF8A2
:100DA800047B704780B483B000AF78600B467B80CB
:100DB8007B689B899BB223F400639AB27B689A8113
:100DC8007B689B899AB27B8813439AB27B689A8125
:100DD80000BF0C37BD465DF8047B704780B483B014
:100DE80000AF78600B467B807B681B8A9BB223F040
:100DF80020039AB27B681A827B681B8A9AB27B8826
:100E080013439AB27B681A8200BF0C37BD465DF85F
:100E1800047B704780B483B000AF78600B46FB70EA
:100E2800FB78002B08D07B681B8A9BB243F4804375
:100E38009AB27B681A8207E07B681B8A9BB223F40C
:100E480080439AB27B681A8200BF0C37BD465DF8B2
:100E5800047B704780B483B000AF78607B689B895F
:100E68009BB243F001039AB27B689A8100BF0C37AA
:100E7800BD465DF8047B704780B483B000AF7860EE
:100E88000B46FB70FB78002B08D07B689B8A9BB2D3
:100E980043F008039AB27B689A8207E07B689B8AD2
:100EA8009BB223F008039AB27B689A8200BF0C3782
:100EB800BD465DF8047B704780B483B000AF7860AE
:100EC8000B46FB707B681B8B9BB2DBB29AB27B68CC
:100ED8001A837B681B8B9AB2FB789BB21B029BB26E
:100EE80013439AB27B681A8300BF0C37BD465DF87E
:100EF800047B704780B483B000AF78600B46FB700A
:100F0800FB78002B08D07B689B8A9BB243F02003B8
:100F18009AB27B689A8207E07B689B8A9BB223F02F
:100F280020039AB27B689A8200BF0C37BD465DF8F1
:100F3800047B704780B483B000AF78600B46FB70C9
:100F4800FB78002B08D07B689B8A9BB243F0100388
:100F58009AB27B689A8207E07B689B8A9BB223F0EF
:100F680010039AB27B689A8200BF0C37BD465DF8C1
:100F7800047B704780B483B000AF78600B467B80F9
:100F88007B689B8A9BB223F004039AB27B689A829F
:100F98007B689B8A9AB27B8813439AB27B689A8251
:100FA80000BF0C37BD465DF8047B704780B483B042
:100FB80000AF78600B46FB70FB78002B08D07B688D
:100FC8009B8A9BB243F002039AB27B689A8207E03D
:100FD8007B689B8A9BB223F002039AB27B689A8251
:100FE80000BF0C37BD465DF8047B704780B483B002
:100FF80000AF78600B467B8013467B707B78002BB4
:1010080008D07B689B8A9AB27B8813439AB27B6824
:101018009A8209E07B689B8A9AB27B88DB439BB201
:1010280013409AB27B689A8200BF0C37BD465DF8C0
:10103800047B704780B487B000AF78600B467B8034
:1010480013467B7000233B610023FB600023BB60D9
:1010580000237B617B687B617B88DBB25B09DBB249
:101068003B617B8803F01F03FB600122FB6802FAE7
:1010780003F3BB603B69012B03D17B690C337B61B4
:1010880009E03B69022B03D17B6910337B6102E0E5
:101098007B6914337B617B78002B06D07B691968E8
:1010A8007B69BA680A431A6006E07B691968BB68FD
:1010B800DA437B690A401A6000BF1C37BD465DF8F9
:1010C800047B704780B485B000AF78600B467B80A6
:1010D8000023FB737B681B889AB27B8813409BB202
:1010E800002B02D00123FB7301E00023FB73FB7B81
:1010F80018461437BD465DF8047B704780B483B04A
:1011080000AF78600B467B807B88DB439AB27B68B4
:101118001A8000BF0C37BD465DF8047B704780B469
:1011280087B000AF78600B467B800023FB6000230C
:101138007B610023BB600023FB747B88DBB25B0907
:10114800DBB2BB607B8803F01F037B6101227B69F4
:1011580002FA03F37B61BB68012B07D17B689B898B
:101168009BB21A467B6913407B6111E0BB68022B76
:1011780007D17B681B8A9BB21A467B6913407B6147
:1011880006E07B689B8A9BB21A467B6913407B61A9
:101198007B881B0A9BB2FB600122FB6802FA03F3FF
:1011A800FB607B681B889BB21A46FB681340FB6098
:1011B8007B69002B05D0FB68002B02D00123FB7450
:1011C80001E00023FB74FB7C18461C37BD465DF824
:1011D800047B704780B485B000AF78600B467B8095
:1011E8000023FB810023BB817B881B0AFB81FB89D1
:1011F800012202FA03F3BB81BB89DB439AB27B6805
:101208001A8000BF1437BD465DF8047B704700BFE5
:1012180080B582B000AF78607B68174A93420AD1E4
:1012280001214FF4001003F09BFF00214FF4001040
:1012380003F096FF1CE07B68104A93420AD1012113
:101248004FF4800003F08CFF00214FF4800003F07E
:1012580087FF0DE07B680A4A934209D101214FF4C8
:10126800000003F07DFF00214FF4000003F078FF39
:1012780000BF0837BD4680BD0054004000580040FC
:10128800005C004080B58AB000AF78603960002308
:10129800FB8400237B840423BB84574BFB617B685E
:1012A8009B88FB84FB8C23F03F03FB8407F10C0332
:1012B800184603F04FFD7B69FB61FB694F4AA2FBAF
:1012C80003239B0C7B84FA8C7B8C1343FB847B6805
:1012D800FA8C9A807B681B889BB223F001039AB230
:1012E8007B681A800023FB843B681B68444A93424E
:1012F80015D83B681B685B00FA69B2FBF3F3BB8443
:10130800BB8C032B01D80423BB84FA8CBB8C1343FE
:10131800FB847B8C01339AB27B681A8440E03B687B
:10132800DB884BF6FF72934209D13B681A68134673
:101338005B001344FA69B2FBF3F3BB840EE03B682D
:101348001A6813469B0013449A001344FA69B2FBC7
:10135800F3F3BB84BB8C43F48043BB84BB8CC3F3E3
:101368000B03002B03D1BB8C43F00103BB84BA8C65
:10137800FB8C13439BB26FEA43436FEA5343FB84EE
:101388007B8C4FF4967202FB03F31E4A82FB031216
:101398009211DB17D31A9BB201339AB27B681A8475
:1013A8007B68FA8C9A837B681B889BB243F00103A5
:1013B8009AB27B681A807B681B88FB84FB8C23F4B9
:1013C800816323F00203FB843B689A883B685B894E
:1013D80013439AB2FB8C1343FB847B68FA8C1A8004
:1013E8003B689A893B681B8913439AB27B681A81C8
:1013F80000BF2837BD4680BD00127A0083DE1B433C
:10140800A0860100D34D621080B483B000AF78602D
:101418007B6841F288321A607B6800229A807B6878
:101428004BF6FF72DA807B6800221A817B68002203
:101438005A817B684FF480429A8100BF0C37BD46C1
:101448005DF8047B704780B483B000AF78600B46CA
:10145800FB70FB78002B08D07B681B889BB243F09D
:1014680001039AB27B681A8007E07B681B889BB2ED
:1014780023F001039AB27B681A8000BF0C37BD467F
:101488005DF8047B704780B483B000AF78600B468A
:10149800FB70FB78002B08D07B681B889BB243F459
:1014A80080739AB27B681A8007E07B681B889BB2BE
:1014B80023F480739AB27B681A8000BF0C37BD464C
:1014C8005DF8047B704780B483B000AF78600B464A
:1014D800FB70FB78002B08D07B681B889BB243F419
:1014E80000739AB27B681A8007E07B681B889BB2FE
:1014F80023F400739AB27B681A8000BF0C37BD468C
:101508005DF8047B704780B483B000AF78600B4609
:10151800FB701346BB70BB78002B04D0FB7843F0FC
:101528000103FB7003E0FB7823F00103FB70FB78F9
:101538009AB27B681A8200BF0C37BD465DF8047BFF
:10154800704780B483B000AF78600B46FB70FB78BF
:10155800002B08D07B681B889BB243F480639AB247
:101568007B681A8007E07B681B889BB223F4806342
:101578009AB27B681A8000BF0C37BD465DF8047BC1
:10158800704780B485B000AF78600B46FB700023CD
:10159800FB817B689B89FB81FB8923F0FE03FB8130
:1015A800FB781BB203F0FE031AB2B7F90E301343EF
:1015B8001BB2FB817B68FA899A8100BF1437BD464C
:1015C8005DF8047B704780B483B000AF78600B4649
:1015D800FB70FB78002B08D07B689B899BB243F09B
:1015E80001039AB27B689A8107E07B689B899BB26A
:1015F80023F001039AB27B689A8100BF0C37BD467D
:101608005DF8047B704780B483B000AF78600B4608
:10161800FB70FB78002B08D07B681B889BB243F0DB
:1016280040039AB27B681A8007E07B681B889BB2EC
:1016380023F040039AB27B681A8000BF0C37BD467E
:101648005DF8047B704780B483B000AF78600B46C8
:10165800FB70FB78002B0AD07B681B889BB26FEA73
:1016680043436FEA53439AB27B681A8007E07B686A
:101678001B889BB2C3F30E039AB27B681A8000BF23
:101688000C37BD465DF8047B704780B483B000AF6B
:1016980078600B46FB70FB78002B08D17B681B88B1
:1016A8009BB243F080039AB27B681A8007E07B689C
:1016B8001B889BB223F080039AB27B681A8000BF14
:1016C8000C37BD465DF8047B704780B483B000AF2B
:1016D80078600B467B807B88B3F5804F08D07B68A9
:1016E8009B8B9BB223F480439AB27B689A8307E072
:1016F8007B689B8B9BB243F480439AB27B689A8346
:1017080000BF0C37BD465DF8047B704780B483B0DA
:1017180000AF78600B467B807B88B3F5006F08D1FB
:101728007B681B889BB243F400639AB27B681A807B
:1017380007E07B681B889BB223F400639AB27B683E
:101748001A8000BF0C37BD465DF8047B704780B433
:1017580083B000AF78600B467B807B88B3F5005F71
:1017680008D17B681B889BB243F400539AB27B680C
:101778001A8007E07B681B889BB223F400539AB257
:101788007B681A8000BF0C37BD465DF8047B704744
:1017980080B483B000AF78600B46FB70FB78002BF9
:1017A80008D07B681B889BB243F010039AB27B6811
:1017B8001A8007E07B681B889BB223F010039AB25B
:1017C8007B681A8000BF0C37BD465DF8047B704704
:1017D80080B483B000AF78600B46FB70FB789AB298
:1017E8007B681A8200BF0C37BD465DF8047B7047E2
:1017F80080B483B000AF78607B681B8A9BB2DBB291
:1018080018460C37BD465DF8047B704780B483B03A
:1018180000AF78600B46FB70FB78002B08D07B6824
:101828001B889BB243F480539AB27B681A8007E006
:101838007B681B889BB223F480539AB27B681A801A
:1018480000BF0C37BD465DF8047B704780B483B099
:1018580000AF78600B467B807B88B3F5006F08D1BA
:101868007B681B889BB243F400639AB27B681A803A
:1018780007E07B681B889BB223F400639AB27B68FD
:101888001A8000BF0C37BD465DF8047B704780B4F2
:1018980083B000AF78600B46FB70FB78002B08D054
:1018A8007B681B889BB243F020039AB27B681A803E
:1018B80007E07B681B889BB223F020039AB27B6801
:1018C8001A8000BF0C37BD465DF8047B704780B4B2
:1018D80083B000AF78607B681B8B9BB21B0A9BB2FE
:1018E800DBB218460C37BD465DF8047B704780B400
:1018F80083B000AF78600B46FB70FB78002B08D0F4
:101908007B689B889BB243F400639AB27B689A8099
:1019180007E07B689B889BB223F400639AB27B68DC
:101928009A8000BF0C37BD465DF8047B704780B4D1
:1019380083B000AF78600B46FB70FB78002B08D0B3
:101948007B689B889BB243F480539AB27B689A80E9
:1019580007E07B689B889BB223F480539AB27B682C
:101968009A8000BF0C37BD465DF8047B704780B491
:1019780085B000AF78600B46FB700023FB607B6886
:10198800FB60FA78FB681344FB60FB681B889BB21A
:1019980018461437BD465DF8047B704780B483B0A1
:1019A80000AF78600B467B8013467B707B78002BFA
:1019B80008D07B689B889AB27B8813439AB27B686D
:1019C8009A8009E07B689B889AB27B88DB439BB24C
:1019D80013409AB27B689A8000BF0C37BD465DF809
:1019E800047B704780B487B000AF7860396000230B
:1019F8003B610023FB600023BB600023FB757B6811
:101A08009B8A9BB2FB607B681B8B9BB2BB60BB68ED
:101A18001B04BB60FA68BB68134323F07F433B6138
:101A28003A693B6813403A689A4202D10123FB7530
:101A380001E00023FB75FB7D18461C37BD465DF8A9
:101A4800047B704780B487B000AF786000237B6167
:101A580000233B610023FB607B689B8A9BB23B6150
:101A68007B681B8B9BB2FB60FB681B04FB603A69BD
:101A7800FB68134323F07F437B617B6918461C375F
:101A8800BD465DF8047B704780B487B000AF7860CE
:101A980039600023FB7500233B610023FB607B68F2
:101AA800FB603B681B0F3B613B6823F07F433B6057
:101AB8003B69002B03D0FB681433FB6005E03B68EF
:101AC8001B0C3B60FB681833FB60FB681A683B68BB
:101AD8001340002B02D00123FB7501E00023FB75A6
:101AE800FB7D18461C37BD465DF8047B704780B403
:101AF80085B000AF786039600023FB603B6823F055
:101B08007F43FB60FB689BB2DB439AB27B689A8297
:101B180000BF1437BD465DF8047B704780B485B0BC
:101B280000AF786039600023FB730023BB603B681B
:101B38001B0C7A68928892B2134003F4E063BB608E
:101B48003B6823F07F433B607B689B8A9BB21A46C5
:101B58003B681340002B05D0BB68002B02D0012343
:101B6800FB7301E00023FB73FB7B18461437BD466B
:101B78005DF8047B704780B485B000AF7860396049
:101B88000023FB603B6823F07F43FB60FB689BB24C
:101B9800DB439AB27B689A8200BF1437BD465DF872
:101BA800047B704780B582B000AF78607B68174AC5
:101BB80093420AD101214FF4805003F0F1FA002139
:101BC8004FF4805003F0ECFA1CE07B68104A934213
:101BD8000AD101214FF4804003F0C2FA00214FF4EA
:101BE800804003F0BDFA0DE07B680A4A934209D1B0
:101BF80001214FF4004003F0B3FA00214FF40040F4
:101C080003F0AEFA00BF0837BD4680BD0030014082
:101C180000380040003C004080B485B000AF7860D8
:101C280039600023FB817B681B88FB81FB8903F4F7
:101C38004153FB813B681A883B685B8813439AB21F
:101C48003B689B8813439AB23B68DB8813439AB27C
:101C58003B681B8913439AB23B685B8913439AB26A
:101C68003B689B8913439AB23B68DB8913439AB25A
:101C7800FB891343FB817B68FA891A807B689B8BFD
:101C88009BB223F400639AB27B689A833B681A8AF2
:101C98007B681A8200BF1437BD465DF8047B704725
:101CA80080B48BB000AF7860396000237B83022357
:101CB800FB840023BB8401237B840023FB61002376
:101CC8007B6100233B610023FB600023BB607B68D2
:101CD8009B8B9BB223F47B6323F00F039AB27B6840
:101CE8009A837B6802221A847B689B8B7B833B6880
:101CF8009B68022B04D10023BB840223FB846DE084
:101D08003B689B88002B02D101237B8401E00223DE
:101D18007B844B4B9B6803F40003002B05D0484B96
:101D28009B68474A23F400039360454BD3F88430FB
:101D38009B09C3F30803FB60414BD3F884301B0FA6
:101D480003F00703BB603E4B5B6803F03F033B6156
:101D58003C4A3B69B2FBF3F3FA6802FB03F2BB6847
:101D6800B2FBF3F37B613B68DB88B3F5007F0FD1EF
:101D78007B691A0A13469B0013445B001A463B68AA
:101D88009B68B2FBF3F39BB205339BB2FB6112E095
:101D98007B8C5B011A467B69B3FBF2F213469B000E
:101DA80013445B001A463B689B68B2FBF3F39BB293
:101DB80005339BB2FB61FB69234AA2FB0323DB08C3
:101DC800FB61FB699BB203F00103BB84BB8CFA691E
:101DD800D31A5B08FB84BB8C1B02BB84FB8C012BD6
:101DE80002D9FB8CFF2B03D90223FB840023BB847D
:101DF8003B68DA88BB8C13439AB2FB8C13439AB2C4
:101E08007B681A843B681A883B6859883B689888BD
:101E18003B689B8903439BB20B439BB213439AB223
:101E28007B8B13439BB243F400637B837B687A8B81
:101E38009A8300BF2C37BD465DF8047B704700BF0E
:101E48000038024000127A00CDCCCCCC80B483B0EC
:101E580000AF78607B6800221A807B6800225A8075
:101E68007B6800229A807B680022DA807B680022E7
:101E78001A817B6800225A817B6800229A817B68DC
:101E88000022DA817B6807221A8200BF0C37BD4620
:101E98005DF8047B704780B483B000AF78607B68DE
:101EA80000221A807B6800225A807B6800229A8070
:101EB8007B680022DA807B6802229A607B680022B5
:101EC8009A8100BF0C37BD465DF8047B704780B42B
:101ED80083B000AF78600B46FB70FB78002B08D00E
:101EE8007B681B889BB243F040039AB27B681A80D8
:101EF80007E07B681B889BB223F040039AB27B689B
:101F08001A8000BF0C37BD465DF8047B704780B46B
:101F180083B000AF78600B46FB70FB78002B08D0CD
:101F28007B689B8B9BB243F480639AB27B689A83ED
:101F380007E07B689B8B9BB223F480639AB27B6833
:101F48009A8300BF0C37BD465DF8047B704780B4A8
:101F580083B000AF78600B467B807B681B889BB2A0
:101F680023F400639AB27B681A807B681B889AB254
:101F78007B8813439AB27B681A8000BF0C37BD4632
:101F88005DF8047B704780B483B000AF78600B467F
:101F98007B807B88B3F5804F08D17B681B889BB218
:101FA80043F480439AB27B681A8007E07B681B88F9
:101FB8009BB223F480439AB27B681A8000BF0C3727
:101FC800BD465DF8047B704780B483B000AF78608D
:101FD8000B467B807B884FF6FF62934208D07B6874
:101FE8001B889BB243F480739AB27B681A8007E01F
:101FF8007B681B889BB223F480739AB27B681A8033
:1020080000BF0C37BD465DF8047B704780B483B0D1
:1020180000AF78600B46FB70FB78002B08D07B681C
:102028009B889BB243F004039AB27B689A8007E0CE
:102038007B689B889BB223F004039AB27B689A80E2
:1020480000BF0C37BD465DF8047B704780B483B091
:1020580000AF78600B46FB70FB78002B08D07B68DC
:102068009B889BB243F010039AB27B689A8007E082
:102078007B689B889BB223F010039AB27B689A8096
:1020880000BF0C37BD465DF8047B704780B485B04F
:1020980000AF786039600023BB810023FB817B6837
:1020A8009B8B9BB223F47B6323F00F039AB27B686C
:1020B8009A837B6802221A847B689B8BBB813B686E
:1020C8001B88B3F5007F03D03B681B88002B03D126
:1020D8004FF48073FB810BE03B681B88B3F5407FAE
:1020E80004D03B681B88B3F5807F01D10023FB81B6
:1020F8003B685A883B6899883B689B890B439BB22D
:1021080013439AB2FB8913439AB2BB8913439BB218
:1021180043F40063BB817B68BA899A8300BF143794
:10212800BD465DF8047B704780B483B000AF78602B
:102138007B689B899BB218460C37BD465DF8047BCB
:10214800704780B483B000AF78600B467B807B68B3
:102158007A889A8100BF0C37BD465DF8047B7047CA
:1021680080B483B000AF78600B46FB70FB78002B1F
:1021780008D07B681B889BB243F400539AB27B68F3
:102188001A8007E07B681B889BB223F400539AB23D
:102198007B681A8000BF0C37BD465DF8047B70472A
:1021A80080B483B000AF78607B681B889BB243F42F
:1021B80080539AB27B681A8000BF0C37BD465DF821
:1021C800047B704780B485B000AF78600B46FB7025
:1021D8000023FB81FB78012B03D07B681B8BFB81E1
:1021E80002E07B689B8AFB81FB8918461437BD4651
:1021F8005DF8047B704780B483B000AF78607B687B
:102208001B8A9BB218460C37BD465DF8047B7047A5
:1022180080B483B000AF78600B467B8013467B7038
:102228007B78002B08D07B689B889AB27B88134305
:102238009AB27B689A8009E07B689B889AB27B880F
:10224800DB439BB213409AB27B689A8000BF0C377D
:10225800BD465DF8047B704780B485B000AF7860F8
:102268000B46FB701346BB700023FB810023BB8128
:10227800FB781B09DBB2FB81FB89012202FA03F31D
:10228800BB81BB78002B08D07B689B889AB2BB893E
:1022980013439AB27B689A8009E07B689B889AB25C
:1022A800BB89DB439BB213409AB27B689A8000BF1C
:1022B8001437BD465DF8047B704780B485B000AF25
:1022C80078600B467B800023FB737B681B899AB27E
:1022D8007B8813409BB2002B02D00123FB7301E0E3
:1022E8000023FB73FB7B18461437BD465DF8047B5F
:1022F800704780B483B000AF78600B467B807B88E2
:10230800DB439AB27B681A8100BF0C37BD465DF883
:10231800047B704780B485B000AF78600B46FB70D3
:102328000023FB730023BB8100237B8100233B81B7
:10233800FB7803F00F03012202FA03F3BB81FB7859
:102348001B09DBB27B817B89012202FA03F37B81C3
:102358007B689B889AB27B8913403B817B681B8989
:102368009AB2BB8913409BB2002B05D03B89002B46
:1023780002D00123FB7301E00023FB73FB7B1846AB
:102388001437BD465DF8047B704780B485B000AF54
:1023980078600B46FB700023FB81FB7803F00F038A
:1023A800012202FA03F3FB81FB89DB439AB27B68C3
:1023B8001A8100BF1437BD465DF8047B704700BF23
:1023C80080B582B000AF78607B680E4A93420AD12C
:1023D80001214FF0007002F0C3FE00214FF00070A1
:1023E80002F0BEFE09E001214FF0806002F0B8FE65
:1023F80000214FF0806002F0B3FE00BF0837BD46F1
:1024080080BD00BF0064004080B485B000AF786034
:1024180039600023FB730023BB607B681B6823F0D3
:1024280002027B681A607B681B6843F001027B68C4
:102438001A6002E0BB680133BB607B685B6803F02D
:102448000103012B04D0BB684FF6FF729342F1D110
:102458007B685B6803F00103012B02D00023FB7348
:102468009CE03B689B79012B06D17B681B6843F095
:1024780080027B681A6005E07B681B6823F0800295
:102488007B681A603B68DB79012B06D17B681B6887
:1024980043F040027B681A6005E07B681B6823F004
:1024A80040027B681A603B681B7A012B06D17B6867
:1024B8001B6843F020027B681A6005E07B681B6894
:1024C80023F020027B681A603B685B7A012B06D1F7
:1024D8007B681B6843F010027B681A6005E07B6824
:1024E8001B6823F010027B681A603B689B7A012BFB
:1024F80006D17B681B6843F008027B681A6005E018
:102508007B681B6823F008027B681A603B68DB7AEB
:10251800012B06D17B681B6843F004027B681A60B4
:1025280005E07B681B6823F004027B681A603B683F
:102538009B789A073B68DB781B061A433B681B7934
:102548001B041A433B685B791B051A433B681B88CD
:10255800013B1A437B68DA617B681B6823F0010240
:102568007B681A600023BB6002E0BB680133BB6074
:102578007B685B6803F00103012B04D1BB684FF64D
:10258800FF729342F1D17B685B6803F00103012B72
:1025980002D10023FB7301E00123FB73FB7B184688
:1025A8001437BD465DF8047B704790B484B000AF23
:1025B80078600023FB607B689B7A1A46012393406E
:1025C800FB605A4BD3F80032584A43F00103C2F873
:1025D8000032564BD3F81C22FB68DB4353491340A7
:1025E800C1F81C327B681B7B002B29D14F4BD3F8D9
:1025F8000C22FB68DB434D491340C1F80C327B6861
:10260800DB881B047A685288144648497A68927AAB
:10261800104643EA040200F1480341F833207B687E
:102628009B881B047A681288144640497A68927A13
:10263800104643EA040200F14803DB000B445A60E9
:102648007B681B7B012B28D1384BD3F80C223749E8
:10265800FB681343C1F80C327B681B881B047A683B
:102668005288144631497A68927A104643EA04023D
:1026780000F1480341F833207B689B881B047A6883
:10268800D288144629497A68927A104643EA0402A5
:1026980000F14803DB000B445A607B68DB7A002BAF
:1026A80009D1224BD3F80422FB68DB431F491340AE
:1026B800C1F8043207E01D4BD3F804221B49FB681C
:1026C8001343C1F804327B681B89002B08D1174BD0
:1026D800D3F81422FB68DB4314491340C1F81432C1
:1026E8007B681B89012B07D1104BD3F814220F49A3
:1026F800FB681343C1F814327B685B7B012B07D15D
:102708000A4BD3F81C220949FB681343C1F81C3251
:10271800064BD3F80032054A23F00103C2F8003211
:1027280000BF1037BD4690BC704700BF0064004032
:1027380080B483B000AF78607B6800229A717B68B0
:102748000022DA717B6800221A727B6800225A72B2
:102758007B6800229A727B680022DA727B6800220A
:102768009A707B680022DA707B6803221A717B6892
:1027780002225A717B6801221A8000BF0C37BD46BD
:102788005DF8047B704780B483B000AF0346FB71EB
:10279800144BD3F80032134A43F00103C2F8003255
:1027A800104BD3F800320F4A23F47C5323F00E0366
:1027B800C2F800320B4BD3F80022FB791B020949FF
:1027C8001343C1F80032074BD3F80032054A23F00F
:1027D8000103C2F8003200BF0C37BD465DF8047B28
:1027E800704700BF0064004080B483B000AF7860D9
:1027F8000B46FB70FB78002B06D07B681B6843F404
:1028080080327B681A6005E07B681B6823F480329D
:102818007B681A6000BF0C37BD465DF8047B7047C3
:1028280080B483B000AF78600B46FB70FB78002B58
:102838001ED07B681B6843F080027B681A607B6847
:10284800D3F8843143F480727B68C3F884217B68B1
:10285800D3F8943143F480727B68C3F894217B6881
:10286800D3F8A43143F480727B68C3F8A4211DE037
:102878007B681B6823F080027B681A607B68D3F84A
:10288800843123F480727B68C3F884217B68D3F891
:10289800943123F480727B68C3F894217B68D3F861
:1028A800A43123F480727B68C3F8A42100BF0C37DD
:1028B800BD465DF8047B704780B485B000AF786092
:1028C80039600023FB737B689B6803F08063B3F176
:1028D800806F02D10023FB7315E07B689B6803F0CF
:1028E8000063B3F1006F02D10123FB730BE07B6837
:1028F8009B6803F08053B3F1805F02D10223FB731E
:1029080001E00423FB73FB7B042B00F09F80FB7B1F
:102918007A6818331B0113441A68FB7B02F0010222
:10292800796818331B010B441A603B681B7A002B2B
:1029380013D1FB7B7A6818331B01134419683B6871
:102948001B685B053A68527A1A43FB7B0A4379682D
:1029580018331B010B441A6015E0FB7B7A681833A7
:102968001B01134419683B685B68DB003A68127AFC
:1029780013433A68527A1A43FB7B0A43796818333F
:102988001B010B441A603B689B7A03F00F03DAB211
:102998003B689A72FB7B7A6818331B011344043333
:1029A8001A68FB7B22F00F02796818331B010B446D
:1029B80004331A60FB7B7A6818331B011344043311
:1029C8001A683B689B7A1946FB7B0A437968183377
:1029D8001B010B4404331A603B689B7B1A063B6857
:1029E8005B7B1B041A433B681B7B1B021A433B6837
:1029F800DB7A1946FB7B0A4379681B010B4403F514
:102A0800C4731A603B689B7C1A063B685B7C1B049A
:102A18001A433B681B7C1B021A433B68DB7B194645
:102A2800FB7B0A4379681B010B4403F5C6731A60E4
:102A3800FB7B7A6818331B0113441A68FB7B42F04E
:102A48000102796818331B010B441A60FB7B184696
:102A58001437BD465DF8047B704780B485B000AF7D
:102A680078600B46FB700023FB60FB78012B09D0D4
:102A7800022B0DD0002B11D17B689A68264B13408E
:102A8800FB600EE07B689A68244B1340FB6008E00B
:102A98007B689A68224B1340FB6002E00023FB60CE
:102AA80000BFFB681F4A93421BD01E4A934208D8B6
:102AB8001D4A934212D0184A934218D0002B0AD0CC
:102AC8001EE01A4A93420FD0154A934215D0134A72
:102AD80093420FD014E00223FB6014E00023FB6054
:102AE80011E00023FB600EE00023FB600BE00123F4
:102AF800FB6008E00123FB6005E00123FB6002E0C6
:102B08000023FB6000BFFB68DBB218461437BD46E4
:102B18005DF8047B704700BF030000040003000851
:102B2800000003100001000801000004000001106B
:102B380080B483B000AF78600B46FB70FB78012B44
:102B48000BD0022B10D0002B00D014E07B689B68C0
:102B580043F080027B689A600DE07B689B6843F4D1
:102B680000427B689A6006E07B689B6843F4000239
:102B78007B689A6000BF00BF0C37BD465DF8047BD8
:102B8800704780B485B000AFF8600B467A60FB727E
:102B9800FB7AFA681B331B0113441B68DBB203F092
:102BA8000403DAB27B681A727B681B7A002B0BD19C
:102BB800FB7AFA681B331B0113441B685B0DC3F3D4
:102BC8000A027B681A600AE0FB7AFA681B331B0169
:102BD80013441B68DB0823F060427B685A60FB7A69
:102BE800FA681B331B0113441B68DBB203F00203B2
:102BF800DAB27B685A72FB7AFA681B331B011344FA
:102C080004331B68DBB203F00F03DAB27B689A72F5
:102C1800FB7AFA681B331B01134404331B681B0A35
:102C2800DAB27B68DA74FB7AFA681B01134403F59D
:102C3800DC731B68DAB27B68DA72FB7AFA681B010C
:102C4800134403F5DC731B681B0ADAB27B681A733A
:102C5800FB7AFA681B01134403F5DC731B681B0C31
:102C6800DAB27B685A73FB7AFA681B01134403F5DE
:102C7800DC731B681B0EDAB27B689A73FB7AFA68FE
:102C88001B01134403F5DE731B68DAB27B68DA7341
:102C9800FB7AFA681B01134403F5DE731B681B0AF1
:102CA800DAB27B681A74FB7AFA681B01134403F5DD
:102CB800DE731B681B0CDAB27B685A74FB7AFA68FD
:102CC8001B01134403F5DE731B681B0EDAB27B6825
:102CD8009A74FB7A002B06D1FB68DB6843F020026C
:102CE800FB68DA6005E0FB681B6943F02002FB68BB
:102CF8001A6100BF1437BD465DF8047B704780B485
:102D080083B000AF78600B46FB70FB78002B06D1D0
:102D18007B68DB6843F020027B68DA6005E07B684B
:102D28001B6943F020027B681A6100BF0C37BD465F
:102D38005DF8047B704780B485B000AF78600B46BF
:102D4800FB700023FB73FB78002B06D17B68DB68E4
:102D5800DBB203F00303FB730BE0FB78012B06D116
:102D68007B681B69DBB203F00303FB7301E00023FC
:102D7800FB73FB7B18461437BD465DF8047B704730
:102D880080B485B000AF78600B46FB700023FB73FE
:102D98004FF6FF73BB60FB78002B20D17B681B6864
:102DA80023F0030343F001027B681A6002E0BB686A
:102DB800013BBB607B685B6803F00303012B02D017
:102DC800BB68002BF3D17B685B6803F00303012B1E
:102DD80002D00023FB734AE00123FB7347E0FB7832
:102DE800012B1ED17B681B6823F003027B681A60E5
:102DF80002E0BB68013BBB607B685B6803F00303D0
:102E0800002B02D0BB68002BF3D17B685B6803F012
:102E18000303002B02D00023FB7328E00123FB737C
:102E280025E0FB78022B20D17B681B6823F0030385
:102E380043F002027B681A6002E0BB68013BBB609A
:102E48007B685B6803F00303022B02D0BB68002B8E
:102E5800F3D17B685B6803F00303022B02D00023E5
:102E6800FB7304E00123FB7301E00023FB73FB7B8E
:102E780018461437BD465DF8047B704780B485B0AA
:102E880000AF78600023FB737B681B6823F00303A3
:102E980043F002027B681A607B685B6803F00303F7
:102EA800022B01D10123FB73FB7B18461437BD4667
:102EB8005DF8047B704780B485B000AF78604FF64A
:102EC800FF73FB600023FB727B681B6823F0020220
:102ED8007B681A6002E0FB68013BFB607B685B680B
:102EE80003F00203022B02D1FB68002BF3D17B68AD
:102EF8005B6803F00203022B01D00123FB72FB7A0B
:102F080018461437BD465DF8047B704780B485B019
:102F180000AF78600023FB737B689B69DBB203F02A
:102F28007003FB73FB7B18461437BD465DF8047BC2
:102F3800704780B485B000AF78600023FB737B686E
:102F48009B691B0EFB73FB7B18461437BD465DF867
:102F5800047B704780B485B000AF78600023FB73B2
:102F68007B689B691B0CFB73FB7B18461437BD46BB
:102F78005DF8047B704780B485B000AFF860B96035
:102F88001346FB71FB79002B06D0FB685A69BB68B6
:102F98001A43FB685A6106E0FB685A69BB68DB4361
:102FA8001A40FB685A6100BF1437BD465DF8047BC0
:102FB800704780B485B000AF786039600023FB7338
:102FC8003B6803F47003002B0DD07B689A693B685B
:102FD8001340C3F31303002B02D00123FB7348E013
:102FE8000023FB7345E03B6803F08073002B0DD092
:102FF8007B685A683B681340C3F31303002B02D065
:103008000123FB7335E00023FB7332E03B6803F0D8
:103018000063002B0DD07B689A683B681340C3F3AC
:103028001303002B02D00123FB7322E00023FB7360
:103038001FE03B6803F00073002B0DD07B68DA6853
:103048003B681340C3F31303002B02D00123FB7327
:103058000FE00023FB730CE07B681A693B681340A0
:10306800C3F31303002B02D00123FB7301E00023F9
:10307800FB73FB7B18461437BD465DF8047B70472D
:1030880080B485B000AF786039600023FB603B688E
:10309800174A934203D17B6800229A6121E03B687A
:1030A800C3F31303FB603B6803F00073002B03D0EA
:1030B8007B68FA68DA6014E03B6803F08063002BF1
:1030C80003D07B68FA681A610BE03B6803F0006381
:1030D800002B03D07B68FA689A6002E07B68FA6884
:1030E8005A6000BF1437BD465DF8047B704700BFC7
:1030F8007000F03080B584B000AF7860396000238C
:10310800FB737B685A693B681340002B00F0B28060
:103118003B68402B62D0402B0FD8042B3AD0042BAD
:1031280004D8012B24D0022B2BD09FE0102B43D0A6
:10313800202B4AD0082B36D098E0B3F5006F00F06A
:103148008380B3F5006F09D8B3F5007F6AD0B3F573
:10315800806F70D0B3F5807F5BD087E0B3F5803F98
:1031680045D0B3F5003F4BD0B3F5004F75D07DE0A7
:103178007B689B684349184600F0F6F80346FB73E2
:103188007AE07B68DB680321184600F0EDF8034617
:10319800FB7371E07B68DB680821184600F0E4F8EF
:1031A8000346FB7368E07B68DB681021184600F073
:1031B800DBF80346FB735FE07B681B690321184655
:1031C80000F0D2F80346FB7356E07B681B690821C0
:1031D800184600F0C9F80346FB734DE07B681B698D
:1031E8001021184600F0C0F80346FB7344E07B68E2
:1031F8005B680821184600F0B7F80346FB733BE00C
:103208007B685B681021184600F0AEF80346FB7334
:1032180032E07B689B690121184600F0A5F8034657
:10322800FB7329E07B689B690221184600F09CF833
:103238000346FB7320E07B689B690421184600F075
:1032480093F80346FB7317E07B689B697021184667
:1032580000F08AF80346FB730EE07B685B68042184
:10326800184600F081F80346FB7305E00023FB7362
:1032780000BF01E00023FB73FB7B18461037BD46F7
:1032880080BD00BF0101010080B483B000AF786049
:1032980039603B68B3F5807F43D0B3F5807F0DD8A4
:1032A800082B2AD0082B04D8012B1ED0042B20D0A1
:1032B80051E0202B25D0402B27D04CE0B3F5006FF0
:1032C8003BD0B3F5006F06D8B3F5007F2DD0B3F52A
:1032D800806F2ED03FE0B3F5803F1AD0B3F5003FA2
:1032E8001BD0B3F5004F2FD035E07B681D4A9A609C
:1032F80031E07B680822DA602DE07B681022DA6012
:1033080029E07B6808221A6125E07B6810221A618F
:1033180021E07B6808225A601DE07B6810225A6011
:1033280019E07B6804225A6015E07B6804225A6021
:1033380011E07B6804225A600DE07B6800229A61E4
:103348007B6804225A6006E07B6800229A617B68E9
:1033580004225A6000BF00BF0C37BD465DF8047BED
:10336800704700BF0101010080B485B000AF7860EC
:1033780039600023FB737A683B681340002B02D046
:103388000123FB7301E00023FB73FB7B1846143712
:10339800BD465DF8047B704780B400AF034B012243
:1033A8009A6000BFBD465DF8047B7047003002405C
:1033B80080B483B000AF7860054A7B681360044B23
:1033C8001B6818460C37BD465DF8047B704700BF84
:1033D8000030024080B485B000AF786039600023C7
:1033E800FB600023FB6009E0FB689B007A681344DC
:1033F800084A1B681360FB680133FB60FA683B6886
:103408009A42F1D3034B1B6818461437BD465DF842
:10341800047B70470030024080B400AF034B1B6848
:103428001846BD465DF8047B704700BF0030024077
:1034380080B483B000AF0346FB71044AFB79137173
:1034480000BF0C37BD465DF8047B70470030024072
:1034580080B400AF034B1B79DBB21846BD465DF85C
:10346800047B70470030024080B584B000AF002371
:103478007B600023BB600023FB73304BCA225A6277
:103488002E4B53225A6200F0C7F80346002B02D194
:103498000023FB7349E0294B00221A60274B42F2B4
:1034A80001125A60254B9B68244A03F00703936076
:1034B800224BDB6803F00403BB607B6801337B604D
:1034C8007B68B3F5803F02D0BB68002BF0D01B4B64
:1034D800DB6803F00403002B02D10023FB7324E014
:1034E800164B9B68154B00229A60144B4FF6FF72DF
:1034F8005A61124B124A1A61104B00229A610F4B03
:103508000022DA610D4B00221A620C4B0022DA60AD
:103518000A4B00221A6400F0C9F80346002B02D1B6
:103528000023FB7301E00123FB73044BFF225A6263
:10353800FB7B18461037BD4680BD00BF0028004001
:10354800FF007F0080B584B000AF78600023FB7374
:10355800194BCA225A62184B53225A6200F05CF87F
:103568000346002B02D10023FB731CE0124B9B681F
:10357800114A23F0400393600F4B9A687B681B68DD
:103588000D4913438B600C4A7B689B6813610A4B97
:103598001A697B685B681B04074913430B6100F0D9
:1035A80075F80123FB73044BFF225A62FB7B184614
:1035B8001037BD4680BD00BF0028004080B483B0EE
:1035C80000AF78607B6800221A607B687F225A60AF
:1035D8007B68FF229A6000BF0C37BD465DF8047B0C
:1035E800704780B483B000AF0346FB71FB79002BB2
:1035F80003D0084BFF225A6205E0064BCA225A62E2
:10360800044B53225A6200BF0C37BD465DF8047B59
:10361800704700BF0028004080B485B000AF002389
:103628007B600023FB730023BB60174BDB6803F050
:103638004003002B1ED1144B4FF0FF32DA60124BBF
:10364800DB6803F04003BB607B6801337B607B6809
:10365800B3F5803F02D0BB68002BF0D00A4BDB6883
:1036680003F04003002B02D00123FB7304E0002386
:10367800FB7301E00123FB73FB7B18461437BD463F
:103688005DF8047B704700BF0028004080B400AF9D
:10369800054BDB68044A23F08003D36000BFBD46B6
:1036A8005DF8047B704700BF0028004080B485B0F7
:1036B80000AF00237B600023FB730023BB60184B23
:1036C800CA225A62164B53225A62154BDB68144AB7
:1036D80023F0A003D360124BDB6803F02003BB6028
:1036E8007B6801337B607B68B3F5003F02D0BB6821
:1036F800002BF0D00A4BDB6803F02003002B02D02C
:103708000123FB7301E00023FB73054BFF225A6280
:10371800FB7B18461437BD465DF8047B704700BF35
:103728000028004080B584B000AF0346FB71002339
:10373800FB73154BCA225A62134B53225A62FFF786
:103748006BFF0346002B02D10023FB7313E0FB79C8
:10375800002B06D00C4B9B680B4A43F01003936078
:1037680005E0094B9B68084A23F010039360FFF7B4
:103778008DFF0123FB73044BFF225A62FB7B184623
:103788001037BD4680BD00BF0028004080B483B01C
:1037980000AF0346FB710F4BCA225A620D4B5322EE
:1037A8005A62FB79002B06D00A4B9B68094A43F002
:1037B8002003936005E0074B9B68064A03F0DF038C
:1037C8009360044BFF225A6200BF0C37BD465DF878
:1037D800047B70470028004090B585B000AF786042
:1037E80039600023FB600023FB727B68002B09D142
:1037F800394B9B6803F04003002B14D13B6800222F
:10380800DA7010E0344B9B6803F04003002B07D0BC
:103818003B681B78184601F094F80346FB6002E009
:103828003B680022DA707B68002B0FD03B681B785E
:103838001A043B685B781B0213433A6892781A4370
:103848003B68DB781B041343FB601BE03B681B7879
:10385800184601F059F803461C043B685B78184683
:1038680001F052F803461B021C433B689B7818463C
:1038780001F04AF8034644EA03023B68DB781B047C
:103888001343FB60144BCA225A62134B53225A62E9
:10389800FFF7C2FE0346002B02D10023FB7212E0A1
:1038A8000D4AFB6803F07F3323F0FE431360FFF7F4
:1038B800EDFEFFF7FBFE0346002B02D10023FB724F
:1038C80001E00123FB72044BFF225A62FB7A18467F
:1038D8001437BD4690BD00BF0028004080B483B0B7
:1038E80000AF78607B680022DA707B6800221A706B
:1038F8007B6800225A707B6800229A7000BF0C37E0
:10390800BD465DF8047B704780B584B000AF786031
:1039180039600023FB60244B1B6803F07F3323F0DE
:10392800FE43FB60FB681B0CDBB203F03F03DAB21B
:103938003B681A70FB681B0ADBB203F07F03DAB23C
:103948003B685A70FB68DBB203F07F03DAB23B686E
:103958009A70FB681B0CDBB203F04003DAB23B68D9
:10396800DA707B68002B1AD13B681B78184600F088
:10397800E8FF03461A463B681A703B685B781846AE
:1039880000F0DFFF03461A463B685A703B689B7895
:10399800184600F0D6FF03461A463B689A7000BFE7
:1039A8001037BD4680BD00BF0028004080B483B0FA
:1039B80000AF00237B60064B9B6A7B60044B5B680F
:1039C8007B6818460C37BD465DF8047B704700BF1E
:1039D8000028004090B585B000AF786039600023BA
:1039E800FB600023FB727B68002B0ED13B685B7881
:1039F80003F01003002B08D03B685B7823F010031A
:103A0800DBB20A33DAB23B685A707B68002B0DD000
:103A18003B685B78184600F094FF0346FB603B6800
:103A28009B78184600F08DFF0346FB607B68002BEF
:103A38000FD03B68DB781A043B685B781B021343A2
:103A48003A6892781A433B681B785B031343FB6020
:103A58001BE03B68DB78184600F056FF03461C0461
:103A68003B685B78184600F04FFF03461B021C4377
:103A78003B689B78184600F047FF034644EA030278
:103A88003B681B785B031343FB60144BCA225A62E2
:103A9800124B53225A62FFF7BFFD0346002B02D197
:103AA8000023FB7212E00D4AFB6823F07F4323F0EA
:103AB800C0035360FFF7EAFDFFF7F8FD0346002B4C
:103AC80002D10023FB7201E00123FB72034BFF22AA
:103AD8005A62FB7A18461437BD4690BD002800404C
:103AE80080B483B000AF78607B6801221A707B686D
:103AF80001229A707B6801225A707B680022DA7072
:103B080000BF0C37BD465DF8047B704780B584B0B4
:103B180000AF786039600023FB60224B5B6823F0BC
:103B28007F4323F0C003FB60FB681B0CDAB23B68E1
:103B3800DA70FB681B0ADBB203F01F03DAB23B68DA
:103B48005A70FB68DBB203F03F03DAB23B689A7045
:103B5800FB685B0BDBB203F00703DAB23B681A7051
:103B68007B68002B1AD13B68DB78184600F0E9FE29
:103B780003461A463B68DA703B685B78184600F0E3
:103B8800E0FE03461A463B685A703B689B78184625
:103B980000F0D7FE03461A463B689A7000BF1037FC
:103BA800BD4680BD0028004090B587B000AFF860E2
:103BB800B9607A6000237B61FB68002B09D1474B11
:103BC8009B6803F04003002B27D17B680022DA7042
:103BD80023E0424B9B6803F04003002B07D07B682F
:103BE8001B78184600F0ADFE03467B6102E07B6857
:103BF8000022DA707B689B68002B07D17B681B7BEF
:103C0800184600F09EFE03467B6106E07B681B7B3E
:103C1800184600F096FE03467B61FB68002B19D01E
:103C28007B681B781A047B685B781B0213437A68ED
:103C380092781A437B68DB781B041A437B681B7BEA
:103C48001B061A437B689B681A437B685B681343AF
:103C58007B612BE07B681B78184600F055FE034615
:103C68001C047B685B78184600F04EFE03461B0276
:103C78001C437B689B78184600F046FE034644EADE
:103C880003027B68DB781B0442EA03047B681B7B26
:103C9800184600F039FE03461B0644EA03027B6817
:103CA8009B681A437B685B6813437B610B4BCA2292
:103CB8005A620A4B53225A62BB68B3F5807F03D11C
:103CC800064A7B69D36102E0044A7B691362034BAD
:103CD800FF225A6200BF1C37BD4690BD0028004035
:103CE80080B483B000AF78607B680022DA707B68AC
:103CF80000221A707B6800225A707B6800229A7032
:103D08007B6800229A607B6801221A737B68002214
:103D18005A6000BF0C37BD465DF8047B704780B51C
:103D280086B000AFF860B9607A6000237B61BB6839
:103D3800B3F5807F03D1314BDB697B6102E02F4B08
:103D48001B6A7B617B691B0CDBB203F03F03DAB2B1
:103D58007B681A707B691B0ADBB203F07F03DAB257
:103D68007B685A707B69DBB203F07F03DAB27B6849
:103D78009A707B691B0CDBB203F04003DAB27B68F4
:103D8800DA707B691B0EDBB203F03F03DAB27B68A3
:103D98001A737B6903F080427B689A607B6903F041
:103DA80080327B685A60FB68002B23D17B681B78C4
:103DB800184600F0C6FD03461A467B681A707B68F1
:103DC8005B78184600F0BDFD03461A467B685A70BA
:103DD8007B689B78184600F0B4FD03461A467B685A
:103DE8009A707B681B7B184600F0ABFD03461A46A9
:103DF8007B681A7300BF1837BD4680BD0028004095
:103E080080B487B000AF78600B46FB700023FB607E
:103E180000233B610023FB751F4BCA225A621E4BCD
:103E280053225A62FB78002B08D01B4B9A681A4918
:103E38007B6813438B600123FB7522E0164B9A685D
:103E48007B68DB43144913408B60134BDA687B684B
:103E58001B0A13403B61FB680133FB60FB68B3F549
:103E6800803F02D03B69002BEFD00B4BDA687B68B0
:103E78001B0A1340002B02D10023FB7501E001232C
:103E8800FB75054BFF225A62FB7D18461C37BD4661
:103E98005DF8047B704700BF0028004080B487B0FD
:103EA80000AFF860B9607A6000237B610E4BCA22CC
:103EB8005A620D4B53225A62BA687B6813437B617E
:103EC800FB68B3F5807F03D1074A7B69536402E03E
:103ED800054A7B699364044BFF225A6200BF1C3772
:103EE800BD465DF8047B70470028004080B485B06B
:103EF80000AF78600023FB607B68B3F5807F05D155
:103F0800084B5B6CC3F30E03FB6004E0054B9B6C32
:103F1800C3F30E03FB60FB6818461437BD465DF813
:103F2800047B70470028004080B483B000AF7860FD
:103F38000D4BCA225A620C4B53225A620A4B9B6899
:103F4800094A23F007039360074B9A6806497B6880
:103F580013438B60044BFF225A6200BF0C37BD46E7
:103F68005DF8047B704700BF0028004080B483B030
:103F780000AF7860084BCA225A62074B53225A6234
:103F8800054A7B685361044BFF225A6200BF0C3715
:103F9800BD465DF8047B70470028004080B400AF40
:103FA800034B5B699BB21846BD465DF8047B7047BE
:103FB8000028004080B487B000AF0346FB7100239F
:103FC800FB6000233B610023FB751E4BCA225A622B
:103FD8001C4B53225A62FB79002B08D0194B9B6863
:103FE800184A43F4806393600123FB751FE0154B67
:103FF8009B68144A23F480639360124BDB6803F0D8
:1040080004033B61FB680133FB60FB68B3F5803F49
:1040180002D03B69002BF0D00A4BDB6803F00403A5
:10402800002B02D10023FB7501E00123FB75054B32
:10403800FF225A62FB7D18461C37BD465DF8047B9B
:10404800704700BF0028004080B483B000AF78609C
:1040580039600E4BCA225A620C4B53225A620B4BE0
:104068009B680A4A23F480239360084B9A6879680E
:104078003B680B43054913438B60044BFF225A628C
:1040880000BF0C37BD465DF8047B70470028004030
:1040980080B400AF044B9B6803F480231846BD46E8
:1040A8005DF8047B704700BF0028004080B483B0EF
:1040B80000AF786039600E4BCA225A620C4B53220B
:1040C8005A620B4B9B680A4A23F4E0039360084B3F
:1040D8009A6879683B680B43054913438B60044B26
:1040E800FF225A6200BF0C37BD465DF8047B70475B
:1040F8000028004080B584B000AF786039600023A4
:10410800FB730F4BCA225A620D4B53225A62FFF7B8
:1041180083FA0346002B02D10023FB7308E0084909
:104128007A683B6813438B61FFF7B0FA0123FB738E
:10413800034BFF225A62FB7B18461037BD4680BDF1
:104148000028004080B584B000AF0346FB7100230F
:10415800FB73154BCA225A62134B53225A62FFF75C
:104168005BFA0346002B02D10023FB7313E0FB79B3
:10417800002B06D00C4B9B680B4A43F080039360DE
:1041880005E0094B9B68084A23F080039360FFF71A
:104198007DFA0123FB73044BFF225A62FB7B18460E
:1041A8001037BD4680BD00BF0028004080B483B0F2
:1041B80000AF0346FB710F4BCA225A620D4B5322C4
:1041C8005A62FB79002B06D00A4B9B68094A43F4D4
:1041D8000003936005E0074B9B68064A23F400033D
:1041E8009360044BFF225A6200BF0C37BD465DF84E
:1041F800047B70470028004080B483B000AF78602B
:104208000D4BCA225A620C4B53225A620A4B9B68C6
:10421800094A23F400239360074B9A6806497B6890
:1042280013438B60044BFF225A6200BF0C37BD4614
:104238005DF8047B704700BF0028004080B487B059
:1042480000AFF860B9607A600023FB7500233B611A
:104258001A4BCA225A62194B53225A62174BDB680F
:1042680003F48033002B0DD002E03B6901333B613E
:10427800124BDB6803F48033002B03D03B69B3F5A2
:10428800003FF2D10D4BDB6803F48033002B09D1DA
:10429800FA68BB681A4309497B681343CB63012357
:1042A800FB7501E00023FB75044BFF225A62FB7D7E
:1042B80018461C37BD465DF8047B7047002800404F
:1042C80080B485B000AF78600B46FB700023FB60BC
:1042D800134B9B6823F4006323F00803FB60FB780F
:1042E800002B06D07A68FB68134343F40063FB6035
:1042F80003E0FA687B681343FB60094BCA225A62E1
:10430800074B53225A62064AFB689360044BFF220C
:104318005A6200BF1437BD465DF8047B704700BF82
:104328000028004080B586B000AFF860B9607A60B8
:1043380000237B6100233B61414B1B6B03F07F3300
:1043480023F0FE437B613E4B5B6B23F07F4323F0FE
:10435800C0033B617B691B0CDBB203F03F03DAB29D
:10436800BB681A707B691B0ADBB203F07F03DAB201
:10437800BB685A707B69DBB203F07F03DAB2BB68B3
:104388009A707B691B0CDBB203F04003DAB2BB689E
:10439800DA707B680022DA703B691B0ADBB203F033
:1043A8001F03DAB27B685A703B69DBB203F03F0344
:1043B800DAB27B689A703B695B0BDBB203F00703E8
:1043C800DAB27B681A70FB68002B35D1BB681B78A2
:1043D800184600F0B6FA03461A46BB681A70BB685E
:1043E8005B78184600F0ADFA03461A46BB685A7067
:1043F800BB689B78184600F0A4FA03461A46BB68C7
:104408009A707B685B78184600F09BFA03461A4658
:104418007B685A707B689B78184600F092FA0346CE
:104428001A467B689A707B681B78184600F089FAF0
:1044380003461A467B681A7000BF1837BD4680BD10
:104448000028004080B400AF034B9B6B1846BD4664
:104458005DF8047B704700BF0028004080B483B03B
:1044680000AF786039603B68002B08D10A4B1A6CA2
:104478007B685B00DB43084913400B6406E0064B8E
:104488001A6C7B685B00044913430B6400BF0C374C
:10449800BD465DF8047B70470028004080B483B0B7
:1044A80000AF78600B46FB70FB78002B06D00A4BF8
:1044B8001A6C09497B6813430B6406E0064B1A6CB7
:1044C8007B68DB43044913400B6400BF0C37BD46CF
:1044D8005DF8047B704700BF0028004080B483B0BB
:1044E80000AF7860084B1B6C074A23F4C053136471
:1044F800054B1A6C04497B6813430B6400BF0C37E7
:10450800BD465DF8047B70470028004080B483B046
:1045180000AF7860084B1B6C074A23F4E063136410
:10452800054B1A6C04497B6813430B6400BF0C37B6
:10453800BD465DF8047B70470028004080B483B016
:1045480000AF7860084B1B6C074A23F4C043136420
:10455800054B1A6C04497B6813430B6400BF0C3786
:10456800BD465DF8047B70470028004080B483B0E6
:1045780000AF0346FB71FB79002B06D0094B1B6C7F
:10458800084A43F08003136405E0064B1B6C054A98
:1045980023F08003136400BF0C37BD465DF8047B2D
:1045A800704700BF0028004080B483B000AF0346C6
:1045B800FB71FB79002B06D0094B1B6C084A23F4CE
:1045C8000043136405E0064B1B6C054A43F40043A3
:1045D800136400BF0C37BD465DF8047B704700BF0D
:1045E8000028004080B485B000AF786039600023AF
:1045F800FB60084BFB607B689A00FB681344FB6018
:10460800FB681A463B68136000BF1437BD465DF867
:10461800047B70475028004080B485B000AF7860B4
:104628000023FB60074BFB607B689A00FB68134420
:10463800FB60FB681B6818461437BD465DF8047BB1
:10464800704700BF5028004080B483B000AF786046
:10465800084B1B6C074A23F480331364054B1A6C10
:1046680004497B6813430B6400BF0C37BD465DF8F3
:10467800047B70470028004080B483B000AF7860A6
:10468800084B1B6C074A23F400331364054B1A6C60
:1046980004497B6813430B6400BF0C37BD465DF8C3
:1046A800047B70470028004080B483B000AF786076
:1046B800084B1B6C074A23F480231364054B1A6CC0
:1046C80004497B6813430B6400BF0C37BD465DF893
:1046D800047B70470028004080B584B000AF786044
:1046E80039600023FB730023BB60214BCA225A6246
:1046F8001F4B53225A621E4BDB6803F00803002B42
:104708000DD002E0BB680133BB60194BDB6803F0D6
:104718000803002B03D0BB68B3F5805FF2D1144BBC
:10472800DB6803F00803002B18D1114B9B6803F0DA
:104738001003002B0FD10E493A687B681343CB62F4
:10474800FEF7B4FF0346002B02D10023FB7307E0FA
:104758000123FB7304E00023FB7301E00023FB73D8
:10476800034BFF225A62FB7B18461037BD4680BDBB
:104778000028004080B483B000AF78600B46FB701F
:104788001A4BCA225A62194B53225A62FB78002BE1
:1047980010D0164B9A687B6823F00403134913431F
:1047A8008B60124B1A6C7B6803F004030F491343A8
:1047B8000B6411E00D4B9A687B6823F00403DB431C
:1047C8000A4913408B60094B1A6C7B6803F0040399
:1047D800DB43064913400B64044BFF225A6200BFB7
:1047E8000C37BD465DF8047B704700BF00280040C9
:1047F80080B485B000AF78600023FB730023BB60F2
:104808000B4BDA6843F677731340BB60BA687B6872
:104818001340002B02D00123FB7301E00023FB733C
:10482800FB7B18461437BD465DF8047B704700BF14
:104838000028004080B483B000AF78607B689BB2EA
:1048480043F08003DA43064BDB6803F08003044936
:104858001343CB6000BF0C37BD465DF8047B70473F
:104868000028004080B487B000AF78600023FB7553
:1048780000233B610023FB60134B1B6C03F0040314
:104888003B61114B9A687B681A407B68D90B3B697E
:104898000B401343FB600C4BDA687B681B09134021
:1048A8003B61FB68002B06D03B699BB2002B02D012
:1048B8000123FB7501E00023FB75FB7D18461C37BF
:1048C800BD465DF8047B70470028004080B485B081
:1048D80000AF78600023FB607B681B09FB60FB6806
:1048E8009BB243F08003DA43064BDB6803F0800396
:1048F80004491343CB6000BF1437BD465DF8047B01
:10490800704700BF0028004080B485B000AF034660
:10491800FB710023FB7305E0FB7B0133FB73FB7921
:104928000A3BFB71FB79092BF6D8FB7B1B01DAB23A
:10493800FB791343DBB218461437BD465DF8047B98
:10494800704780B485B000AF0346FB710023FB734A
:10495800FB791B09DBB21A46920013445B00FB7318
:10496800FB7903F00F03DAB2FB7B1344DBB2184682
:104978001437BD465DF8047B704700BF80B400AFB4
:10498800104B1B680F4A43F0010313600D4B0022C4
:104998009A600C4B1B680B4A23F0847323F4803312
:1049A8001360084B084A5A60064B1B68054A23F4F3
:1049B80080231360034B0022DA6000BFBD465DF818
:1049C800047B7047003802401030002480B483B064
:1049D80000AF0346FB71064B00221A70044AFB79AC
:1049E800137000BF0C37BD465DF8047B704700BFED
:1049F8000238024080B582B000AF00233B6000233C
:104A0800FB710023BB71312000F0B0FC0346BB7181
:104A18003B6801333B603B68B3F5A06F02D0BB79BC
:104A2800002BF0D0312000F0A1FC0346002B02D06F
:104A38000123FB7101E00023FB71FB79184608375D
:104A4800BD4680BD80B485B000AF0346FB7100232E
:104A5800FB600A4B1B68FB60FB6823F0F803FB60F4
:104A6800FB79DB00FA681343FB60044AFB681360B8
:104A780000BF1437BD465DF8047B7047003802401C
:104A880080B483B000AF0346FB71044AFB7913601E
:104A980000BF0C37BD465DF8047B704700004742F5
:104AA80080B483B000AF0346FB710D4B00221A702F
:104AB8000B4B00221A70FB79012B02D0042B04D077
:104AC80007E0074B01221A7003E0054B05221A7014
:104AD80000BF00BF0C37BD465DF8047B704700BFC0
:104AE8007038024080B483B000AF0346FB71044ABB
:104AF800FB79136000BF0C37BD465DF8047B704737
:104B0800800E474280B485B000AFF860B9607A6023
:104B18003B607B689A01BB681A433B685B08013BB2
:104B28001B041A43FB681A43BB691B060449134359
:104B38004B6000BF1437BD465DF8047B704700BF6B
:104B48000038024080B483B000AF0346FB71044ACA
:104B5800FB79136000BF0C37BD465DF8047B7047D6
:104B68006000474280B483B000AF786039607B68EA
:104B78009A013B681B0705491343C1F8843000BFFD
:104B88000C37BD465DF8047B704700BF0038024013
:104B980080B483B000AF0346FB71044AFB7913600D
:104BA80000BF0C37BD465DF8047B7047680047427C
:104BB80080B483B000AF0346FB71044AFB791360ED
:104BC80000BF0C37BD465DF8047B70474C00474278
:104BD80080B485B000AF786039600023FB600B4B70
:104BE8009B68FB60FB6823F0EC63FB607A683B68BA
:104BF8001343FA681343FB60044AFB68936000BFE1
:104C08001437BD465DF8047B704700BF003802408A
:104C180080B485B000AF786039600023FB600B4B2F
:104C28009B68FB60FB6823F07843FB607A683B680D
:104C38001343FA681343FB60044AFB68936000BFA0
:104C48001437BD465DF8047B704700BF003802404A
:104C580080B485B000AF78600023FB60094B9B6887
:104C6800FB60FB6823F00303FB60FA687B6813436F
:104C7800FB60044AFB68936000BF1437BD465DF8CB
:104C8800047B70470038024080B400AF054B9B6836
:104C9800DBB203F00C03DBB21846BD465DF8047BBB
:104CA800704700BF0038024080B485B000AF78601C
:104CB8000023FB60094B9B68FB60FB6823F0F00353
:104CC800FB60FA687B681343FB60044AFB689360E7
:104CD80000BF1437BD465DF8047B704700380240BA
:104CE80080B485B000AF78600023FB60094B9B68F7
:104CF800FB60FB6823F4E053FB60FA687B681343AE
:104D0800FB60044AFB68936000BF1437BD465DF83A
:104D1800047B70470038024080B485B000AF7860EB
:104D28000023FB600A4B9B68FB60FB6823F460432D
:104D3800FB607B68DB00FA681343FB60044AFB688E
:104D4800936000BF1437BD465DF8047B704700BF11
:104D58000038024080B489B000AF78600023BB619E
:104D680000237B610023FB6102233B610023FB607E
:104D78000223BB60474B9B6803F00C03BB61BB6914
:104D8800042B07D0082B09D0002B3DD17B68424A61
:104D98001A603DE07B68414A1A6039E03D4B5B6828
:104DA8009B0D03F00103FB603A4B5B6803F03F0384
:104DB800BB60FB68002B0CD0384ABB68B2FBF3F32E
:104DC800344A52689209C2F3080202FB03F3FB61FA
:104DD8000BE0314ABB68B2FBF3F32E4A52689209E2
:104DE800C2F3080202FB03F3FB612A4B5B681B0C4E
:104DF80003F0030301335B003B61FA693B69B2FBD3
:104E0800F3F27B681A6003E07B68234A1A6000BFEC
:104E1800204B9B6803F0F003BB61BB691B09BB61B6
:104E28001F4ABB6913441B78DBB27B617B681A6835
:104E38007B69DA407B685A60164B9B6803F4E05341
:104E4800BB61BB699B0ABB61154ABB6913441B78EC
:104E5800DBB27B617B685A687B69DA407B689A6061
:104E68000C4B9B6803F46043BB61BB695B0BBB6184
:104E78000B4ABB6913441B78DBB27B617B685A68B9
:104E88007B69DA407B68DA6000BF2437BD465DF88D
:104E9800047B7047003802400024F40000127A00B6
:104EA8001400002080B485B000AF78600023FB6058
:104EB8007B6803F44073B3F5407F11D10F4B9B68B7
:104EC800FB60FB6823F4F813FB607B6823F07043F6
:104ED80023F44073FA681343FB60084AFB68936045
:104EE800064B1A6F7B68C3F30B03044913430B6724
:104EF80000BF1437BD465DF8047B70470038024098
:104F080080B483B000AF0346FB71044AFB79136099
:104F180000BF0C37BD465DF8047B70473C0E474226
:104F280080B483B000AF0346FB71044AFB79136079
:104F380000BF0C37BD465DF8047B7047400E474202
:104F480080B483B000AF7860044A7B68136000BF08
:104F58000C37BD465DF8047B704700BF5C014742D3
:104F680080B483B000AF78600B46FB70FB78002BF1
:104F780006D00A4B1A6B09497B6813430B6306E09A
:104F8800064B1A6B7B68DB43044913400B6300BF75
:104F98000C37BD465DF8047B704700BF00380240FF
:104FA80080B483B000AF78600B46FB70FB78002BB1
:104FB80006D00A4B5A6B09497B6813434B6306E0DA
:104FC800064B5A6B7B68DB43044913404B6300BFB5
:104FD8000C37BD465DF8047B704700BF00380240BF
:104FE80080B483B000AF78600B46FB70FB78002B71
:104FF80006D00A4B9A6B09497B6813438B6306E01A
:10500800064B9A6B7B68DB43044913408B6300BFF4
:105018000C37BD465DF8047B704700BF003802407E
:1050280080B483B000AF78600B46FB70FB78002B30
:1050380006D00A4B1A6C09497B6813430B6406E0D7
:10504800064B1A6C7B68DB43044913400B6400BFB2
:105058000C37BD465DF8047B704700BF003802403E
:1050680080B483B000AF78600B46FB70FB78002BF0
:1050780006D00A4B5A6C09497B6813434B6406E017
:10508800064B5A6C7B68DB43044913404B6400BFF2
:105098000C37BD465DF8047B704700BF00380240FE
:1050A80080B483B000AF78600B46FB70FB78002BB0
:1050B80006D00A4B1A6909497B6813430B6106E05D
:1050C800064B1A697B68DB43044913400B6100BF38
:1050D8000C37BD465DF8047B704700BF00380240BE
:1050E80080B483B000AF78600B46FB70FB78002B70
:1050F80006D00A4B5A6909497B6813434B6106E09D
:10510800064B5A697B68DB43044913404B6100BF77
:105118000C37BD465DF8047B704700BF003802407D
:1051280080B483B000AF78600B46FB70FB78002B2F
:1051380006D00A4B9A6909497B6813438B6106E0DC
:10514800064B9A697B68DB43044913408B6100BFB7
:105158000C37BD465DF8047B704700BF003802403D
:1051680080B483B000AF78600B46FB70FB78002BEF
:1051780006D00A4B1A6A09497B6813430B6206E09A
:10518800064B1A6A7B68DB43044913400B6200BF75
:105198000C37BD465DF8047B704700BF00380240FD
:1051A80080B483B000AF78600B46FB70FB78002BAF
:1051B80006D00A4B5A6A09497B6813434B6206E0DA
:1051C800064B5A6A7B68DB43044913404B6200BFB5
:1051D8000C37BD465DF8047B704700BF00380240BD
:1051E80080B483B000AF78600B46FB70FB78002B6F
:1051F80006D00A4B1A6D09497B6813430B6506E014
:10520800064B1A6D7B68DB43044913400B6500BFEE
:105218000C37BD465DF8047B704700BF003802407C
:1052280080B483B000AF78600B46FB70FB78002B2E
:1052380006D00A4B5A6D09497B6813434B6506E053
:10524800064B5A6D7B68DB43044913404B6500BF2E
:105258000C37BD465DF8047B704700BF003802403C
:1052680080B483B000AF78600B46FB70FB78002BEE
:1052780006D00A4B9A6D09497B6813438B6506E093
:10528800064B9A6D7B68DB43044913408B6500BF6E
:105298000C37BD465DF8047B704700BF00380240FC
:1052A80080B483B000AF78600B46FB70FB78002BAE
:1052B80006D00A4B1A6E09497B6813430B6606E051
:1052C800064B1A6E7B68DB43044913400B6600BF2C
:1052D8000C37BD465DF8047B704700BF00380240BC
:1052E80080B483B000AF78600B46FB70FB78002B6E
:1052F80006D00A4B5A6E09497B6813434B6606E091
:10530800064B5A6E7B68DB43044913404B6600BF6B
:105318000C37BD465DF8047B704700BF003802407B
:1053280080B483B000AF03460A46FB711346BB71D5
:10533800BB79002B08D00C4B1B78DAB20A49FB79F1
:105348001343DBB20B7009E0074B1B78DAB2FB7929
:10535800DB43DBB204491340DBB20B7000BF0C37F0
:10536800BD465DF8047B70470D38024080B487B0B5
:1053780000AF0346FB710023FB6000237B61002321
:10538800FB74FB795B09DBB2FB60FB68012B03D183
:10539800124B1B687B6109E0FB68022B03D10F4BA2
:1053A8001B6F7B6102E00D4B5B6F7B61FB7903F048
:1053B8001F03FB607A69FB6822FA03F303F0010319
:1053C800002B02D00123FB7401E00023FB74FB7C5B
:1053D80018461C37BD465DF8047B7047003802400C
:1053E80080B400AF054B5B6F044A43F0807353678A
:1053F80000BFBD465DF8047B704700BF003802401F
:1054080080B485B000AF0346FB710023FB73094BE2
:10541800DA68FB791340002B02D00123FB7301E00B
:105428000023FB73FB7B18461437BD465DF8047BED
:10543800704700BF0038024080B483B000AF034615
:10544800FB71044AFB79137000BF0C37BD465DF849
:10545800047B70470E38024080B582B000AF786098
:105468007B683C4A934208D101210120FFF718FECE
:1054780000210120FFF714FE68E07B68364A93425A
:1054880008D101210220FFF70BFE00210220FFF7BF
:1054980007FE5BE07B68314A934208D10121042072
:1054A800FFF7FEFD00210420FFF7FAFD4EE07B68C0
:1054B8002B4A934208D101210820FFF7F1FD002172
:1054C8000820FFF7EDFD41E07B68264A934208D1AA
:1054D80001211020FFF7E4FD00211020FFF7E0FD77
:1054E80034E07B68204A934208D101212020FFF74D
:1054F800D7FD00212020FFF7D3FD27E07B681B4A5A
:10550800934208D101214020FFF7CAFD0021402025
:10551800FFF7C6FD1AE07B68154A934208D10121BE
:105528008020FFF7BDFD00218020FFF7B9FD0DE0C9
:105538007B68104A934209D101214FF48070FFF72C
:10554800AFFD00214FF48070FFF7AAFD00BF0837B8
:10555800BD4680BD00000240000402400008024031
:10556800000C0240001002400014024000180240E3
:10557800001C02400020024080B487B000AF786071
:10558800396000237B6100233B610023FB6000231B
:105598007B6176E001227B6902FA03F33B613B6899
:1055A8001B683A691340FB60FA683B699A4265D107
:1055B8007B681A687B695B00032101FA03F3DB430C
:1055C8001A407B681A607B681A683B681B79194621
:1055D8007B695B0001FA03F31A437B681A603B6836
:1055E8001B79012B03D03B681B79022B2ED17B68DA
:1055F8009A687B695B00032101FA03F3DB431A40D5
:105608007B689A607B689A683B685B7919467B6916
:105618005B0001FA03F31A437B689A607B685A6857
:105628007B699BB2194601238B40DB431A407B6898
:105638005A607B685B683A68927911467A6992B2D7
:1056480001FA02F292B21A437B685A607B68DA6800
:105658007B699BB25B00032101FA03F3DB431A4029
:105668007B68DA607B68DA683B68DB7919467B69B6
:105678005B0001FA03F31A437B68DA607B69013344
:105688007B617B690F2B85D900BF1C37BD465DF850
:10569800047B704780B483B000AF78607B684FF6B6
:1056A800FF721A607B6800221A717B6800225A71A7
:1056B8007B6800229A717B680022DA7100BF0C3780
:1056C800BD465DF8047B704780B485B000AF786054
:1056D8000B467B804FF48033FB607A88FB6813436A
:1056E800FB60FA687B68DA617A887B68DA61FA6855
:1056F8007B68DA617B68DB69FB607B68DB69FB6080
:1057080000BF1437BD465DF8047B704780B485B090
:1057180000AF78600B467B800023FB737B681A69B7
:105728007B881340002B02D00123FB7301E0002388
:10573800FB73FB7B18461437BD465DF8047B704746
:1057480080B483B000AF78607B681B699BB2184651
:105758000C37BD465DF8047B704780B485B000AF58
:1057680078600B467B800023FB737B685A697B88D3
:105778001340002B02D00123FB7301E00023FB73CD
:10578800FB7B18461437BD465DF8047B704780B430
:1057980083B000AF78607B685B699BB218460C37B2
:1057A800BD465DF8047B704780B483B000AF786075
:1057B8000B467B807B687A881A8300BF0C37BD460E
:1057C8005DF8047B704780B483B000AF78600B4607
:1057D8007B807B687A885A8300BF0C37BD465DF8AA
:1057E800047B704780B483B000AF78600B467B8041
:1057F80013467B707B78002B03D07B687A881A83EA
:1058080002E07B687A885A8300BF0C37BD465DF892
:10581800047B704780B483B000AF78600B467B8010
:105828007A887B685A6100BF0C37BD465DF8047BF7
:10583800704780B483B000AF78600B467B807B688C
:105848005A697B885A407B685A6100BF0C37BD464D
:105858005DF8047B704780B485B000AF78600B4674
:105868007B8013467B700023FB600023BB607A7843
:105878007B8803F007039B0002FA03F3FB607B8835
:10588800DB089BB21A467B68083253F822207B88D3
:1058980003F007039B000F2101FA03F3DB43798828
:1058A800C90889B2084602EA03017B6800F10802C8
:1058B80043F822107B88DB089BB21A467B680832C3
:1058C80053F82230FA681343BB607B88DB089BB22D
:1058D8001A467B680832B96843F8221000BF1437AB
:1058E800BD465DF8047B704780B500AF01214FF0DD
:1058F8000050FFF735FC00214FF00050FFF730FC57
:1059080000BF80BD80B485B000AF786039600023E7
:10591800FB600023BB60144B1B68FB6040F6FE7203
:105928007B6802FA03F3DB43FA681340FB603B68C9
:105938001A683B685B681A433B689B681A433B6874
:10594800DB681343BB60BA687B6802FA03F3FA6842
:105958001343FB60044AFB68136000BF1437BD465D
:105968005DF8047B704700BF0074004080B483B0CA
:1059780000AF78607B6800221A607B6800225A605A
:105988007B6800229A607B680022DA6000BF0C37CF
:10599800BD465DF8047B704780B483B000AF786083
:1059A8000B46FB70FB78002B09D00D4B1A680121C0
:1059B8007B6801FA03F30A4913430B6009E0084BBB
:1059C8001A6801217B6801FA03F3DB430449134099
:1059D8000B6000BF0C37BD465DF8047B704700BF05
:1059E8000074004080B483B000AF78600B46FB7051
:1059F800FB78002B0AD00E4B5A687B681B090121E3
:105A080001FA03F30A4913434B600AE0084B5A684A
:105A18007B681B09012101FA03F3DB4304491340A6
:105A28004B6000BF0C37BD465DF8047B704700BF74
:105A38000074004080B483B000AF0346FB71FB796B
:105A4800002B06D0094B5B68084A43F003035360F8
:105A580005E0064B5B68054A23F00303536000BF6B
:105A68000C37BD465DF8047B704700BF00740040EA
:105A780080B485B000AFF860B9601346FB71FB795C
:105A8800002B09D00C4B1A68B968FB6801FA03F3BC
:105A9800094913430B6009E0074B1A68B968FB68AA
:105AA80001FA03F3DB43044913400B6000BF1437CA
:105AB800BD465DF8047B70470074004080B485B033
:105AC80000AF78600B467B800023FB60084BFB60CF
