:020000040800F2
:1000000000000220B10E01083BCE000849CE0008D6
:100010004FCE000855CE00085BCE0008000000005F
:1000200000000000000000000000000059E000088F
:1000300061CE0008000000002FE2000887E20008FF
:10004000F50E0108F50E0108F50E0108F50E010880
:10005000F50E0108F50E0108F50E0108F50E010870
:10006000F50E0108F50E0108F50E0108F50E010860
:10007000F50E0108F50E0108F50E0108F50E010850
:10008000F50E0108F50E0108F50E0108F50E010840
:10009000F50E0108F50E0108F50E0108F50E010830
:1000A000F50E0108F50E0108F50E0108F50E010820
:1000B000F50E0108F50E0108F50E0108F50E010810
:1000C000F50E0108F50E0108F50E0108F50E010800
:1000D000F50E0108F50E0108F50E0108F50E0108F0
:1000E000F50E0108F50E0108F50E0108F50E0108E0
:1000F000F50E0108F50E0108F50E0108F50E0108D0
:10010000F50E0108F50E0108F50E0108F50E0108BF
:10011000F50E0108F50E0108F50E0108F50E0108AF
:10012000F50E0108F50E0108F50E0108F50E01089F
:10013000F50E0108F50E0108F50E0108F50E01088F
:10014000F50E0108F50E0108F50E0108F50E01087F
:10015000F50E0108F50E0108F50E0108F50E01086F
:10016000F50E0108F50E0108F50E0108F50E01085F
:10017000F50E0108F50E0108F50E0108F50E01084F
:08018000F50E0108F50E01085F
:1001880010B5054C237833B9044B13B10448AFF3C9
:1001980000800123237010BDD4040020000000005B
:1001A800C812010808B5034B1BB103490348AFF354
:1001B800008008BD00000000D8040020C812010813
:1001C800154B002B08BF134B9D46A3F5803A002121
:1001D8008B460F461348144A121A10F0BDFE0F4BF7
:1001E800002B00D098470E4B002B00D098470020DA
:1001F800002104000D000D48002802D00C4810F022
:1002080073FF10F085FE200029000DF0F3F810F0C0
:100218006FFE00BF000008000000000000000000A2
:1002280000000000D4040020F8330120F110010878
:10023800FD100108F812010800000020D404002075
:10024800D4040020F833012080B483B000AF786074
:10025800064A7B6843F0BF6343F40033D36000BFB2
:100268000C37BD465DF8047B704700BF00ED00E029
:1002780080B485B000AF78600023FB730023BB73A4
:100288000F237B737B68DB78002B39D0274BDB6827
:10029800DB431B0ADBB203F00703FB73FB7BC3F1F1
:1002A8000403BB737A7BFB7B42FA03F37B737B68A3
:1002B8005B781A46BB7B02FA03F3FB737B689A7878
:1002C8007B7B1340DAB2FB7B1343FB73FB7B1B0185
:1002D800FB73174A7B681B781344FA7B83F8002367
:1002E8007B681B7803F01F0311497A68127852095A
:1002F800D2B21046012202FA03F341F820300FE08F
:100308007B681B7803F01F0309497A681278520941
:10031800D2B2104601229A4000F1200341F823206E
:1003280000BF1437BD465DF8047B704700ED00E060
:1003380000E100E080B483B000AF786039603B68CA
:1003480023F0604323F07F0304497A6813438B60EA
:1003580000BF0C37BD465DF8047B704700ED00E038
:1003680080B483B000AF03460A46FB711346BB71E5
:10037800BB79002B06D00A4B1A69FB79084913434D
:100388000B6106E0064B1A69FB79DB43044913400D
:100398000B6100BF0C37BD465DF8047B704700BF9A
:1003A80000ED00E080B483B000AF78607B68042B78
:1003B80006D1094B1B68084A43F00403136005E0A3
:1003C800054B1B68044A23F00403136000BF0C3775
:1003D800BD465DF8047B704710E000E080B500AFD3
:1003E80001214FF4807007F029FE00214FF480703E
:1003F80007F024FE00BF80BD80B485B000AF7860F0
:1004080039600023FB600023FB727B685B68FB603C
:10041800FB6823F0407323F48073FB603B681B790F
:100428001A023B681B681343FA681343FB607B6836
:10043800FA685A607B689B68FB60FA68184B13403F
:10044800FB603B681A693B68DB681A433B689B683A
:100458001A433B685B795B001343FA681343FB60FC
:100468007B68FA689A607B68DB6AFB60FB6823F448
:100478007003FB603B681B7D013BDAB2FB7A1343D8
:10048800FB72FB7A1B05FA681343FB607B68FA680A
:10049800DA6200BF1437BD465DF8047B704700BFC1
:1004A800FDF7FFC080B483B000AF78607B6800229E
:1004B8001A607B6800221A717B6800225A717B6877
:1004C80000229A607B680022DA607B6800221A6149
:1004D8007B6801221A7500BF0C37BD465DF8047BA6
:1004E800704780B485B000AF78600023FB600F4B85
:1004F8005B68FB60FA680E4B1340FB607B681A6808
:100508007B685B681A437B689B681A437B68DB6877
:100518001343FA681343FB60044AFB68536000BF47
:100528001437BD465DF8047B704700BF00230140C7
:10053800E030FCFF80B483B000AF78607B680022B5
:100548001A607B6800225A607B6800229A607B6888
:100558000022DA6000BF0C37BD465DF8047B7047A7
:1005680080B483B000AF78600B46FB70FB78002B3B
:1005780006D07B689B6843F001027B689A6005E0BF
:100588007B689B6823F001027B689A6000BF0C3788
:10059800BD465DF8047B704780B485B000AF7860D5
:1005A80039600023FB607B685B68FB60FB6823F4B1
:1005B800400323F40073FB60FA683B681343FB6055
:1005C8007B68FA685A6000BF1437BD465DF8047B43
:1005D800704780B483B000AF78600B467B801346C9
:1005E8003B807A887B685A623A887B689A6200BF47
:1005F8000C37BD465DF8047B704780B485B000AF0A
:1006080078600B46FB700023FB607B685B68FB60CF
:10061800FB6823F01F03FB60FB78FA681343FB6059
:100628007B68FA685A6000BF1437BD465DF8047BE2
:10063800704780B483B000AF0346FB71FB79002B91
:1006480006D0094B5B68084A43F40003536005E091
:10065800054B5B68044A23F40003536000BF0C3762
:10066800BD465DF8047B70470023014080B483B029
:1006780000AF0346FB71FB79002B06D0094B5B6882
:10068800084A43F48003536005E0064B5B68054A5B
:1006980023F48003536000BF0C37BD465DF8047B2C
:1006A800704700BF0023014080B485B000AF786078
:1006B800084611461A460346FB700B46BB701346A4
:1006C8007B700023FB600023BB60FB78092B23D9D8
:1006D8007B68DB68FB60FB78A3F10A0213465B00CA
:1006E8001344072202FA03F3BB60BB68DB43FA68D2
:1006F8001340FB607978FB78A3F10A0213465B008C
:10070800134401FA03F3BB60FA68BB681343FB6048
:100718007B68FA68DA601EE07B681B69FB60FA7820
:1007280013465B001344072202FA03F3BB60BB685D
:10073800DB43FA681340FB607978FA7813465B006C
:10074800134401FA03F3BB60FA68BB681343FB6008
:100758007B68FA681A61BB78062B21D87B685B6BCB
:10076800FB60BB785A1E13469B0013441F2202FAF3
:1007780003F3BB60BB68DB43FA681340FB60F9789E
:10078800BB785A1E13469B00134401FA03F3BB605F
:10079800FA68BB681343FB607B68FA685A6347E0F2
:1007A800BB780C2B21D87B681B6BFB60BB78DA1FEE
:1007B80013469B0013441F2202FA03F3BB60BB6875
:1007C800DB43FA681340FB60F978BB78DA1F1346FD
:1007D8009B00134401FA03F3BB60FA68BB68134338
:1007E800FB607B68FA681A6322E07B68DB6AFB605F
:1007F800BB78A3F10D0213469B0013441F2202FA93
:1008080003F3BB60BB68DB43FA681340FB60F9780D
:10081800BB78A3F10D0213469B00134401FA03F3BE
:10082800BB60FA68BB681343FB607B68FA68DA62EE
:1008380000BF1437BD465DF8047B704780B483B0B1
:1008480000AF78607B689B6843F080427B689A6061
:1008580000BF0C37BD465DF8047B704780B485B097
:1008680000AF78600023FB737B689B6803F4800308
:10087800002B02D00123FB7301E00023FB73FB7BF9
:1008880018461437BD465DF8047B704780B483B0C2
:1008980000AF78600B46FB70FB78002B06D07B68B6
:1008A8009B6843F480627B689A6005E07B689B687C
:1008B80023F480627B689A6000BF0C37BD465DF800
:1008C800047B704780B483B000AF78600B46FB7040
:1008D800FB78002B06D07B689B6843F002027B689C
:1008E8009A6005E07B689B6823F002027B689A6047
:1008F80000BF0C37BD465DF8047B704780B485B0F7
:1009080000AF78600B46FB700023FB600023BB60E0
:100918007B685B68FB60FB6823F46043FB60FB78E3
:10092800013BBB60BB685B03FA681343FB607B68F1
:10093800FA685A6000BF1437BD465DF8047B7047FB
:1009480080B483B000AF78600B46FB70FB78002B57
:1009580006D07B685B6843F400627B685A6005E0F8
:100968007B685B6823F400627B685A6000BF0C37C1
:10097800BD465DF8047B704780B483B000AF7860F3
:100988007B68DB6C9BB218460C37BD465DF8047B70
:10099800704780B400AF034B1B681846BD465DF82E
:1009A800047B70470823014080B483B000AF7860AF
:1009B8000B46FB70FB78002B06D07B689B6843F4E2
:1009C80080727B689A6005E07B689B6823F480727C
:1009D8007B689A6000BF0C37BD465DF8047B7047A2
:1009E80080B483B000AF78600B46FB70FB78002BB7
:1009F80006D07B689B6843F400727B689A6005E0C8
:100A08007B689B6823F400727B689A6000BF0C3790
:100A1800BD465DF8047B704780B483B000AF0346E1
:100A2800FB71FB79002B06D0094B5B68084A43F43D
:100A38000053536005E0064B5B68054A23F40053F6
:100A4800536000BF0C37BD465DF8047B704700BF9C
:100A58000023014080B487B000AF78600846114693
:100A68001A460346FB700B46BB7013467B70002387
:100A78007B6100233B610023FB60FB78092B23D9B2
:100A88007B68DB687B61FB78A3F10A0213465B0095
:100A98001344072202FA03F33B613B69DB437A699B
:100AA80013407B617978FB78A3F10A0213465B0057
:100AB800134401FA03F33B617A693B6913437B6191
:100AC8007B687A69DA601EE07B681B697B61FA786B
:100AD80013465B001344072202FA03F33B613B69A8
:100AE800DB437A6913407B617978FA7813465B00B7
:100AF800134401FA03F33B617A693B6913437B6151
:100B08007B687A691A617B689B6B7B617B691B0DCB
:100B180003F00303FB60FB68DBB2BA78D31ADBB2DD
:100B28000233DBB21A4613469B0013441F2202FA13
:100B380003F33B613B69DB437A6913407B61FA78D5
:100B4800FB68DBB2B978CB1ADBB20233DBB21946E9
:100B58000B469B000B4402FA03F33B617A693B693D
:100B680013437B617B687A699A6300BF1C37BD4673
:100B78005DF8047B704780B485B000AF78600B46A1
:100B8800FB700023FB600023BB607B689B6BFB60F2
:100B9800FB6823F44013FB60FB78013BBB60BB6838
:100BA8001B05FA681343FB607B68FA689A6300BF09
:100BB8001437BD465DF8047B704780B485B000AF3C
:100BC80078600B46FB7013463B800023FB607B6814
:100BD800FB60FA78FB681344FB60FB681A463B88A5
:100BE800136000BF1437BD465DF8047B704780B4BE
:100BF80085B000AF786039600023FB607B689B6834
:100C0800FB60FB6823F47023FB60FA683B681343BE
:100C1800FB607B68FA689A6000BF1437BD465DF8D0
:100C2800047B704780B485B000AF786039600023DA
:100C3800FB607B689B68FB60FB6823F44013FB60E8
:100C4800FA683B681343FB607B68FA689A6000BFE8
:100C58001437BD465DF8047B704780B483B000AF9D
:100C680078607B689B6843F480027B689A6000BF69
:100C78000C37BD465DF8047B704780B485B000AF83
:100C880078600023FB737B689B6803F48003002B68
:100C980002D00123FB7301E00023FB73FB7B1846A2
:100CA8001437BD465DF8047B704780B483B000AF4D
:100CB80078600B46FB70FB78002B06D07B685B687E
:100CC80043F480627B685A6005E07B685B6823F4C4
:100CD80080627B685A6000BF0C37BD465DF8047BB4
:100CE800704780B483B000AF78600B46FB70FB7828
:100CF800002B06D07B685B6843F480527B685A609F
:100D080005E07B685B6823F480527B685A6000BF0B
:100D18000C37BD465DF8047B704780B485B000AFE2
:100D280078600B46FB700023FB607B68FB60FA78F9
:100D3800FB6813442833FB60FB681B689BB21846AA
:100D48001437BD465DF8047B704780B485B000AFAA
:100D580078600B467B8013467B700023FB607B88A2
:100D6800DBB2FB600122FB6802FA03F3FB607B78CD
:100D7800002B06D07B685A68FB681A437B685A6068
:100D880006E07B685A68FB68DB431A407B685A6058
:100D980000BF1437BD465DF8047B704780B485B04A
:100DA80000AF78600B46FB700023FB737B681A6802
:100DB800FB781340002B02D00123FB7301E00023D2
:100DC800FB73FB7B18461437BD465DF8047B704700
:100DD80080B483B000AF78600B46FB70FB78DA43D1
:100DE8007B681A6000BF0C37BD465DF8047B70470E
:100DF80080B487B000AF78600B467B800023FB751A
:100E080000233B610023FB607B881B0A9BB23B618C
:100E18007B685A687B88DBB2194601238B401340F4
:100E2800FB607B681A683B691340002B05D0FB68A0
:100E3800002B02D00123FB7501E00023FB75FB7D2D
:100E480018461C37BD465DF8047B704780B485B0F2
:100E580000AF78600B467B800023FB737B881B0AFE
:100E68009BB2FB73FB7BDA437B681A6000BF1437C5
:100E7800BD465DF8047B704780B582B000AF7860EE
:100E88007B680E4A93420AD101214FF0007007F0A7
:100E9800B5F800214FF0007007F0B0F809E0012123
:100EA8004FF0806007F0AAF800214FF0806007F04B
:100EB800A5F800BF0837BD4680BD00BF00640040EC
:100EC80080B485B000AF786039600023FB730023DD
:100ED800BB607B681B6823F002027B681A607B6832
:100EE8001B6843F001027B681A6002E0BB680133AB
:100EF800BB607B685B6803F00103012B04D0BB680F
:100F08004FF6FF729342F1D17B685B6803F00103EF
:100F1800012B02D00023FB739CE03B689B79012BDB
:100F280006D17B681B6843F080027B681A6005E085
:100F38007B681B6823F080027B681A603B68DB795A
:100F4800012B06D17B681B6843F040027B681A605E
:100F580005E07B681B6823F040027B681A603B68E9
:100F68001B7A012B06D17B681B6843F020027B6843
:100F78001A6005E07B681B6823F020027B681A6012
:100F88003B685B7A012B06D17B681B6843F0100233
:100F98007B681A6005E07B681B6823F010027B6899
:100FA8001A603B689B7A012B06D17B681B6843F06B
:100FB80008027B681A6005E07B681B6823F008025A
:100FC8007B681A603B68DB7A012B06D17B681B685B
:100FD80043F004027B681A6005E07B681B6823F015
:100FE80004027B681A603B689B789A073B68DB7849
:100FF8001B061A433B681B791B041A433B685B7941
:101008001B051A433B681B88013B1A437B68DA615E
:101018007B681B6823F001027B681A600023BB60B1
:1010280002E0BB680133BB607B685B6803F00103C7
:10103800012B04D1BB684FF6FF729342F1D17B6854
:101048005B6803F00103012B02D10023FB7301E06D
:101058000123FB73FB7B18461437BD465DF8047B00
:10106800704790B484B000AF78600023FB607B6861
:101078009B7A1A4601239340FB605A4BD3F80032FF
:10108800584A43F00103C2F80032564BD3F81C22E9
:10109800FB68DB4353491340C1F81C327B681B7B58
:1010A800002B29D14F4BD3F80C22FB68DB434D4969
:1010B8001340C1F80C327B68DB881B047A685288BD
:1010C800144648497A68927A104643EA040200F1C5
:1010D800480341F833207B689B881B047A68128890
:1010E800144640497A68927A104643EA040200F1AD
:1010F8004803DB000B445A607B681B7B012B28D11B
:10110800384BD3F80C223749FB681343C1F80C322B
:101118007B681B881B047A685288144631497A68B0
:10112800927A104643EA040200F1480341F833205A
:101138007B689B881B047A68D288144629497A6898
:10114800927A104643EA040200F14803DB000B449C
:101158005A607B68DB7A002B09D1224BD3F8042232
:10116800FB68DB431F491340C1F8043207E01D4BFD
:10117800D3F804221B49FB681343C1F804327B6887
:101188001B89002B08D1174BD3F81422FB68DB43CB
:1011980014491340C1F814327B681B89012B07D10D
:1011A800104BD3F814220F49FB681343C1F81432CB
:1011B8007B685B7B012B07D10A4BD3F81C220949BA
:1011C800FB681343C1F81C32064BD3F80032054ABA
:1011D80023F00103C2F8003200BF1037BD4690BCAF
:1011E800704700BF0064004080B483B000AF7860EF
:1011F8007B6800229A717B680022DA717B68002282
:101208001A727B6800225A727B6800229A727B6885
:101218000022DA727B6800229A707B680022DA70FA
:101228007B6803221A717B6802225A717B6801224B
:101238001A8000BF0C37BD465DF8047B704780B448
:1012480083B000AF0346FB71144BD3F80032134A46
:1012580043F00103C2F80032104BD3F800320F4AB2
:1012680023F47C5323F00E03C2F800320B4BD3F85F
:101278000022FB791B0209491343C1F80032074BCE
:10128800D3F80032054A23F00103C2F8003200BF48
:101298000C37BD465DF8047B704700BF0064004012
:1012A80080B483B000AF78600B46FB70FB78002BEE
:1012B80006D07B681B6843F480327B681A6005E0BF
:1012C8007B681B6823F480327B681A6000BF0C3788
:1012D800BD465DF8047B704780B483B000AF78608A
:1012E8000B46FB70FB78002B1ED07B681B6843F015
:1012F80080027B681A607B68D3F8843143F480727B
:101308007B68C3F884217B68D3F8943143F48072F6
:101318007B68C3F894217B68D3F8A43143F48072C6
:101328007B68C3F8A4211DE07B681B6823F080025A
:101338007B681A607B68D3F8843123F480727B68F9
:10134800C3F884217B68D3F8943123F480727B68D6
:10135800C3F894217B68D3F8A43123F480727B68A6
:10136800C3F8A42100BF0C37BD465DF8047B704765
:1013780080B485B000AF786039600023FB737B6868
:101388009B6803F08063B3F1806F02D10023FB7385
:1013980015E07B689B6803F00063B3F1006F02D12E
:1013A8000123FB730BE07B689B6803F08053B3F168
:1013B800805F02D10223FB7301E00423FB73FB7BF4
:1013C800042B00F09F80FB7B7A6818331B011344C1
:1013D8001A68FB7B02F00102796818331B010B4481
:1013E8001A603B681B7A002B13D1FB7B7A68183391
:1013F8001B01134419683B681B685B053A68527AFD
:101408001A43FB7B0A43796818331B010B441A60A3
:1014180015E0FB7B7A6818331B01134419683B6895
:101428005B68DB003A68127A13433A68527A1A43C7
:10143800FB7B0A43796818331B010B441A603B682D
:101448009B7A03F00F03DAB23B689A72FB7B7A68E7
:1014580018331B01134404331A68FB7B22F00F0274
:10146800796818331B010B4404331A60FB7B7A68D4
:1014780018331B01134404331A683B689B7A1946D6
:10148800FB7B0A43796818331B010B4404331A6049
:101498003B689B7B1A063B685B7B1B041A433B68D3
:1014A8001B7B1B021A433B68DB7A1946FB7B0A430A
:1014B80079681B010B4403F5C4731A603B689B7C75
:1014C8001A063B685B7C1B041A433B681B7C1B02A7
:1014D8001A433B68DB7B1946FB7B0A4379681B018F
:1014E8000B4403F5C6731A60FB7B7A6818331B013B
:1014F80013441A68FB7B42F00102796818331B0118
:101508000B441A60FB7B18461437BD465DF8047B14
:10151800704780B485B000AF78600B46FB7000233D
:10152800FB60FB78012B09D0022B0DD0002B11D1C9
:101538007B689A68264B1340FB600EE07B689A68CC
:10154800244B1340FB6008E07B689A68224B1340E9
:10155800FB6002E00023FB6000BFFB681F4A934268
:101568001BD01E4A934208D81D4A934212D0184AEB
:10157800934218D0002B0AD01EE01A4A93420FD08B
:10158800154A934215D0134A93420FD014E0022310
:10159800FB6014E00023FB6011E00023FB600EE019
:1015A8000023FB600BE00123FB6008E00123FB60E4
:1015B80005E00123FB6002E00023FB6000BFFB683D
:1015C800DBB218461437BD465DF8047B704700BF90
:1015D80003000004000300080000031000010008D5
:1015E800010000040000011080B483B000AF7860EF
:1015F8000B46FB70FB78012B0BD0022B10D0002B75
:1016080000D014E07B689B6843F080027B689A6096
:101618000DE07B689B6843F400427B689A6006E0B3
:101628007B689B6843F400027B689A6000BF00BF38
:101638000C37BD465DF8047B704780B485B000AFB9
:10164800F8600B467A60FB72FB7AFA681B331B0161
:1016580013441B68DBB203F00403DAB27B681A7226
:101668007B681B7A002B0BD1FB7AFA681B331B01B2
:1016780013441B685B0DC3F30A027B681A600AE017
:10168800FB7AFA681B331B0113441B68DB0823F041
:1016980060427B685A60FB7AFA681B331B0113446B
:1016A8001B68DBB203F00203DAB27B685A72FB7A7A
:1016B800FA681B331B01134404331B68DBB203F0C5
:1016C8000F03DAB27B689A72FB7AFA681B331B0144
:1016D800134404331B681B0ADAB27B68DA74FB7A9A
:1016E800FA681B01134403F5DC731B68DAB27B68E4
:1016F800DA72FB7AFA681B01134403F5DC731B6882
:101708001B0ADAB27B681A73FB7AFA681B01134466
:1017180003F5DC731B681B0CDAB27B685A73FB7A1F
:10172800FA681B01134403F5DC731B681B0EDAB25D
:101738007B689A73FB7AFA681B01134403F5DE731E
:101748001B68DAB27B68DA73FB7AFA681B01134408
:1017580003F5DE731B681B0ADAB27B681A74FB7A1E
:10176800FA681B01134403F5DE731B681B0CDAB21D
:101778007B685A74FB7AFA681B01134403F5DE731D
:101788001B681B0EDAB27B689A74FB7A002B06D1B1
:10179800FB68DB6843F02002FB68DA6005E0FB6861
:1017A8001B6943F02002FB681A6100BF1437BD466D
:1017B8005DF8047B704780B483B000AF78600B4657
:1017C800FB70FB78002B06D17B68DB6843F02002B6
:1017D8007B68DA6005E07B681B6943F020027B6860
:1017E8001A6100BF0C37BD465DF8047B704780B4B2
:1017F80085B000AF78600B46FB700023FB73FB7865
:10180800002B06D17B68DB68DBB203F00303FB73B4
:101818000BE0FB78012B06D17B681B69DBB203F078
:101828000303FB7301E00023FB73FB7B18461437AB
:10183800BD465DF8047B704780B485B000AF786022
:101848000B46FB700023FB734FF6FF73BB60FB78FE
:10185800002B20D17B681B6823F0030343F00102AF
:101868007B681A6002E0BB68013BBB607B685B6811
:1018780003F00303012B02D0BB68002BF3D17B6874
:101888005B6803F00303012B02D00023FB734AE0DB
:101898000123FB7347E0FB78012B1ED17B681B6893
:1018A80023F003027B681A6002E0BB68013BBB605F
:1018B8007B685B6803F00303002B02D0BB68002B36
:1018C800F3D17B685B6803F00303002B02D000238D
:1018D800FB7328E00123FB7325E0FB78022B20D162
:1018E8007B681B6823F0030343F002027B681A60DD
:1018F80002E0BB68013BBB607B685B6803F00303E5
:10190800022B02D0BB68002BF3D17B685B6803F025
:101918000303022B02D00023FB7304E00123FB73B3
:1019280001E00023FB73FB7B18461437BD465DF8C6
:10193800047B704780B485B000AF78600023FB73E8
:101948007B681B6823F0030343F002027B681A607C
:101958007B685B6803F00303022B01D10123FB734F
:10196800FB7B18461437BD465DF8047B704780B48E
:1019780085B000AF78604FF6FF73FB600023FB7201
:101988007B681B6823F002027B681A6002E0FB6830
:10199800013BFB607B685B6803F00203022B02D10A
:1019A800FB68002BF3D17B685B6803F00203022B12
:1019B80001D00123FB72FB7A18461437BD465DF847
:1019C800047B704780B485B000AF78600023FB7358
:1019D8007B689B69DBB203F07003FB73FB7B1846E3
:1019E8001437BD465DF8047B704780B485B000AFFE
:1019F80078600023FB737B689B691B0EFB73FB7B82
:101A080018461437BD465DF8047B704780B485B02E
:101A180000AF78600023FB737B689B691B0CFB732A
:101A2800FB7B18461437BD465DF8047B704780B4CD
:101A380085B000AFF860B9601346FB71FB79002BE5
:101A480006D0FB685A69BB681A43FB685A6106E00E
:101A5800FB685A69BB68DB431A40FB685A6100BFE0
:101A68001437BD465DF8047B704780B485B000AF7D
:101A7800786039600023FB733B6803F47003002B24
:101A88000DD07B689A693B681340C3F31303002B9E
:101A980002D00123FB7348E00023FB7345E03B6859
:101AA80003F08073002B0DD07B685A683B681340A5
:101AB800C3F31303002B02D00123FB7335E000238B
:101AC800FB7332E03B6803F00063002B0DD07B68AA
:101AD8009A683B681340C3F31303002B02D0012319
:101AE800FB7322E00023FB731FE03B6803F00073E5
:101AF800002B0DD07B68DA683B681340C3F31303EF
:101B0800002B02D00123FB730FE00023FB730CE0D2
:101B18007B681A693B681340C3F31303002B02D098
:101B28000123FB7301E00023FB73FB7B184614378A
:101B3800BD465DF8047B704780B485B000AF78601F
:101B480039600023FB603B68174A934203D17B68E6
:101B580000229A6121E03B68C3F31303FB603B68F2
:101B680003F00073002B03D07B68FA68DA6014E096
:101B78003B6803F08063002B03D07B68FA681A6126
:101B88000BE03B6803F00063002B03D07B68FA6826
:101B98009A6002E07B68FA685A6000BF1437BD4655
:101BA8005DF8047B704700BF7000F03080B584B0EA
:101BB80000AF786039600023FB737B685A693B6823
:101BC8001340002B00F0B2803B68402B62D0402BC2
:101BD8000FD8042B3AD0042B04D8012B24D0022B85
:101BE8002BD09FE0102B43D0202B4AD0082B36D087
:101BF80098E0B3F5006F00F08380B3F5006F09D863
:101C0800B3F5007F6AD0B3F5806F70D0B3F5807FED
:101C18005BD087E0B3F5803F45D0B3F5003F4BD0AC
:101C2800B3F5004F75D07DE07B689B684349184643
:101C380000F0F6F80346FB737AE07B68DB68032163
:101C4800184600F0EDF80346FB7371E07B68DB682B
:101C58000821184600F0E4F80346FB7368E07B6847
:101C6800DB681021184600F0DBF80346FB735FE0E1
:101C78007B681B690321184600F0D2F80346FB7302
:101C880056E07B681B690821184600F0C9F803462E
:101C9800FB734DE07B681B691021184600F0C0F803
:101CA8000346FB7344E07B685B680821184600F034
:101CB800B7F80346FB733BE07B685B681021184666
:101CC80000F0AEF80346FB7332E07B689B690121A4
:101CD800184600F0A5F80346FB7329E07B689B696A
:101CE8000221184600F09CF80346FB7320E07B684D
:101CF8009B690421184600F093F80346FB7317E02C
:101D08007B689B697021184600F08AF80346FB73CC
:101D18000EE07B685B680421184600F081F80346F2
:101D2800FB7305E00023FB7300BF01E00023FB7396
:101D3800FB7B18461037BD4680BD00BF010101007E
:101D480080B483B000AF786039603B68B3F5807FBA
:101D580043D0B3F5807F0DD8082B2AD0082B04D8A0
:101D6800012B1ED0042B20D051E0202B25D0402B56
:101D780027D04CE0B3F5006F3BD0B3F5006F06D821
:101D8800B3F5007F2DD0B3F5806F2ED03FE0B3F5CB
:101D9800803F1AD0B3F5003F1BD0B3F5004F2FD0CA
:101DA80035E07B681D4A9A6031E07B680822DA607A
:101DB8002DE07B681022DA6029E07B6808221A612E
:101DC80025E07B6810221A6121E07B6808225A60AE
:101DD8001DE07B6810225A6019E07B6804225A6073
:101DE80015E07B6804225A6011E07B6804225A607F
:101DF8000DE07B6800229A617B6804225A6006E045
:101E08007B6800229A617B6804225A6000BF00BF89
:101E18000C37BD465DF8047B704700BF0101010027
:101E280080B485B000AF786039600023FB737A68AE
:101E38003B681340002B02D00123FB7301E0002311
:101E4800FB73FB7B18461437BD465DF8047B70476F
:101E580080B400AF034B01229A6000BFBD465DF815
:101E6800047B70470030024080B483B000AF7860D4
:101E7800054A7B681360044B1B6818460C37BD463F
:101E88005DF8047B704700BF0030024080B485B025
:101E980000AF786039600023FB600023FB6009E035
:101EA800FB689B007A681344084A1B681360FB6848
:101EB8000133FB60FA683B689A42F1D3034B1B6815
:101EC80018461437BD465DF8047B70470030024061
:101ED80080B400AF034B1B681846BD465DF8047B11
:101EE800704700BF0030024080B483B000AF0346A3
:101EF800FB71044AFB79137100BF0C37BD465DF8CE
:101F0800047B70470030024080B400AF034B1B795C
:101F1800DBB21846BD465DF8047B704700300240CE
:101F280080B500AF0121102006F028F8002110200C
:101F380006F024F800BF80BD80B483B000AF78609D
:101F4800264B1B68254A23F038031360234B1B6874
:101F58007A6852881146214A0B4313601F4B1B684D
:101F68001E4A23F0C00313601C4B1B687A689288D2
:101F780011461A4A0B4313607B685B88202B0BD0F1
:101F88007B685B88282B07D07B685B88302B03D065
:101F98007B685B88382B0DD1104B1B680F4A23F4E4
:101FA800407313600D4B1B687A68D28811460B4A40
:101FB8000B431360094B1B68084A23F004031360A2
:101FC800064B1B687A6812881146044A0B43136053
:101FD80000BF0C37BD465DF8047B70470000065013
:101FE80080B483B000AF78607B6800221A807B6879
:101FF80000225A807B6800229A807B680022DA805F
:1020080000BF0C37BD465DF8047B704780B483B0D1
:1020180000AF7860124A7B681B681362104A7B68BD
:102028005B6853620E4A7B689B6893620C4A7B68C4
:10203800DB68D3620A4A7B681B691363084A7B68BA
:102048005B695363064A7B689B699363044A7B68B0
:10205800DB69D36300BF0C37BD465DF8047B70476E
:102068000000065080B483B000AF78607B6800221F
:102078001A607B6800225A607B6800229A607B683D
:102088000022DA607B6800221A617B6800225A61AC
:102098007B6800229A617B680022DA6100BF0C37F6
:1020A800BD465DF8047B704780B483B000AF7860AC
:1020B8000A4A7B681B681364084A7B685B68536438
:1020C800064A7B689B689364044A7B68DB68D36430
:1020D80000BF0C37BD465DF8047B70470000065012
:1020E80080B483B000AF78607B6800221A607B6898
:1020F80000225A607B6800229A607B680022DA60BE
:1021080000BF0C37BD465DF8047B704780B400AF54
:10211800054B1B68044A43F48043136000BFBD4667
:102128005DF8047B704700BF0000065080B483B0A0
:1021380000AF0346FB71FB79002B06D0094B1B68E7
:10214800084A43F40043136005E0064B1B68054A40
:1021580023F40043136000BF0C37BD465DF8047BD1
:10216800704700BF0000065080B483B000AF7860AD
:10217800044A7B68936000BF0C37BD465DF8047B5A
:10218800704700BF0000065080B400AF034BDB6807
:102198001846BD465DF8047B704700BF0000065036
:1021A80080B487B000AF786039600023BB6000233B
:1021B8007B610023FB743A4B1B69394A23F0010306
:1021C8001361374B1B6803F00803002B02D011235F
:1021D8007B6101E015237B61314B5B687A691340B1
:1021E800FB60BB680133BB60BB684FF6FF7293426C
:1021F80002D0FB68012BEFD1294B5A687B69134049
:10220800012B02D00023FB7443E0254B1B69244AB1
:1022180023F002031361224B1B68214A23F4004375
:1022280013601F4B1B6803F47F727B681A601C4B9A
:102238001A6C7B685A601A4B5A6C7B689A60184B08
:102248009A6C7B68DA60164BDA6C7B681A613B68BB
:102258001A687B685A613B685A687B689A613B6870
:102268009A687B68DA613B68DA687B681A623B685F
:102278001A697B685A623B685A697B689A623B684C
:102288009A697B68DA623B68DA697B681A630123BA
:10229800FB74FB7C18461C37BD465DF8047B704711
:1022A8000000065080B483B000AF78601F4A7B6896
:1022B8001B6813601D4A7B685B6913621B4A7B6855
:1022C8009B695362194A7B68DB699362174A7B688A
:1022D8001B6AD362154A7B685B6A1363134A7B687F
:1022E8009B6A5363114A7B68DB6A93630F4A7B6876
:1022F8001B6BD3630D4A7B685B6813640B4A7B686E
:102308009B685364094A7B68DB689364074A7B6867
:102318001B69D364054B1B68044A43F400431360EC
:1023280000BF0C37BD465DF8047B704700000650BF
:1023380080B483B000AF03460A46FB711346BB71F5
:10234800BB79002B06D00B4B1A69FB79094913435B
:102358000B6108E0074B1B69FA79D243D2B21146E8
:10236800044A0B40136100BF0C37BD465DF8047B7F
:10237800704700BF0000065080B483B000AF03462A
:102388000A46FB711346BB71BB79002B06D00B4B79
:102398005A69FB79094913434B6108E0074B5B69AC
:1023A800FA79D243D2B21146044A0B40536100BFB6
:1023B8000C37BD465DF8047B704700BF000006502F
:1023C80080B485B000AF0346FB710023FB73094B53
:1023D800DA69FB791340002B02D00123FB7301E07B
:1023E8000023FB73FB7B18461437BD465DF8047B5E
:1023F800704700BF0000065080B485B000AF0346A8
:10240800FB710023FB730023BB60FB7903F02003FF
:10241800002B03D00B4B9B69BB6002E0094B5B6848
:10242800BB60FA79BB681340002B02D00123FB7311
:1024380001E00023FB73FB7B18461437BD465DF8AB
:10244800047B70470000065090B5BBB000AFB96080
:102458007B600346FB731346BB8100237B6100232B
:10246800C7F8D430012387F8E730BB68C7F8D03005
:102478007B68C7F8E030D7F8FC30C7F8DC300023B9
:10248800C7F8D83007F118031846FFF7EBFDBB89EA
:10249800C02B4CD0B3F5807F00F0B480802B00D0E7
:1024A8001FE10023FB87D7F8D0301B68C7F8B4308A
:1024B800D7F8B4301BBAC7F8B030D7F8B030BB6221
:1024C800D7F8D0300433C7F8D030D7F8D0301B68ED
:1024D800C7F8BC30D7F8BC301BBAC7F8B830D7F843
:1024E800B830FB62D7F8D0300433C7F8D030D7F80B
:1024F800D0301B68C7F8C430D7F8C4301BBAC7F847
:10250800C030D7F8C0303B63D7F8D0300433C7F8B1
:10251800D030D7F8D0301B68C7F8CC30D7F8CC30DB
:102528001BBAC7F8C830D7F8C8307B63D9E04FF476
:102538008073FB87D7F8D0301B68C7F88430D7F88A
:1025480084301BBAC7F88030D7F880303B62D7F8A0
:10255800D0300433C7F8D030D7F8D0301B68C7F86C
:102568008C30D7F88C301BBAC7F88830D7F8883049
:102578007B62D7F8D0300433C7F8D030D7F8D030E2
:102588001B68C7F89430D7F894301BBAC7F8903056
:10259800D7F89030BB62D7F8D0300433C7F8D030C2
:1025A800D7F8D0301B68C7F89C30D7F89C301BBAD6
:1025B800C7F89830D7F89830FB62D7F8D030043392
:1025C800C7F8D030D7F8D0301B68C7F8A430D7F890
:1025D800A4301BBAC7F8A030D7F8A0303B63D7F8AF
:1025E800D0300433C7F8D030D7F8D0301B68C7F8DC
:1025F800AC30D7F8AC301BBAC7F8A830D7F8A83039
:102608007B636EE04FF40073FB87D7F8D0301B680C
:102618007B647B6C1BBA3B643B6CBB61D7F8D030E6
:102628000433C7F8D030D7F8D0301B68FB64FB6C94
:102638001BBABB64BB6CFB61D7F8D0300433C7F856
:10264800D030D7F8D0301B687B657B6D1BBA3B65F3
:102658003B6D3B62D7F8D0300433C7F8D030D7F899
:10266800D0301B68FB65FB6D1BBABB65BB6D7B621D
:10267800D7F8D0300433C7F8D030D7F8D0301B683B
:102688007B667B6E1BBA3B663B6EBB62D7F8D0306D
:102698000433C7F8D030D7F8D0301B68FB66FB6E20
:1026A8001BBABB66BB6EFB62D7F8D0300433C7F8E1
:1026B800D030D7F8D0301B687B677B6F1BBA3B677D
:1026C8003B6F3B63D7F8D0300433C7F8D030D7F826
:1026D800D0301B68FB67FB6F1BBABB67BB6F7B63A4
:1026E80000BFFB7B002B30D1FFF710FD04233B8795
:1026F80038237B870023BB8707F138031846FFF789
:102708001BFC07F118031846FFF780FC0120FFF7B0
:102718000DFD1020FFF770FE0346C7F8D4307B6923
:1027280001337B617B69B3F5803F03D0D7F8D430A0
:10273800002BEED1D7F8D430002B03D0002387F834
:10274800E73009E004233B8706E007F11803184641
:10275800FFF75CFC00233B8720237B878023BB8714
:1027680007F138031846FFF7E7FBFFF7CFFC012016
:10277800FFF7DCFC0023C7F8D83077E0D7F8E03063
:102788001B681846FFF7F0FCD7F8E0300433C7F8A9
:10279800E030D7F8E0301B681846FFF7E5FCD7F8BB
:1027A800E0300433C7F8E030D7F8E0301B6818464B
:1027B800FFF7DAFCD7F8E0300433C7F8E030D7F891
:1027C800E0301B681846FFF7CFFCD7F8E030043339
:1027D800C7F8E03000237B611020FFF70DFE0346A9
:1027E800C7F8D4307B6901337B617B69B3F5803FDF
:1027F80003D0D7F8D430002BEED1D7F8D430002B43
:1028080003D0002387F8E7302BE0D7F8DC40FFF748
:10281800BBFC03462360D7F8DC300433C7F8DC3050
:10282800D7F8DC40FFF7B0FC03462360D7F8DC306C
:102838000433C7F8DC30D7F8DC40FFF7A5FC0346C3
:102848002360D7F8DC300433C7F8DC30D7F8DC4035
:10285800FFF79AFC03462360D7F8DC300433C7F847
:10286800DC30D7F8D8301033C7F8D830D7F8D820AC
:10287800D7F8F8309A4204D297F8E730002B7FF463
:102888007DAF0020FFF752FC97F8E7301846EC3789
:10289800BD4690BD90B5C7B000AF044607F108002B
:1028A8000160391D0A60194607F10F0322461A70A4
:1028B80007F10C030A461A8007F1100300221A6078
:1028C8000023C7F80431012387F817313B1D1B6823
:1028D800C7F80031D7F82831C7F81031D7F83031A8
:1028E800C7F80C3107F108031B68C7F8FC30002350
:1028F800C7F8083107F124031846FFF7B3FB07F1BF
:102908000C031B88C02B4DD0B3F5807F00F0B68038
:10291800802B00D038E10023A7F84A30D7F80031DF
:102928001B68C7F8E030D7F8E0301BBAC7F8DC30CE
:10293800D7F8DC307B63D7F800310433C7F80031AF
:10294800D7F800311B68C7F8E830D7F8E8301BBA69
:10295800C7F8E430D7F8E430BB63D7F80031043364
:10296800C7F80031D7F800311B68C7F8F030D7F83E
:10297800F0301BBAC7F8EC30D7F8EC30FB63D7F867
:1029880000310433C7F80031D7F800311B68C7F8A5
:10299800F830D7F8F8301BBAC7F8F430D7F8F43065
:1029A8003B64F1E04FF48073A7F84A30D7F8003160
:1029B8001B68C7F8B030D7F8B0301BBAC7F8AC30CE
:1029C800D7F8AC30FB62D7F800310433C7F80031D0
:1029D800D7F800311B68C7F8B830D7F8B8301BBA39
:1029E800C7F8B430D7F8B4303B63D7F800310433B4
:1029F800C7F80031D7F800311B68C7F8C030D7F8DE
:102A0800C0301BBAC7F8BC30D7F8BC307B63D7F8E6
:102A180000310433C7F80031D7F800311B68C7F814
:102A2800C830D7F8C8301BBAC7F8C430D7F8C43094
:102A3800BB63D7F800310433C7F80031D7F8003149
:102A48001B68C7F8D030D7F8D0301BBAC7F8CC30DD
:102A5800D7F8CC30FB63D7F800310433C7F800311E
:102A6800D7F800311B68C7F8D830D7F8D8301BBA68
:102A7800C7F8D430D7F8D4303B6485E04FF40073FE
:102A8800A7F84A30D7F800311B683B673B6F1BBA81
:102A9800FB66FB6E7B62D7F800310433C7F8003160
:102AA800D7F800311B68BB67BB6F1BBA7B677B6FAE
:102AB800BB62D7F800310433C7F80031D7F80031CA
:102AC8001B68C7F88030D7F880301BBAFB67FB6FEC
:102AD800FB62D7F800310433C7F80031D7F800316A
:102AE8001B68C7F88830D7F888301BBAC7F8843015
:102AF800D7F884303B63D7F800310433C7F8003186
:102B0800D7F800311B68C7F89030D7F890301BBA57
:102B1800C7F88C30D7F88C307B63D7F80031043392
:102B2800C7F80031D7F800311B68C7F89830D7F8D4
:102B380098301BBAC7F89430D7F89430BB63D7F8ED
:102B480000310433C7F80031D7F800311B68C7F8E3
:102B5800A030D7F8A0301BBAC7F89C30D7F89C3003
:102B6800FB63D7F800310433C7F80031D7F80031D8
:102B78001B68C7F8A830D7F8A8301BBAC7F8A43024
:102B8800D7F8A4303B6400BFD7F8FC301B683B651E
:102B98003B6D1BBAFB64FA6C07F114031A60D7F893
:102BA800FC300433C7F8FC30D7F8FC301B68BB6531
:102BB800BB6D1BBA7B657A6D07F114035A60D7F8B1
:102BC800FC300433C7F8FC30D7F8FC301B683B6690
:102BD8003B6E1BBAFB65FA6D07F114039A60D7F8D0
:102BE800FC300433C7F8FC30D7F8FC301B68BB66F0
:102BF800BB6E1BBA7B667A6E07F11403DA6007F1C5
:102C08000F031B78002B3AD1FFF780FA0423A7F8AB
:102C180044303823A7F846300023A7F8483007F196
:102C280044031846FFF788F907F124031846FFF70D
:102C3800EDF90120FFF77AFA1020FFF7DDFB0346D4
:102C4800C7F8043107F110031B685A1C07F1100379
:102C58001A6007F110031B68B3F5803F03D0D7F85B
:102C68000431002BE8D1D7F80431002B03D000231E
:102C780087F817310BE00423A7F8443007E007F181
:102C880024031846FFF7C2F90023A7F84430282385
:102C9800A7F846308023A7F8483007F144031846C0
:102CA800FFF74AF907F114031846FFF7FDF9FFF794
:102CB8002DFA0120FFF73AFA0023C7F808317FE020
:102CC800D7F810311B681846FFF74EFAD7F81031BD
:102CD8000433C7F81031D7F810311B681846FFF7CE
:102CE80043FAD7F810310433C7F81031D7F8103148
:102CF8001B681846FFF738FAD7F810310433C7F8BD
:102D08001031D7F810311B681846FFF72DFAD7F89D
:102D180010310433C7F8103107F1100300221A608C
:102D28001020FFF769FB0346C7F8043107F11003C9
:102D38001B685A1C07F110031A6007F110031B687F
:102D4800B3F5803F03D0D7F80431002BE8D1D7F88A
:102D58000431002B03D0002387F817312BE0D7F874
:102D68000C41FFF711FA03462360D7F80C310433FE
:102D7800C7F80C31D7F80C41FFF706FA0346236071
:102D8800D7F80C310433C7F80C31D7F80C41FFF7EA
:102D9800FBF903462360D7F80C310433C7F80C312C
:102DA800D7F80C41FFF7F0F903462360D7F80C3148
:102DB8000433C7F80C31D7F808311033C7F8083195
:102DC800D7F80821D7F82C319A4204D297F817314E
:102DD800002B7FF475AF0020FFF7A8F997F817319B
:102DE800184607F58E77BD4690BD90B5C7B000AFC1
:102DF800044607F108000160391D0A60194607F109
:102E08000F0322461A7007F10C030A461A8007F1CD
:102E1800100300221A600023C7F80431012387F841
:102E280017313B1D1B68C7F80031D7F82831C7F8A0
:102E38001031D7F83031C7F80C3107F108031B6897
:102E4800C7F8FC300023C7F8083107F124031846F7
:102E5800FFF708F907F10C031B88C02B4DD0B3F519
:102E6800807F00F0B680802B00D038E10023A7F8DF
:102E78004A30D7F800311B68C7F8E030D7F8E0309F
:102E88001BBAC7F8DC30D7F8DC307B63D7F80031E1
:102E98000433C7F80031D7F800311B68C7F8E830A9
:102EA800D7F8E8301BBAC7F8E430D7F8E430BB638A
:102EB800D7F800310433C7F80031D7F800311B6860
:102EC800C7F8F030D7F8F0301BBAC7F8EC30D7F8AD
:102ED800EC30FB63D7F800310433C7F80031D7F87A
:102EE80000311B68C7F8F830D7F8F8301BBAC7F8B4
:102EF800F430D7F8F4303B64F1E04FF48073A7F86E
:102F08004A30D7F800311B68C7F8B030D7F8B0306E
:102F18001BBAC7F8AC30D7F8AC30FB62D7F8003131
:102F28000433C7F80031D7F800311B68C7F8B83048
:102F3800D7F8B8301BBAC7F8B430D7F8B4303B6309
:102F4800D7F800310433C7F80031D7F800311B68CF
:102F5800C7F8C030D7F8C0301BBAC7F8BC30D7F8AC
:102F6800BC307B63D7F800310433C7F80031D7F899
:102F780000311B68C7F8C830D7F8C8301BBAC7F883
:102F8800C430D7F8C430BB63D7F800310433C7F86E
:102F98000031D7F800311B68C7F8D030D7F8D030E7
:102FA8001BBAC7F8CC30D7F8CC30FB63D7F8003160
:102FB8000433C7F80031D7F800311B68C7F8D83098
:102FC800D7F8D8301BBAC7F8D430D7F8D4303B6418
:102FD80085E04FF40073A7F84A30D7F800311B6832
:102FE8003B673B6F1BBAFB66FB6E7B62D7F8003111
:102FF8000433C7F80031D7F800311B68BB67BB6FD3
:103008001BBA7B677B6FBB62D7F800310433C7F804
:103018000031D7F800311B68C7F88030D7F8803006
:103028001BBAFB67FB6FFB62D7F800310433C7F8A4
:103038000031D7F800311B68C7F88830D7F88830D6
:103048001BBAC7F88430D7F884303B63D7F800310F
:103058000433C7F80031D7F800311B68C7F890303F
:10306800D7F890301BBAC7F88C30D7F88C307B6310
:10307800D7F800310433C7F80031D7F800311B689E
:10308800C7F89830D7F898301BBAC7F89430D7F8F3
:103098009430BB63D7F800310433C7F80031D7F850
:1030A80000311B68C7F8A030D7F8A0301BBAC7F8A2
:1030B8009C30D7F89C30FB63D7F800310433C7F84D
:1030C8000031D7F800311B68C7F8A830D7F8A83006
:1030D8001BBAC7F8A430D7F8A4303B6400BFD7F8B0
:1030E800FC301B683B653B6D1BBAFB64FA6C07F14F
:1030F80014031A60D7F8FC300433C7F8FC30D7F84B
:10310800FC301B68BB65BB6D1BBA7B657A6D07F12C
:1031180014035A60D7F8FC300433C7F8FC30D7F8EA
:10312800FC301B683B663B6E1BBAFB65FA6D07F10A
:1031380014039A60D7F8FC300433C7F8FC30D7F88A
:10314800FC301B68BB66BB6E1BBA7B667A6E07F1E8
:103158001403DA6007F124031846FEF757FF07F156
:103168000F031B78002B03D10423A7F8443002E097
:103178000023A7F844303023A7F846308023A7F867
:10318800483007F144031846FEF7D6FE07F114034A
:103198001846FEF789FFFEF7B9FF0120FEF7C6FFC4
:1031A8000023C7F808317FE0D7F810311B681846AC
:1031B800FEF7DAFFD7F810310433C7F81031D7F823
:1031C80010311B681846FEF7CFFFD7F810310433CB
:1031D800C7F81031D7F810311B681846FEF7C4FF3E
:1031E800D7F810310433C7F81031D7F810311B68FD
:1031F8001846FEF7B9FFD7F810310433C7F8103175
:1032080007F1100300221A601020FFF7F5F80346B3
:10321800C7F8043107F110031B685A1C07F11003A3
:103228001A6007F110031B68B3F5803F03D0D7F885
:103238000431002BE8D1D7F80431002B03D0002348
:1032480087F817312BE0D7F80C41FEF79DFF0346AE
:103258002360D7F80C310433C7F80C31D7F80C4188
:10326800FEF792FF03462360D7F80C310433C7F802
:103278000C31D7F80C41FEF787FF03462360D7F8D7
:103288000C310433C7F80C31D7F80C41FEF77CFF3A
:1032980003462360D7F80C310433C7F80C31D7F84C
:1032A80008311033C7F80831D7F80821D7F82C317E
:1032B8009A4204D297F81731002B7FF475AF00209B
:1032C800FEF734FF97F81731184607F58E77BD4695
:1032D80090BD90B59BB000AFB9607A603B60034683
:1032E800FB7300237B6100237B65012387F867302C
:1032F800BB683B657B683B66BB6FFB650023BB65B2
:1033080007F118031846FEF7ADFEFB7B012B02D12F
:1033180000233B8701E004233B8710237B8780231E
:10332800BB8707F138031846FEF706FE3B6D1B689E
:103338007B647B6C1BBA3B643B6C3B623B6D043328
:103348003B653B6D1B68FB64FB6C1BBABB64BB6CC9
:103358007B6207F118031846FEF758FEFEF7D6FE03
:103368000120FEF7E3FE0023BB653AE03B6E1B68D5
:103378001846FEF7F9FE3B6E04333B663B6E1B684E
:103388001846FEF7F1FE3B6E04333B6600237B6173
:103398001020FFF731F803467B657B6901337B61B9
:1033A8007B69B3F5803F02D07B6D002BF0D17B6D3C
:1033B800002B03D0002387F867300FE0FC6DFEF781
:1033C800E3FE03462360FB6D0433FB65FC6DFEF7EB
:1033D800DBFE03462360FB6D0433FB65BB6D0833DE
:1033E800BB65BA6D3B689A4203D297F86730002BE9
:1033F800BCD10020FEF79AFE97F8673018466C3764
:10340800BD4690BD90B5A3B000AFB9607A603B608F
:103418000346FB7300233B6100237B67012387F886
:103428008730BB683B673B68C7F88030D7F89C306B
:10343800FB677B68FB660023BB6707F1240318461C
:10344800FEF710FEFB7B012B03D10023A7F84430C5
:1034580002E00423A7F844301823A7F84630802355
:10346800A7F8483007F144031846FEF765FD3B6F9F
:103478001B683B653B6D1BBAFB64FB6CFB623B6FD7
:1034880004333B673B6F1B68BB65BB6D1BBA7B6531
:103498007B6D3B6307F124031846FEF7B7FDFB6E0F
:1034A8001B683B663B6E1BBAFB65FB6D7B61FB6E65
:1034B8000433FB66FB6E1B68BB66BB6E1BBA7B6680
:1034C8007B6EBB6107F114031846FEF7EDFDFEF7AE
:1034D8001DFE0120FEF72AFE0023BB6740E0D7F857
:1034E80080301B681846FEF73FFED7F8803004335B
:1034F800C7F88030D7F880301B681846FEF734FECE
:10350800D7F880300433C7F8803000233B6110209F
:10351800FEF772FF03467B673B6901333B613B69FA
:10352800B3F5803F02D07B6F002BF0D17B6F002B6F
:1035380003D0002387F887300FE0FC6FFEF724FEE6
:1035480003462360FB6F0433FB67FC6FFEF71CFE2A
:1035580003462360FB6F0433FB67BB6F0833BB670D
:10356800BA6FD7F898309A4203D297F88730002B71
:10357800B5D10020FEF7DAFD97F8873018468C376A
:10358800BD4690BD90B5A3B000AFB9607A603B600E
:103598000346FB7300237B6100237B67012387F8C5
:1035A8008730BB683B677B68C7F88030D7F89830AE
:1035B800FB670023BB6707F118031846FEF752FDA7
:1035C800FB7B012B02D100233B8701E004233B87CF
:1035D80000237B878023BB8707F138031846FEF753
:1035E800ABFC3B6F1B687B647B6C1BBA3B643B6C1E
:1035F8003B623B6F04333B673B6F1B68FB64FB6CB0
:103608001BBABB64BB6C7B623B6F04333B673B6F8D
:103618001B687B657B6D1BBA3B653B6DBB623B6F73
:1036280004333B673B6F1B68FB65FB6D1BBABB65CF
:10363800BB6DFB623B6F04333B673B6F1B687B666C
:103648007B6E1BBA3B663B6E3B633B6F04333B6749
:103658003B6F1B68FB66FB6E1BBABB66BB6E7B636E
:1036680007F118031846FEF7D1FCFEF74FFD0120BD
:10367800FEF75CFD0023BB6740E0D7F880301B688D
:103688001846FEF771FDD7F880300433C7F880304C
:10369800D7F880301B681846FEF766FDD7F88030EB
:1036A8000433C7F8803000237B611020FEF7A4FEA6
:1036B80003467B677B6901337B617B69B3F5803F98
:1036C80002D07B6F002BF0D17B6F002B03D000233F
:1036D80087F887300FE0FC6FFEF756FD034623603E
:1036E800FB6F0433FB67FC6FFEF74EFD0346236058
:1036F800FB6F0433FB67BB6F0833BB67BA6F3B686C
:103708009A4203D297F88730002BB6D10020FEF7F3
:103718000DFD97F8873018468C37BD4690BD90B59B
:10372800ABB000AFB9607A603B600346FB7300231F
:103738003B610023C7F89430012387F8A730BB68A2
:10374800C7F890303B68C7F8A030D7F8BC30C7F846
:103758009C307B68C7F88C300023C7F8983007F195
:1037680024031846FEF77EFCFB7B012B03D10023C4
:10377800A7F8443002E00423A7F844300823A7F848
:1037880046308023A7F8483007F144031846FEF76F
:10379800D3FBD7F890301B683B653B6D1BBAFB64C5
:1037A800FB6CFB62D7F890300433C7F89030D7F839
:1037B80090301B68BB65BB6D1BBA7B657B6D3B633B
:1037C800D7F890300433C7F89030D7F890301B689A
:1037D8003B663B6E1BBAFB65FB6D7B63D7F890308D
:1037E8000433C7F89030D7F890301B68BB66BB6EBF
:1037F8001BBA7B667B6EBB63D7F890300433C7F87F
:103808009030D7F890301B683B673B6F1BBAFB665C
:10381800FB6EFB63D7F890300433C7F89030D7F8C5
:1038280090301B68BB67BB6F1BBA7B677B6F3B64C1
:1038380007F124031846FEF7E9FBD7F88C301B681C
:10384800C7F88030D7F880301BBAFB67FB6F7B6105
:10385800D7F88C300433C7F88C30D7F88C301B6815
:10386800C7F88830D7F888301BBAC7F88430D7F83B
:103878008430BB6107F114031846FEF715FCFEF708
:1038880045FC0120FEF752FC0023C7F898304BE0B6
:10389800D7F8A0301B681846FEF766FCD7F8A030AA
:1038A8000433C7F8A030D7F8A0301B681846FEF7D5
:1038B8005BFCD7F8A0300433C7F8A03000233B6185
:1038C8001020FEF799FD0346C7F894303B69013391
:1038D8003B613B69B3F5803F03D0D7F89430002BA8
:1038E800EED1D7F89430002B03D0002387F8A73007
:1038F80015E0D7F89C40FEF747FC03462360D7F84D
:103908009C300433C7F89C30D7F89C40FEF73CFC49
:1039180003462360D7F89C300433C7F89C30D7F8A7
:1039280098300833C7F89830D7F89820D7F8B830C7
:103938009A4203D297F8A730002BA9D10020FEF7AE
:10394800F5FB97F8A7301846AC37BD4690BD000088
:1039580080B500AF01214FF0005004F04FFB00216B
:103968004FF0005004F04AFB00BF80BD80B485B022
:1039780000AF786039600023FB600023BB60144B04
:103988001B68FB6040F6FE727B6802FA03F3DB43B8
:10399800FA681340FB603B681A683B685B681A4327
:1039A8003B689B681A433B68DB681343BB60BA6893
:1039B8007B6802FA03F3FA681343FB60044AFB6866
:1039C800136000BF1437BD465DF8047B704700BF25
:1039D8000074004080B483B000AF78607B68002238
:1039E8001A607B6800225A607B6800229A607B68B4
:1039F8000022DA6000BF0C37BD465DF8047B7047D3
:103A080080B483B000AF78600B46FB70FB78002B66
:103A180009D00D4B1A6801217B6801FA03F30A49A2
:103A280013430B6009E0084B1A6801217B6801FA0F
:103A380003F3DB43044913400B6000BF0C37BD465A
:103A48005DF8047B704700BF0074004080B483B009
:103A580000AF78600B46FB70FB78002B0AD00E4B4A
:103A68005A687B681B09012101FA03F30A491343C9
:103A78004B600AE0084B5A687B681B09012101FA70
:103A880003F3DB43044913404B6000BF0C37BD46CA
:103A98005DF8047B704700BF0074004080B483B0B9
:103AA80000AF0346FB71FB79002B06D0094B5B681E
:103AB800084A43F00303536005E0064B5B68054A78
:103AC80023F00303536000BF0C37BD465DF8047B49
:103AD800704700BF0074004080B485B000AFF86044
:103AE800B9601346FB71FB79002B09D00C4B1A689F
:103AF800B968FB6801FA03F3094913430B6009E04D
:103B0800074B1A68B968FB6801FA03F3DB430449F9
:103B180013400B6000BF1437BD465DF8047B704747
:103B28000074004080B485B000AF78600B467B809D
:103B38000023FB60084BFB60FA687B68134408337A
:103B4800FB60FB681A467B88136000BF1437BD46CC
:103B58005DF8047B704700BF0074004080B485B0F6
:103B680000AF78600B467B800023FB60084BFB604E
:103B7800FA687B6813441433FB60FB681A467B8839
:103B8800136000BF1437BD465DF8047B704700BF63
:103B98000074004080B485B000AF78600B467B802D
:103BA80013463B800023FB600023BB607B68082B27
:103BB80005D17B881A023B881343FB6004E07B88AD
:103BC8001A043B881343FB60074BBB607A68BB68E9
:103BD80013442033BB60BB68FA681A6000BF14370F
:103BE800BD465DF8047B70470074004080B485B022
:103BF80000AF78600023FB60084BFB607B689A0885
:103C0800FB6813442C33FB60FB681B689BB21846A7
:103C18001437BD465DF8047B704700BF0074004050
:103C280080B483B000AF78600B46FB70FB78002B44
:103C38000AD00E4B1A684FF480517B6801FA03F3DF
:103C48000A4913430B600AE0084B1A684FF4805185
:103C58007B6801FA03F3DB43044913400B6000BFA0
:103C68000C37BD465DF8047B704700BF0074004008
:103C780080B485B000AFF860B9601346FB71FB797A
:103C8800002B09D00C4B1A68B968FB6801FA03F3DA
:103C9800094913430B6009E0074B1A68B968FB68C8
:103CA80001FA03F3DB43044913400B6000BF1437E8
:103CB800BD465DF8047B70470074004080B485B051
:103CC80000AF786039600023FB730A4B5A6B396880
:103CD8007B6801FA03F31340002B02D00123FB7326
:103CE80001E00023FB73FB7B18461437BD465DF8E3
:103CF800047B70470074004080B483B000AF7860E4
:103D0800396006493A687B6802FA03F34B6300BFDF
:103D18000C37BD465DF8047B704700BF0074004057
:103D280080B485B000AF786039600023FB7300234E
:103D3800BB60104B1A6839687B6801FA03F31340BB
:103D4800BB600C4B5A6B39687B6801FA03F313406C
:103D5800002B05D0BB68002B02D00123FB7301E0C8
:103D68000023FB73FB7B18461437BD465DF8047BC4
:103D7800704700BF0074004080B483B000AF786023
:103D8800396006493A687B6802FA03F34B6300BF5F
:103D98000C37BD465DF8047B704700BF00740040D7
:103DA80080B400AF034B1B681B0C1846BD465DF87A
:103DB800047B7047002004E080B400AF044B1B680C
:103DC800C3F30B031846BD465DF8047B704700BF7C
:103DD800002004E080B483B000AF78600B46FB702D
:103DE800FB78002B06D00A4B5A6809497B681343B5
:103DF8004B6006E0064B5A687B68DB430449134076
:103E08004B6000BF0C37BD465DF8047B704700BFB0
:103E1800002004E080B483B000AF78600B46FB70EC
:103E2800FB78002B06D00A4B9A6809497B68134334
:103E38008B6006E0064B9A687B68DB4304491340B5
:103E48008B6000BF0C37BD465DF8047B704700BF30
:103E5800002004E080B483B000AF78600B46FB70AC
:103E6800FB78002B06D00A4BDA6809497B681343B4
:103E7800CB6006E0064BDA687B68DB4304491340F5
:103E8800CB6000BF0C37BD465DF8047B704700BFB0
:103E9800002004E080B400AF0C4B00221A600B4BEA
:103EA8000022DA60094B1F225A61084B00229A61EE
:103EB800064B0022DA61054B00221A62034B0022EE
:103EC8005A6200BFBD465DF8047B7047000005508C
:103ED80080B485B000AF78600023FB601B4B1B6883
:103EE8001A4A23F4804323F001031360174B1B681D
:103EF800FB60FB6823F47F6323F00203FB607B68AD
:103F08001A887B685B8813439AB27B689B88134343
:103F18009AB27B68DB8813439AB27B681B89134388
:103F28009AB27B685B8913439AB27B689B89134377
:103F38009BB21A46FB681343FB60044AFB68136094
:103F480000BF1437BD465DF8047B7047000005507C
:103F580080B483B000AF78607B6800221A807B68E9
:103F680000225A807B6800229A807B680022DA80CF
:103F78007B6800221A817B6800225A817B680022B4
:103F88009A8100BF0C37BD465DF8047B704780B44A
:103F980083B000AF78607B685B8819467B681B88B4
:103FA8001B04094A0B4313627B68DB8819467B684C
:103FB8009B881B04044A0B43536200BF0C37BD4661
:103FC8005DF8047B704700BF0000055080B483B0E3
:103FD80000AF0346FB71FB79002B06D0094B1B6829
:103FE800084A43F00403136005E0064B1B68054AC2
:103FF80023F00403136000BF0C37BD465DF8047B53
:10400800704700BF0000055080B483B000AF7860EF
:104018007B681B781A467B685B781B021A437B68AF
:104028009B781B041A437B68DB781B0604491343FF
:104038008B6100BF0C37BD465DF8047B704700BF3D
:104048000000055080B483B000AF0346FB71FB79D4
:10405800002B06D0094B1B68084A43F0080313607D
:1040680005E0064B1B68054A23F00803136000BFF0
:104078000C37BD465DF8047B704700BF0000055053
:1040880080B483B000AF0346FB71FB79002B06D0E8
:10409800094B1B68084A43F48043136005E0064B4C
:1040A8001B68054A23F48043136000BF0C37BD46E4
:1040B8005DF8047B704700BF0000055080B483B0F2
:1040C80000AF0346FB71FB79002B06D0094B1B6838
:1040D800084A43F00103136005E0064B1B68054AD4
:1040E80023F00103136000BF0C37BD465DF8047B65
:1040F800704700BF0000055080B400AF034B9B6AB7
:104108001846BD465DF8047B704700BF00000550A7
:1041180080B483B000AF03460A46FB8013467B7128
:104128007B79002B06D00B4BDA68FB8809491343CF
:10413800CB6008E0074BDB68FA88D24392B211469D
:10414800044A0B40D36000BF0C37BD465DF8047BC2
:10415800704700BF0000055080B487B000AF034629
:10416800FB800023FB7500233B61FB881B0B9BB284
:10417800FB60FB68012B03D10F4B9B683B6109E097
:10418800FB68022B03D10C4B5B683B6102E00A4BD6
:104198001B693B61FA883B691340002B02D001235D
:1041A800FB7501E00023FB75FB7D18461C37BD46F7
:1041B8005DF8047B704700BF0000055080B483B0F1
:1041C80000AF0346FB80044AFB88536100BF0C37ED
:1041D800BD465DF8047B70470000055080B485B08B
:1041E80000AF0346FB800023FB730023BB600A4B30
:1041F8001A69FB881340BB60BB68002B02D00123FF
:10420800FB7301E00023FB73FB7B18461437BD46A4
:104218005DF8047B704700BF0000055080B483B090
:1042280000AF0346FB80044AFB88536100BF0C378C
:10423800BD465DF8047B70470000055080B483B02C
:1042480000AF78607B681B6823F001027B681A6006
:104258007B6800221A607B6800225A607B68002213
:104268009A607B680022DA607B6800221A617B68AA
:1042780021225A617B68464A934203D1454B3D222D
:104288009A607EE07B68444A934204D1414B4FF4E4
:1042980074629A6075E07B68404A934204D13D4B52
:1042A8004FF474129A606CE07B683D4A934204D1E3
:1042B800384B4FF074629A6063E07B68394A9342E6
:1042C80003D1344B384ADA605BE07B68374A934263
:1042D80003D1304B364ADA6053E07B68354A934263
:1042E80003D12C4B344ADA604BE07B68334A934263
:1042F80004D1284B4FF03D52DA6042E07B68304AE7
:10430800934203D12F4B3D229A603AE07B682E4AB4
:10431800934204D12B4B4FF474629A6031E07B686E
:104328002A4A934204D1274B4FF474129A6028E02A
:104338007B68274A934204D1224B4FF074629A60FB
:104348001FE07B68234A934203D11E4B164ADA606A
:1043580017E07B68204A934203D11A4B144ADA606B
:104368000FE07B681D4A934203D1164B124ADA606C
:1043780007E07B681A4A934203D1124B4FF03D5233
:10438800DA6000BF0C37BD465DF8047B704700BF9C
:104398001060024000600240286002404060024015
:1043A80058600240706002403D0000208860024072
:1043B800400F0020A060024000003D20B86002408D
:1043C80010640240006402402864024040640240D5
:1043D800586402407064024088640240A06402404D
:1043E800B864024080B485B000AF786039600023BB
:1043F800FB607B681B68FB60FA68254B1340FB6019
:104408003B681A683B68DB681A433B685B691A4378
:104418003B689B691A433B68DB691A433B681B6A24
:104428001A433B685B6A1A433B689B6A1A433B68BA
:104438005B6B1A433B689B6B1343FA681343FB603F
:104448007B68FA681A607B685B69FB60FB6823F02D
:104458000703FB603B68DA6A3B681B6B1343FA6827
:104468001343FB607B68FA685A613B681A697B688A
:104478005A603B685A687B689A603B689A687B68B0
:10448800DA6000BF1437BD465DF8047B704700BF93
:104498003F801CF080B483B000AF78607B68002256
:1044A8001A607B6800225A607B6800229A607B68E9
:1044B8000022DA607B6800221A617B6800225A6158
:1044C8007B6800229A617B680022DA617B6800229F
:1044D8001A627B6800225A627B6800229A627B68B3
:1044E8000022DA627B6800221A637B6800225A6322
:1044F8007B6800229A6300BF0C37BD465DF8047BD9
:10450800704780B483B000AF78600B46FB70FB78CF
:10451800002B06D07B681B6843F001027B681A6099
:1045280005E07B681B6823F001027B681A6000BF06
:104538000C37BD465DF8047B704780B483B000AF8C
:10454800786039603B68002B06D07B681B6843F4B1
:1045580000427B681A6005E07B681B6823F4004210
:104568007B681A6000BF0C37BD465DF8047B704756
:1045780080B483B000AF786039603B68002B06D008
:104588007B681B6843F020027B681A6005E07B6843
:104598001B6823F020027B681A6000BF0C37BD46F9
:1045A8005DF8047B704780B483B000AF78600B4639
:1045B8007B807A887B685A6000BF0C37BD465DF8FF
:1045C800047B704780B483B000AF78607B685B6819
:1045D8009BB218460C37BD465DF8047B704780B423
:1045E80085B000AFF860B9607A607B68002B06D0B0
:1045F800FB681B6843F40022FB681A6005E0FB684F
:104608001B6823F40022FB681A60FB68BA681A6109
:1046180000BF1437BD465DF8047B704780B483B093
:1046280000AF78600B46FB70FB78002B06D07B68E8
:104638001B6843F480227B681A6005E07B681B686E
:1046480023F480227B681A6000BF0C37BD465DF8F2
:10465800047B704780B485B000AFF860B9607A60B9
:104668007B68002B03D0FB68BA681A6102E0FB681C
:10467800BA68DA6000BF1437BD465DF8047B70473E
:1046880080B485B000AF78600023FB607B681B684E
:1046980003F40023002B02D00123FB6001E0002378
:1046A800FB60FB6818461437BD465DF8047B70470D
:1046B80080B485B000AF78600023FB737B681B680B
:1046C80003F00103002B02D00123FB7301E0002358
:1046D800FB73FB7B18461437BD465DF8047B7047B7
:1046E80080B485B000AF78600023FB607B685B69AD
:1046F80003F03803FB60FB6818461437BD465DF8C5
:10470800047B704780B487B000AF786039600023BD
:10471800FB750023FB607B68154A934202D8154B52
:104728003B6101E0144B3B613B6803F00053002BF5
:1047380003D03B695B68FB6002E03B691B68FB6078
:10474800FB6823F0F02323F08213FB60FA683B68D0
:104758001340002B02D00123FB7501E00023FB75F9
:10476800FB7D18461C37BD465DF8047B704700BFCB
:104778000F640240006002400064024080B485B0CB
:1047880000AF786039607B68104A934202D8104BBA
:10479800FB6001E00F4BFB603B6803F00053002B0C
:1047A80007D03B6823F0F02323F08213FA68D36024
:1047B80006E03B6823F0F02323F08213FA68936045
:1047C80000BF1437BD465DF8047B70470F64024094
:1047D800006002400064024080B485B000AFF86019
:1047E800B9601346FB71BB6803F08003002B0FD040
:1047F800FB79002B06D0FB685B6943F08002FB68FD
:104808005A6105E0FB685B6923F08002FB685A6126
:10481800BB68802B14D0FB79002B08D0FB681A6882
:10482800BB6803F01E031A43FB681A6008E0FB68C4
:104838001A68BB6803F01E03DB431A40FB681A6062
:1048480000BF1437BD465DF8047B704780B487B05D
:1048580000AF786039600023FB750023FB600023FC
:10486800BB607B68224A934202D8224B3B6101E03D
:10487800214B3B613B6823F0F02323F0C313002B4B
:104888000AD03B68DB0A03F01E03FB607B681B68E9
:10489800FA681340BB6004E07B685B6903F080033F
:1048A800BB603B6803F00053002B03D03B695B6897
:1048B800FB6002E03B691B68FB60FB6823F0F023A8
:1048C80023F08213FB60FA683B681340002B05D085
:1048D800BB68002B02D00123FB7501E00023FB75A8
:1048E800FB7D18461C37BD465DF8047B704700BF4A
:1048F8000F640240006002400064024080B485B04A
:1049080000AF786039607B68104A934202D8104B38
:10491800FB6001E00F4BFB603B6803F00053002B8A
:1049280007D03B6823F0F02323F08213FA68D360A2
:1049380006E03B6823F0F02323F08213FA689360C3
:1049480000BF1437BD465DF8047B70470F64024012
:10495800006002400064024080B400AF094B0022AE
:104968001A60084B00225A60064B00229A60054BD9
:104978000022DA60034B044A5A6100BFBD465DF865
:10498800047B7047003C0140FFFF7F0080B485B086
:1049980000AF78600023FB60344BFB607B689B7939
:1049A800002B4FD0314B1A687B681B68DB432F49BB
:1049B80013400B602D4B5A687B681B68DB432B49FF
:1049C80013404B607B681B791A46FB681344FB60F5
:1049D800FB6819687B681A68FB680A431A60234BEE
:1049E8009A687B681B68DB43204913408B601F4B28
:1049F800DA687B681B68DB431C491340CB607B6823
:104A08005B79102B0ED1194B9A687B681B68174984
:104A180013438B60154BDA687B681B681349134393
:104A2800CB601DE0114BFB607B685B791A46FB6825
:104A38001344FB60FB6819687B681A68FB680A43C3
:104A48001A600DE07B681B791A46FB681344FB600B
:104A5800FB6819687B681B68DA43FB680A401A60C0
:104A680000BF1437BD465DF8047B7047003C014029
:104A780080B483B000AF78607B6800221A607B68DE
:104A880000221A717B680C225A717B6800229A7185
:104A980000BF0C37BD465DF8047B704780B483B017
:104AA80000AF7860054B1A6904497B6813430B61B2
:104AB80000BF0C37BD465DF8047B7047003C0140E1
:104AC80080B485B000AF78600023FB73084B5A6947
:104AD8007B681340002B02D00123FB7301E0002305
:104AE800FB73FB7B18461437BD465DF8047B7047A3
:104AF800003C014080B483B000AF7860044A7B6812
:104B0800536100BF0C37BD465DF8047B704700BF9A
:104B1800003C014080B485B000AF78600023FB738F
:104B28000023BB600C4B1B687A681340BB600A4BC0
:104B38005A697B681340002B05D0BB68002B02D054
:104B48000123FB7301E00023FB73FB7B184614373A
:104B5800BD465DF8047B7047003C014080B483B0DB
:104B680000AF7860044A7B68536100BF0C37BD46CC
:104B78005DF8047B704700BF003C014080B483B0FF
:104B880000AF7860044B7A68D2B21A7000BF0C3755
:104B9800BD465DF8047B7047003C024080B483B09A
:104BA80000AF0346FB71FB79002B06D0094B1B684D
:104BB800084A43F48073136005E0064B1B68054AF6
:104BC80023F48073136000BF0C37BD465DF8047B87
:104BD800704700BF003C024080B483B000AF03467A
:104BE800FB71FB79002B06D0094B1B68084A43F47C
:104BF8000073136005E0064B1B68054A23F4007335
:104C0800136000BF0C37BD465DF8047B704700BFDA
:104C1800003C024080B483B000AF0346FB71FB79CF
:104C2800002B06D0094B1B68084A43F480631360C5
:104C380005E0064B1B68054A23F48063136000BF38
:104C48000C37BD465DF8047B704700BF003C02404E
:104C580080B400AF054B1B68044A43F4006313603B
:104C680000BFBD465DF8047B704700BF003C0240B2
:104C780080B400AF054B1B68044A43F480531360AB
:104C880000BFBD465DF8047B704700BF003C024092
:104C980080B400AF074B1B69002B05DA054B064AA9
:104CA8005A60044B054A5A6000BFBD465DF8047B54
:104CB800704700BF003C024023016745AB89EFCD38
:104CC80080B400AF054B1B69044A43F000431361ED
:104CD80000BFBD465DF8047B704700BF003C024042
:104CE80080B584B000AF78600B46FB700023FB6092
:104CF8000823FB72FB78002B02D10023FB6010E035
:104D0800FB78012B03D14FF48073FB6009E0FB783B
:104D1800022B03D14FF40073FB6002E04FF44073A1
:104D2800FB6000F0F7FA0346FB72FB7A082B2FD1E1
:104D38001A4B1B69194A23F440731361174B1A69FC
:104D48001649FB6813430B61144B1B69134A23F084
:104D5800F8031361114B1A697B6813430F4A43F038
:104D6800020313610D4B1B690C4A43F48033136132
:104D780000F0D0FA0346FB72084B1B69074A23F080
:104D880002031361054B1B69044A23F0F8031361FE
:104D9800FB7A18461037BD4680BD00BF003C024074
:104DA80080B584B000AF0346FB710023FB60082385
:104DB800FB7200F0AFFA0346FB72FB79002B02D1BD
:104DC8000023FB6010E0FB79012B03D14FF48073C3
:104DD800FB6009E0FB79022B03D14FF40073FB6001
:104DE80002E04FF44073FB60FB7A082B21D1134B90
:104DF8001B69124A23F440731361104B1A690F4957
:104E0800FB6813430B610D4B1B690C4A43F0040309
:104E180013610A4B1B69094A43F48033136100F09C
:104E280079FA0346FB72054B1B69044A23F0040315
:104E38001361FB7A18461037BD4680BD003C02401E
:104E480090B587B000AFF860C7E900230823FB7569
:104E580000F060FA0346FB75FB7D082B20D1134B4D
:104E68001B69124A23F440731361104B1B690F4AE4
:104E780043F4407313610D4B1B690C4A43F0010363
:104E88001361FA68D7E90034C2E9003400F042FA45
:104E98000346FB75054B1B69044A23F001031361A4
:104EA800FB7D18461C37BD4690BD00BF003C024044
:104EB80080B584B000AF786039600823FB7300F0D8
:104EC80029FA0346FB73FB7B082B1ED1114B1B6988
:104ED800104A23F4407313610E4B1B690D4A43F4C7
:104EE800007313610B4B1B690A4A43F001031361FA
:104EF8007B683A681A6000F00DFA0346FB73054BAD
:104F08001B69044A23F001031361FB7B1846103721
:104F1800BD4680BD003C024080B584B000AF7860DB
:104F28000B467B800823FB7300F0F4F90346FB7300
:104F3800FB7B082B1ED1124B1B69114A23F44073CB
:104F480013610F4B1B690E4A43F4807313610C4BBA
:104F58001B690B4A43F0010313617B687A881A8046
:104F680000F0D8F90346FB73054B1B69044A23F08C
:104F780001031361FB7B18461037BD4680BD00BF97
:104F8800003C024080B584B000AF78600B46FB70EF
:104F98000823FB7300F0BEF90346FB73FB7B082B69
:104FA8001CD1114B1B69104A23F4407313610E4B3B
:104FB8000D4A1B6913610C4B1B690B4A43F0010333
:104FC80013617B68FA781A7000F0A4F90346FB7342
:104FD800054B1B69044A23F001031361FB7B184648
:104FE8001037BD4680BD00BF003C024080B400AF12
:104FF800084B5B6903F00103002B05D0054B064AFB
:105008009A60044B054A9A6000BFBD465DF8047B70
:10501800704700BF003C02403B2A19087F6E5D4C78
:1050280080B400AF054B5B69044A43F00103536148
:1050380000BFBD465DF8047B704700BF003C0240DE
:1050480080B584B000AF78600B46FB700823FB7313
:1050580000F060F90346FB73FB7B082B17D1FB7844
:10506800002B0BD00C4B1B889AB27B689BB2DB439E
:105078009BB2094913409BB20B8008E0064B1B8882
:105088009AB27B689BB2044913439BB20B8000BF62
:105098001037BD4680BD00BF163C024080B584B0C5
:1050A80000AF0346FB710823FB7300F033F9034696
:1050B800FB73FB7B082B02D1034AFB79137000BFFB
:1050C8001037BD4680BD00BF153C024080B584B096
:1050D80000AF0346FB710B46BB7113467B71FF2380
:1050E800FB730823BB7300F015F90346BB73BB7B46
:1050F800082B11D10A4B1B78DBB203F00F03FB73AB
:10510800BA79FB7B1343DAB27B791343DAB20449E9
:10511800FB791343DBB20B7000BF1037BD4680BD6F
:10512800143C024080B483B000AF0346FB710B4BC4
:105138001B78DBB2094A23F00C03DBB21370074B70
:105148001B78DAB20549FB791343DBB20B7000BF59
:105158000C37BD465DF8047B704700BF143C024025
:1051680080B582B000AF0823FB71084B1B78DBB217
:10517800064A43F00203DBB2137000F0CBF8034693
:10518800FB71FB7918460837BD4680BD143C0240C8
:1051980080B400AF044B5B695B09DBB21846BD46BF
:1051A8005DF8047B704700BF003C024080B400AF4C
:1051B800034B1B889BB21846BD465DF8047B7047BD
:1051C800163C024080B483B000AF0023FB71084B4B
:1051D8001B78DBB2AA2B02D00123FB7101E000236C
:1051E800FB71FB7918460C37BD465DF8047B7047A8
:1051F800153C024080B400AF054B1B78DBB203F0CE
:105208000C03DBB21846BD465DF8047B704700BF4F
:10521800143C024080B483B000AF78600B46FB704A
:10522800FB78002B06D00A4B1A6909497B6813439F
:105238000B6106E0064B1A697B68DB43044913409F
:105248000B6100BF0C37BD465DF8047B704700BF9B
:10525800003C024080B485B000AF78600023FB7347
:10526800084BDA687B681340002B02D00123FB73DC
:1052780001E00023FB73FB7B18461437BD465DF83D
:10528800047B7047003C024080B483B000AF786074
:10529800044A7B68D36000BF0C37BD465DF8047BC9
:1052A800704700BF003C024080B483B000AF0823C1
:1052B800FB71174BDB6803F48033B3F5803F02D1F1
:1052C8000123FB711CE0124BDB6803F01003002B79
:1052D80002D00523FB7113E00D4BDB6803F0EF03ED
:1052E800002B02D00623FB710AE0094BDB6803F0B0
:1052F8000203002B02D00723FB7101E00823FB7196
:10530800FB7918460C37BD465DF8047B704700BF33
:10531800003C024080B582B000AF0823FB71FFF764
:10532800C3FF0346FB7103E0FFF7BEFF0346FB71B3
:10533800FB79DBB2012BF7D0FB79DBB218460837D3
:10534800BD4680BD80B483B000AF78607B68002B19
:1053580007D14FF020427B6843F2DB0142F823106B
:1053680006E04FF020427B6843F2D20142F8231056
:105378004FF020427B6801336FF0704142F82310F0
:10538800054A7B686FF0704142F8231000BF0C3764
:10539800BD465DF8047B7047040100A080B483B06B
:1053A80000AF78607B685A687B689B681A437B68A3
:1053B800DB681A437B681B691A437B685B691A437D
:1053C8007B689B691A437B68DB691A437B681B6AA5
:1053D8001A437B685B6A1A437B689B6A1A437B683B
:1053E800DB6A42EA03017B681A6B4FF020407B6856
:1053F8001B680A4340F823207B689B68082B0DD163
:105408004FF020427B681B6852F823204FF0204160
:105418007B681B6842F0400241F823207B685B6B85
:105428001A687B685B6B5B681B011A437B685B6B64
:105438009B681B021A437B685B6BDB681B041A437F
:105448007B685B6B1B691B051A437B685B6B5B693D
:105458001B0642EA03017B685B6B9A694FF02040A8
:105468007B681B6801330A4340F823207B68DB6AAA
:10547800B3F5804F21D17B689B6B1A687B689B6B67
:105488005B681B011A437B689B6B9B681B021A4372
:105498007B689B6B1B691B051A437B689B6B5B696D
:1054A8001B0642EA03017B689B6B9A6909487B6883
:1054B8001B680A4340F8232006E0064A7B681B68FD
:1054C8006FF0704142F8231000BF0C37BD465DF8FD
:1054D800047B7047040100A080B483B000AF7860FB
:1054E8007B6800221A607B6802225A607B6800226F
:1054F8009A607B680022DA607B6800221A617B6808
:1055080000225A617B6800229A617B680022DA6176
:105518007B6800221A627B684FF480525A627B686B
:105528004FF400529A627B680022DA627B6800229C
:105538001A637B685B6B0F221A607B685B6B0F22B8
:105548005A607B685B6BFF229A607B685B6B0F22FB
:10555800DA607B685B6B0F221A617B685B6B0F22DA
:105568005A617B685B6B00229A617B689B6B0F2298
:105578001A607B689B6B0F225A607B689B6BFF22CB
:105588009A607B689B6B0F22DA607B689B6B0F22AB
:105598001A617B689B6B0F225A617B689B6B0022A8
:1055A8009A6100BF0C37BD465DF8047B704780B434
:1055B80083B000AF78600B46FB70FB78002B0CD0F3
:1055C8004FF020427B6852F823304FF0204143F0DF
:1055D80001027B6841F823200BE04FF020427B68F2
:1055E80052F823204FF02041054B13407A6841F8C8
:1055F800223000BF0C37BD465DF8047B704700BF02
:10560800FEFF0F0080B483B000AF78607B68102B7A
:105618000ED1114B18221A600F4B40225A600E4BC4
:105628004FF0FC329A600C4B4FF0FC32DA600DE020
:105638000A4B18221A60094B40225A60074B4FF058
:10564800FC329A60054B4FF0FC32DA6000BF0C3731
:10565800BD465DF8047B7047600000A0800000A094
:1056680080B487B000AF786000237B6100233B6182
:105678000023FB607B685A687B689B681A437B68D9
:10568800DB681A437B681B691A437B685B695B02AA
:105698001A437B689B695B03134343F008037B61F0
:1056A8007B68DB691A687B68DB695B681B021A43E5
:1056B8007B68DB699B681B041A437B68DB69DB68D2
:1056C8001B0613433B617B681B6A1A687B681B6A6D
:1056D8005B681B021A437B681B6A9B681B041A439E
:1056E8007B681B6ADB681B061343FB607B681B68CF
:1056F800102B09D10C4A7B6913600B4A3B699360F4
:10570800094AFB68D36008E0084A7B691360074AC6
:105718003B699360054AFB68D36000BF1C37BD46F0
:105728005DF8047B704700BF600000A0800000A007
:1057380080B483B000AF78607B6810221A607B6801
:1057480000225A607B6800229A607B680022DA6037
:105758007B6800221A617B6800225A617B680022FC
:105768009A617B68DB69FC221A607B68DB69FC2232
:105778005A607B68DB69FC229A607B68DB69FC22E3
:10578800DA607B681B6AFC221A607B681B6AFC2251
:105798005A607B681B6AFC229A607B681B6AFC2241
:1057A800DA6000BF0C37BD465DF8047B704780B4F3
:1057B80083B000AF78600B46FB70FB78002B10D0ED
:1057C8007B68102B06D1124B1B68114A43F0040367
:1057D800136016E00F4B1B680E4A43F00403136076
:1057E8000FE07B68102B06D1094B1A6808490A4B51
:1057F80013400B6005E0074B1A680649064B134037
:105808000B6000BF0C37BD465DF8047B704700BFD6
:10581800600000A0800000A0FBFF0F0080B483B0F0
:1058280000AF78600B46FB70FB78002B10D07B68CC
:10583800102B06D1114B1B68104A43F0400313602C
:1058480016E00F4B1B680E4A43F0400313600FE04D
:105858007B68102B06D1094B1A680849094B13407D
:105868000B6005E0064B1A680549064B13400B60B0
:1058780000BF0C37BD465DF8047B7047600000A090
:10588800800000A0BFFF0F0080B485B000AF786033
:105898000023FB607B68102B03D1074B5B69FB601F
:1058A80002E0064B5B69FB60FB6818461437BD468F
:1058B8005DF8047B704700BF600000A0800000A076
:1058C80080B400AF0B4B18221A600A4B00225A60B2
:1058D800084B4FF0FC329A60064B4FF0FC32DA600E
:1058E800044B4FF0FC321A6100BFBD465DF8047BE3
:1058F800704700BFA00000A080B483B000AF7860FC
:105908007B681A687B685B685B021A437B689B68E4
:105918005B031343224A43F0100313607B68DB6880
:105928001A687B68DB685B681B021A437B68DB6864
:105938009B681B041A437B68DB68DB681B061849F5
:1059480013438B607B681B691A687B681B695B68FB
:105958001B021A437B681B699B681B041A437B68FC
:105968001B69DB681B060E491343CB607B685B69C8
:105978001A687B685B695B681B021A437B685B6912
:105988009B681B041A437B685B69DB681B06044938
:1059980013430B6100BF0C37BD465DF8047B7047AD
:1059A800A00000A080B483B000AF78607B680022BC
:1059B8001A607B6800225A607B6800229A607B68C4
:1059C800DB68FC221A607B68DB68FC225A607B6813
:1059D800DB68FC229A607B68DB68FC22DA607B6803
:1059E8001B69FC221A607B681B69FC225A607B6871
:1059F8001B69FC229A607B681B69FC22DA607B6861
:105A08005B69FC221A607B685B69FC225A607B68D0
:105A18005B69FC229A607B685B69FC22DA6000BFE4
:105A28000C37BD465DF8047B704780B483B000AF87
:105A38000346FB71FB79002B06D0094B1B68084A0B
:105A480043F00403136005E0054B1A680449054B4D
:105A580013400B6000BF0C37BD465DF8047B7047F0
:105A6800A00000A0FBFF0F0080B485B000AFF86075
:105A7800B9601346FB71FB79002B1BD0FB68102B18
:105A880006D11E4B5A681D49BB6813434B602FE073
:105A9800FB68B3F5807F06D1194B5A681849BB6873
:105AA80013434B6024E0174B5A681649BB681343ED
:105AB8004B601DE0FB68102B07D1104B5A68BB6880
:105AC800DB430E4913404B6012E0FB68B3F5807F5F
