:020000040800F2
:10000000000002206D10010869060008750600084E
:100010007D060008850600088D0600080000000027
:10002000000000000000000000000000510701086F
:100030009506000800000000250901087D09010857
:10004000B1100108B1100108B1100108B110010888
:10005000B1100108B1100108B1100108B110010878
:10006000B1100108B1100108B1100108B110010868
:10007000B1100108B1100108B1100108B110010858
:10008000B1100108B1100108B1100108B110010848
:10009000B1100108B1100108B1100108B110010838
:1000A000B1100108B1100108B1100108B110010828
:1000B000B1100108B1100108B1100108B110010818
:1000C000B1100108B1100108B1100108B110010808
:1000D000B1100108B1100108B1100108B1100108F8
:1000E000B1100108B1100108B1100108B1100108E8
:1000F000B1100108B1100108B1100108B1100108D8
:10010000B1100108B1100108B1100108B1100108C7
:10011000B1100108B1100108B1100108B1100108B7
:10012000B1100108B1100108B1100108B1100108A7
:10013000B1100108B1100108B1100108B110010897
:10014000B1100108B1100108B1100108B110010887
:10015000B1100108B1100108B1100108B110010877
:10016000B1100108B1100108B1100108B110010867
:10017000B1100108B1100108B1100108B110010857
:08018000B1100108B1100108E3
:1001880010B5054C237833B9044B13B10448AFF3C9
:1001980000800123237010BD7804002000000000B7
:1001A800FC130108084B10B51BB108480849AFF308
:1001B80000800848036803B910BD074B002BFBD02B
:1001C800BDE81040184700BF00000000FC130108FC
:1001D8007C0400207404002000000000154B002B54
:1001E80008BF134B9D46A3F5803A00218B460F4666
:1001F8001348144A121A10F091FF0F4B002B00D02D
:1002080098470E4B002B00D098470020002104008F
:100218000D000D48002802D00C4811F041F810F0EC
:1002280055FF200029000CF0EFFE10F03FFF00BF43
:1002380000000800000000000000000000000000AE
:1002480078040020A0320120A9120108B512010883
:100258002C140108000000207404002078040020F9
:10026800A032012080B500AF114A114B1B6843F042
:10027800010313600E4B00229A600D4A0C4B1B6859
:1002880023F0847323F480331360094B094A5A60BE
:10029800074A074B1B6823F480231360044B002292
:1002A800DA6000F087F8044B4FF000629A6080BD76
:1002B800003802401030002400ED00E080B487B020
:1002C80000AF00233B6100237B610223FB60002316
:1002D800BB6002237B60324B9B6803F00C033B61DD
:1002E8003B69042B07D0082B09D0002B3FD12D4B9D
:1002F8002D4A1A603FE02B4B2C4A1A603BE0284BF2
:100308005B6803F480039B0DBB60254B5B6803F0BF
:100318003F037B60BB68002B0DD0244A7B68B2FB8F
:10032800F3F21F4B596847F6C0730B409B0903FB58
:1003380002F37B610CE01C4A7B68B2FBF3F2184BBA
:10034800596847F6C0730B409B0903FB02F37B61B6
:10035800134B5B6803F440331B0C01335B00FB60F9
:100368007A69FB68B2FBF3F30E4A136003E00D4BA6
:100378000D4A1A6000BF0A4B9B6803F0F0031B0983
:100388000B4AD35CDBB23B61064B1A683B6922FA25
:1003980003F3044A13601C37BD465DF8047B7047BD
:1003A80000380240040000200024F40000127A0003
:1003B8000800002080B483B000AF00237B600023D6
:1003C8003B60354A344B1B6843F480331360324B2F
:1003D8001B6803F400333B607B6801337B603B6838
:1003E800002B03D17B68B3F5A06FF0D12A4B1B68B3
:1003F80003F40033002B02D001233B6001E000230B
:100408003B603B68012B42D1234A234B1B6C43F0D2
:1004180080531364214A214B1B6843F480431360C3
:100428001D4A1D4B9B6893601B4A1B4B9B6843F4FA
:1004380000439360184A184B9B6843F4A053936099
:10044800154B174A5A60144A134B1B6843F08073C4
:10045800136000BF104B1B6803F00073002BF9D02A
:10046800104B40F205621A600B4A0B4B9B6823F055
:1004780003039360084A084B9B6843F002039360A8
:1004880000BF054B9B6803F00C03082BF9D10C3710
:10049800BD465DF8047B704700380240007000409C
:1004A80008544007003C024080B584B000AF0346C2
:1004B800FB71FB79104A52F823301846012100F0ED
:1004C80033FCFB790D4A32F81330BB6001233B73D0
:1004D8000023BB730123FB7302237B73FB79084A58
:1004E80052F8232007F108031046194609F064FF63
:1004F8001037BD4680BD00BF90130108881301085E
:100508001800002080B483B000AF0346FB71FB796C
:10051800064A52F82330FA79054931F812201A832D
:100528000C37BD465DF8047B704700BF18000020FB
:100538008813010880B483B000AF0346FB71FB79D0
:10054800064A52F82330FA79054931F812205A83BD
:100558000C37BD465DF8047B704700BF18000020CB
:100568008813010880B483B000AF0346FB71FB79A0
:10057800094A52F82330FA79074951F8222052697A
:10058800F979064830F811104A405A610C37BD46CF
:100598005DF8047B704700BF18000020881301082D
:1005A80080B588B000AF03460A46FB711346BB719D
:1005B80001231846012100F0B7FB4FF480400121C8
:1005C80000F02AFC00233B770023FB770123BB6163
:1005D800FB79174A52F8232007F1180310461946E9
:1005E80009F0EAFEBB79012B1FD100220023104637
:1005F800194604F047F901233B6100233B750823A2
:100608007B750123BB7507F11003184600F002FE45
:1006180006233B730F237B730F23BB730123FB73E9
:1006280007F10C0318460AF0B3FD2037BD4680BD1C
:100638002800002080B582B000AF0346FB71FB792B
:10064800064A52F8233001221846114609F07EFF67
:10065800034618460837BD4680BD00BF2800002065
:1006680080B400AFBD465DF8047B704780B400AF2E
:10067800FEE700BF80B400AFFEE700BF80B400AF64
:10068800FEE700BF80B400AFFEE700BF80B400AF54
:10069800BD465DF8047B704780B483B000AF034665
:1006A800FB80044AFB8813600C37BD465DF8047B69
:1006B800704700BF0030004080B483B000AF0346ED
:1006C800FB71044AFB7953600C37BD465DF8047B27
:1006D800704700BF0030004080B483B000AF0346CD
:1006E800FB80044AFB8893600C37BD465DF8047BA9
:1006F800704700BF0030004080B400AF034B4AF69B
:10070800AA221A60BD465DF8047B7047003000409D
:1007180080B400AF034B4CF6CC421A60BD465DF87E
:10072800047B70470030004080B485B000AF0346BA
:10073800FB800023FB73094BDA68FB881340002B0E
:1007480002D00123FB7301E00023FB73FB7B1846F7
:100758001437BD465DF8047B704700BF0030004089
:1007680080B400AF104A104B1B6843F001031360BC
:100778000D4B00229A600C4A0B4B1B6823F08473C4
:1007880023F480331360084B084A5A60064A064B24
:100798001B6823F480231360034B0022DA60BD46F4
:1007A8005DF8047B704700BF003802401030002419
:1007B80080B483B000AF0346FB71054B00221A706A
:1007C800034AFB7913700C37BD465DF8047B70470C
:1007D8000238024080B582B000AF00233B6000239E
:1007E800FB710023BB71312000F086FC0346BB710E
:1007F8003B6801333B603B68B3F5A06F02D0BB791F
:10080800002BF0D0312000F077FC0346002B02D0FB
:100818000123FB7101E00023FB71FB7918460837BF
:10082800BD4680BD80B485B000AF0346FB71002390
:10083800FB600A4B1B68FB60FB6823F0F803FB6056
:10084800FB79DB00FA681343FB60044AFB6813601A
:100858001437BD465DF8047B704700BF003802407E
:1008680080B483B000AF0346FB71044AFB79136080
:100878000C37BD465DF8047B704700BF0000474257
:1008880080B483B000AF0346FB710C4B00221A7092
:100898000A4B00221A70FB79012B02D0042B04D0DA
:1008A80007E0064B01221A7003E0044B05221A7078
:1008B80000BF0C37BD465DF8047B704770380240B6
:1008C80080B483B000AF0346FB71044AFB79136020
:1008D8000C37BD465DF8047B704700BF800E474269
:1008E80080B485B000AFF860B9607A603B600A49AF
:1008F8007B689A01BB681A433B685B08013B1B0491
:100908001A43FB681A43BB691B0613434B60143731
:10091800BD465DF8047B70470038024080B483B060
:1009280000AF0346FB71044AFB7913600C37BD46E0
:100938005DF8047B704700BF6000474280B483B015
:1009480000AF7860396006497B689A013B681B07ED
:100958001343C1F884300C37BD465DF8047B7047FB
:100968000038024080B483B000AF0346FB71044AEC
:10097800FB7913600C37BD465DF8047B704700BFF8
:100988006800474280B483B000AF0346FB71044A55
:10099800FB7913600C37BD465DF8047B704700BFD8
:1009A8004C00474280B485B000AF786039600023BE
:1009B800FB600A4B9B68FB60FB6823F0EC63FB6001
:1009C8007A683B681343FA681343FB60034AFB6881
:1009D80093601437BD465DF8047B704700380240C9
:1009E80080B485B000AF786039600023FB600A4BA3
:1009F8009B68FB60FB6823F07843FB607A683B6880
:100A08001343FA681343FB60034AFB689360143787
:100A1800BD465DF8047B70470038024080B485B05D
:100A280000AF78600023FB60094B9B68FB60FB68A4
:100A380023F00303FB60FA687B681343FB60044AF6
:100A4800FB6893601437BD465DF8047B704700BFB0
:100A58000038024080B400AF054B9B68DBB203F05E
:100A68000C03DBB21846BD465DF8047B704700BF37
:100A78000038024080B485B000AF78600023FB6086
:100A8800094B9B68FB60FB6823F0F003FB60FA6886
:100A98007B681343FB60044AFB6893601437BD46C8
:100AA8005DF8047B704700BF0038024080B485B011
:100AB80000AF78600023FB60094B9B68FB60FB6814
:100AC80023F4E053FB60FA687B681343FB60044A35
:100AD800FB6893601437BD465DF8047B704700BF20
:100AE8000038024080B485B000AF78600023FB6016
:100AF800094B9B68FB60FB6823F46043FB607B68E1
:100B0800DB00FA681343FB60034AFB689360143701
:100B1800BD465DF8047B70470038024080B489B058
:100B280000AF78600023BB6100237B610023FB6179
:100B380002233B610023FB600223BB60484B9B6898
:100B480003F00C03BB61BB69042B07D0082B09D049
:100B5800002B3FD17B68434A1A603FE07B68424ADA
:100B68001A603BE03E4B5B6803F480039B0DFB601F
:100B78003B4B5B6803F03F03BB60FB68002B0DD069
:100B8800394ABB68B2FBF3F2354B596847F6C07374
:100B98000B409B0903FB02F3FB610CE0314ABB6885
:100BA800B2FBF3F22E4B596847F6C0730B409B0912
:100BB80003FB02F3FB612A4B5B6803F440331B0C15
:100BC80001335B003B61FA693B69B2FBF3F27B6876
:100BD8001A6003E07B68234A1A6000BF204B9B68B9
:100BE80003F0F003BB61BB691B09BB611F4ABB690A
:100BF80013441B78DBB27B617B681A687B69DA4037
:100C08007B685A60164B9B6803F4E053BB61BB6971
:100C18009B0ABB61154ABB6913441B78DBB27B6135
:100C28007B685A687B69DA407B689A600C4B9B68E2
:100C380003F46043BB61BB695B0BBB610B4ABB69D7
:100C480013441B78DBB27B617B685A687B69DA40A6
:100C58007B68DA602437BD465DF8047B704700BFC7
:100C6800003802400024F40000127A002C00002012
:100C780080B485B000AF78600023FB607B6803F424
:100C88004073B3F5407F11D10F4B9B68FB60FB6845
:100C980023F4F813FB607B6823F0704323F440735C
:100CA800FA681343FB60084AFB6893600649064BE1
:100CB8001A6F7B68C3F30B0313430B671437BD46E6
:100CC8005DF8047B704700BF0038024080B483B0F1
:100CD80000AF0346FB71044AFB7913600C37BD462D
:100CE8005DF8047B704700BF3C0E474280B483B078
:100CF80000AF0346FB71044AFB7913600C37BD460D
:100D08005DF8047B704700BF400E474280B483B053
:100D180000AF7860034A7B6813600C37BD465DF806
:100D2800047B70475C01474280B483B000AF7860B1
:100D38000B46FB70FB78002B06D00949084B1A6B51
:100D48007B6813430B6306E00549054B1A6B7B6808
:100D5800DB4313400B630C37BD465DF8047B7047DB
:100D68000038024080B483B000AF78600B46FB7057
:100D7800FB78002B06D00949084B5A6B7B68134354
:100D88004B6306E00549054B5A6B7B68DB43134010
:100D98004B630C37BD465DF8047B70470038024052
:100DA80080B483B000AF78600B46FB70FB78002BF3
:100DB80006D00949084B9A6B7B6813438B6306E09E
:100DC8000549054B9A6B7B68DB4313408B630C37F3
:100DD800BD465DF8047B70470038024080B483B09C
:100DE80000AF78600B46FB70FB78002B06D00949F2
:100DF800084B1A6C7B6813430B6406E00549054BE6
:100E08001A6C7B68DB4313400B640C37BD465DF8F6
:100E1800047B70470038024080B483B000AF78602C
:100E28000B46FB70FB78002B06D00949084B5A6C1F
:100E38007B6813434B6406E00549054B5A6C7B6895
:100E4800DB4313404B640C37BD465DF8047B7047A9
:100E58000038024080B483B000AF78600B46FB7066
:100E6800FB78002B06D00949084B1A697B681343A5
:100E78000B6106E00549054B1A697B68DB431340A3
:100E88000B610C37BD465DF8047B704700380240A3
:100E980080B483B000AF78600B46FB70FB78002B02
:100EA80006D00949084B5A697B6813434B6106E031
:100EB8000549054B5A697B68DB4313404B610C3786
:100EC800BD465DF8047B70470038024080B483B0AB
:100ED80000AF78600B46FB70FB78002B06D0094901
:100EE800084B9A697B6813438B6106E00549054BFB
:100EF8009A697B68DB4313408B610C37BD465DF80C
:100F0800047B70470038024080B483B000AF78603B
:100F18000B46FB70FB78002B06D00949084B1A6A70
:100F28007B6813430B6206E00549054B1A6A7B6828
:100F3800DB4313400B620C37BD465DF8047B7047FA
:100F48000038024080B483B000AF78600B46FB7075
:100F5800FB78002B06D00949084B5A6A7B68134373
:100F68004B6206E00549054B5A6A7B68DB43134030
:100F78004B620C37BD465DF8047B70470038024071
:100F880080B483B000AF78600B46FB70FB78002B11
:100F980006D00949084B1A6D7B6813430B6506E0B8
:100FA8000549054B1A6D7B68DB4313400B650C370D
:100FB800BD465DF8047B70470038024080B483B0BA
:100FC80000AF78600B46FB70FB78002B06D0094910
:100FD800084B5A6D7B6813434B6506E00549054B82
:100FE8005A6D7B68DB4313404B650C37BD465DF893
:100FF800047B70470038024080B483B000AF78604B
:101008000B46FB70FB78002B06D00949084B9A6DFC
:101018007B6813438B6506E00549054B9A6D7B6831
:10102800DB4313408B650C37BD465DF8047B704786
:101038000038024080B483B000AF78600B46FB7084
:10104800FB78002B06D00949084B1A6E7B681343BE
:101058000B6606E00549054B1A6E7B68DB431340B7
:101068000B660C37BD465DF8047B704700380240BC
:1010780080B483B000AF78600B46FB70FB78002B20
:1010880006D00949084B5A6E7B6813434B6606E045
:101098000549054B5A6E7B68DB4313404B660C379A
:1010A800BD465DF8047B70470038024080B483B0C9
:1010B80000AF03460A46FB711346BB71BB79002B90
:1010C80008D00C490B4B1B78DAB2FB791343DBB21F
:1010D8000B7009E00749074B1B78DAB2FB79DB4351
:1010E800DBB21340DBB20B700C37BD465DF8047BF6
:1010F800704700BF0D38024080B487B000AF034688
:10110800FB710023FB6000237B610023FB74FB79E8
:101118005B09DBB2FB60FB68012B03D1124B1B6838
:101128007B6109E0FB68022B03D10F4B1B6F7B61CE
:1011380002E00D4B5B6F7B61FB7903F01F03FB60E3
:10114800FB687A6922FA03F303F00103002B02D04B
:101158000123FB7401E00023FB74FB7C18461C3759
:10116800BD465DF8047B70470038024080B400AF8C
:10117800044A044B5B6F43F080735367BD465DF8C8
:10118800047B70470038024080B485B000AF034646
:10119800FB710023FB73094BDA68FB791340002BC2
:1011A80002D00123FB7301E00023FB73FB7B18468D
:1011B8001437BD465DF8047B704700BF0038024015
:1011C80080B483B000AF0346FB71044AFB79137007
:1011D8000C37BD465DF8047B704700BF0E380240EF
:1011E80080B400AF094B00221A60084B00225A60F5
:1011F800064B00229A60054B0022DA60034B044A32
:101208005A61BD465DF8047B704700BF003C014051
:10121800FFFF7F0080B485B000AF78600023FB60DB
:10122800344BFB607B689B79002B4FD03149314BA5
:101238001A687B681B68DB4313400B602D492D4BF4
:101248005A687B681B68DB4313404B607B681B79DB
:101258001A46FB681344FB60FB68FA6811687A68F1
:1012680012680A431A602349224B9A687B681B68F4
:10127800DB4313408B601F491E4BDA687B681B6891
:10128800DB431340CB607B685B79102B0ED1194987
:10129800184B9A687B681B6813438B601549154B7C
:1012A800DA687B681B681343CB601DE0114BFB6059
:1012B8007B685B791A46FB681344FB60FB68FA6835
:1012C80011687A6812680A431A600DE07B681B7916
:1012D8001A46FB681344FB60FB68FA6811687A6871
:1012E8001268D2430A401A601437BD465DF8047B81
:1012F800704700BF003C014080B483B000AF786005
:101308007B6800221A607B6800221A717B680C22B5
:101318005A717B6800229A710C37BD465DF8047BD0
:10132800704700BF80B483B000AF78600549054BB3
:101338001A697B6813430B610C37BD465DF8047B63
:10134800704700BF003C014080B485B000AF7860B2
:101358000023FB73084B5A697B681340002B02D0AB
:101368000123FB7301E00023FB73FB7B1846143752
:10137800BD465DF8047B7047003C014080B483B0F3
:1013880000AF7860034A7B6853610C37BD465DF84F
:10139800047B7047003C014080B485B000AF7860A2
:1013A8000023FB730023BB600C4B1A687B68134057
:1013B800BB600A4B5A697B681340002B05D0BB6899
:1013C800002B02D00123FB7301E00023FB73FB7B9E
:1013D80018461437BD465DF8047B7047003C014051
:1013E80080B483B000AF7860034A7B6853610C37E0
:1013F800BD465DF8047B7047003C014080B500AFF6
:101408004FF000500121FFF77FFD4FF00050002101
:10141800FFF77AFD80BD00BF80B485B000AF78606B
:1014280039600023FB600023BB60134B1B68FB6023
:101438007B6840F6FE7202FA03F3DB43FA68134056
:10144800FB603B681A683B685B681A433B689B68AB
:101458001A433B68DB681343BB607B68BA6802FACF
:1014680003F3FA681343FB60034AFB6813601437FD
:10147800BD465DF8047B70470074004080B483B0BB
:1014880000AF78607B6800221A607B6800225A608F
:101498007B6800229A607B680022DA600C37BD46C0
:1014A8005DF8047B704700BF80B483B000AF7860FC
:1014B8000B46FB70FB78002B09D00C490B4B1A68C4
:1014C8007B68012000FA03F313430B6009E0074926
:1014D800064B1A687B68012000FA03F3DB431340CC
:1014E8000B600C37BD465DF8047B70470074004004
:1014F80080B483B000AF78600B46FB70FB78002B9C
:101508000AD00D490C4B5A687B681B091846012301
:10151800834013434B600AE00749074B5A687B68CE
:101528001B09184601238340DB4313404B600C37EB
:10153800BD465DF8047B70470074004080B483B0FA
:1015480000AF0346FB71FB79002B06D0084A084B15
:101558005B6843F00303536005E0054A044B5B688E
:1015680023F0030353600C37BD465DF8047B7047D6
:101578000074004080B485B000AFF860B9601346CD
:10158800FB71FB79002B09D00C480C4B1A68FB68DF
:10159800B96801FA03F31343036009E00748074BEE
:1015A8001A68FB68B96801FA03F3DB431340036068
:1015B8001437BD465DF8047B704700BF00740040D7
:1015C80080B485B000AF78600B467B800023FB6059
:1015D800074BFB60FA687B6813440833FB60FB68C1
:1015E8001A467B8813601437BD465DF8047B704744
:1015F8000074004080B485B000AF78600B467B80F3
:101608000023FB60074BFB60FA687B6813441433C4
:10161800FB60FB681A467B8813601437BD465DF88B
:10162800047B70470074004080B485B000AF7860D8
:101638000B467B8013463B800023FB600023BB6086
:101648007B68082B05D17B881A023B881343FB6013
:1016580004E07B881A043B881343FB60074BBB609C
:101668007A68BB6813442033BB60BB68FA681A60A9
:101678001437BD465DF8047B704700BF0074004016
:1016880080B485B000AF78600023FB60084BFB6036
:101698007B689A08FB6813442C33FB60FB681B6863
:1016A8009BB218461437BD465DF8047B704700BFEF
:1016B8000074004080B483B000AF78600B46FB70C4
:1016C800FB78002B0AD00D490C4B1A687B684FF445
:1016D800805000FA03F313430B600AE00749074BF5
:1016E8001A687B684FF4805000FA03F3DB43134019
:1016F8000B600C37BD465DF8047B704700740040F2
:1017080080B485B000AFF860B9601346FB71FB790F
:10171800002B09D00C480C4B1A68FB68B96801FA11
:1017280003F31343036009E00748074B1A68FB6893
:10173800B96801FA03F3DB43134003601437BD466D
:101748005DF8047B704700BF0074004080B485B02A
:1017580000AF786039600023FB730A4B5A6B7B68D3
:10176800396801FA03F31340002B02D00123FB73FD
:1017780001E00023FB73FB7B18461437BD465DF878
:10178800047B70470074004080B483B000AF786079
:10179800396005497B683A6802FA03F34B630C37F2
:1017A800BD465DF8047B70470074004080B485B086
:1017B80000AF786039600023FB730023BB60104BD7
:1017C8001A687B68396801FA03F31340BB600C4B55
:1017D8005A6B7B68396801FA03F31340002B05D074
:1017E800BB68002B02D00123FB7301E00023FB73CD
:1017F800FB7B18461437BD465DF8047B704700BF75
:101808000074004080B483B000AF78603960054947
:101818007B683A6802FA03F34B630C37BD465DF800
:10182800047B70470074004080B500AF4FF08050D3
:101838000121FFF769FB4FF080500021FFF764FB9F
:1018480080BD00BF80B483B000AF0346FB71044A7B
:10185800FB7913600C37BD465DF8047B704700BF09
:1018680020000E4280B485B000AF78600023FB6092
:10187800094B1B68FB60FB6823F0E003FB60FA6818
:101888007B681343FB60044AFB6813601437BD464A
:101898005DF8047B704700BF0070004080B483B0DF
:1018A80000AF0346FB71044AFB7913600C37BD4651
:1018B8005DF8047B704700BF10000E4280B483B00F
:1018C80000AF0346FB71044AFB7913600C37BD4631
:1018D8005DF8047B704700BFA0000E4280B483B05F
:1018E80000AF0346FB71044AFB7913600C37BD4611
:1018F8005DF8047B704700BFA4000E4280B483B03B
:1019080000AF78607B68002B06D1094A084B1B683A
:1019180023F48043136005E0054A054B1B6843F434
:10192800804313600C37BD465DF8047B704700BFE9
:101938000070004080B483B000AF0346FB71044AD6
:10194800FB7913600C37BD465DF8047B704700BF18
:1019580024000E4280B485B000AF78600B46FB705F
:101968000023FB60124B1B68FB60FB6823F003033A
:10197800FB60FA687B681343FB600D4AFB681360E1
:101988000C4A0C4B1B6943F004031361FB78012BD1
:1019980001D130BF00E020BF064A064B1B6923F087
:1019A800040313611437BD465DF8047B704700BF1C
:1019B8000070004000ED00E080B400AF0B4A0B4B14
:1019C8001B6843F004031360084A084B1B6843F084
:1019D80002031360064A064B1B6943F004031361B4
:1019E80030BFBD465DF8047B704700BF0070004003
:1019F80000ED00E080B485B000AF78600023FB7391
:101A0800084B5A687B681340002B02D00123FB73F4
:101A180001E00023FB73FB7B18461437BD465DF8D5
:101A2800047B70470070004080B483B000AF7860DA
:101A38000549054B1A687B689B0013430B600C37FC
:101A4800BD465DF8047B70470070004080B582B0E9
:101A580000AF78607B68174A93420AD14FF40010B0
:101A68000121FFF751FA4FF400100021FFF74CFA5B
:101A78001CE07B68104A93420AD14FF48000012190
:101A8800FFF742FA4FF480000021FFF73DFA0DE01E
:101A98007B680A4A934209D14FF400000121FFF7FD
:101AA80033FA4FF400000021FFF72EFA0837BD463D
:101AB80080BD00BF0054004000580040005C00405A
:101AC80080B58AB000AF786039600023FB840023BA
:101AD8007B840423BB84574BFB617B689B88FB8416
:101AE800FB8C23F03F03FB8407F10C031846FFF738
:101AF80015F87B69FB61FB694F4AA2FB03239B0C2A
:101B08007B84FA8C7B8C1343FB847B68FA8C9A80E9
:101B18007B681B889BB223F001039AB27B681A800A
:101B28000023FB843B681B68444A934215D83B68F2
:101B38001B685B00FA69B2FBF3F3BB84BB8C032B15
:101B480001D80423BB84FA8CBB8C1343FB847B8CA5
:101B580001339AB27B681A8440E03B68DB884BF615
:101B6800FF72934209D13B681A6813465B0013441D
:101B7800FA69B2FBF3F3BB840EE03B681A681346BC
:101B88009B0013449A001344FA69B2FBF3F3BB8435
:101B9800BB8C43F48043BB84BB8CC3F30B03002B87
:101BA80003D1BB8C43F00103BB84BA8CFB8C134379
:101BB8009BB26FEA43436FEA5343FB847B8C4FF439
:101BC800967202FB03F31E4A82FB03129211DB1783
:101BD800D31A9BB201339AB27B681A847B68FA8C59
:101BE8009A837B681B889BB243F001039AB27B6897
:101BF8001A807B681B88FB84FB8C23F4816323F0A9
:101C08000203FB843B689A883B685B8913439AB25A
:101C1800FB8C1343FB847B68FA8C1A803B689A8997
:101C28003B681B8913439AB27B681A812837BD46E3
:101C380080BD00BF00127A0083DE1B43A08601002E
:101C4800D34D621080B483B000AF78607B6841F2F6
:101C580088321A607B6800229A807B684BF6FF7294
:101C6800DA807B6800221A817B6800225A817B68AF
:101C78004FF480429A810C37BD465DF8047B70476B
:101C880080B483B000AF78600B46FB70FB78002B04
:101C980008D07B681B889BB243F001039AB27B682B
:101CA8001A8007E07B681B889BB223F001039AB275
:101CB8007B681A800C37BD465DF8047B704700BF0F
:101CC80080B483B000AF78600B46FB70FB78002BC4
:101CD80008D07B681B889BB243F480739AB27B68F8
:101CE8001A8007E07B681B889BB223F480739AB242
:101CF8007B681A800C37BD465DF8047B704700BFCF
:101D080080B483B000AF78600B46FB70FB78002B83
:101D180008D07B681B889BB243F400739AB27B6837
:101D28001A8007E07B681B889BB223F400739AB281
:101D38007B681A800C37BD465DF8047B704700BF8E
:101D480080B483B000AF78600B46FB701346BB705D
:101D5800BB78002B04D0FB7843F00103FB7003E051
:101D6800FB7823F00103FB70FB789AB27B681A8238
:101D78000C37BD465DF8047B704700BF80B483B064
:101D880000AF78600B46FB70FB78002B08D07B68AF
:101D98001B889BB243F480639AB27B681A8007E081
:101DA8007B681B889BB223F480639AB27B681A8095
:101DB8000C37BD465DF8047B704700BF80B485B022
:101DC80000AF78600B46FB700023FB817B689B8922
:101DD800FB81FB8923F0FE03FB81FB789BB203F0B8
:101DE800FE039AB2FB8913439BB2FB817B68FA8995
:101DF8009A811437BD465DF8047B704780B483B080
:101E080000AF78600B46FB70FB78002B08D07B682E
:101E18009B899BB243F001039AB27B689A8107E0E1
:101E28007B689B899BB223F001039AB27B689A81F5
:101E38000C37BD465DF8047B704700BF80B483B0A3
:101E480000AF78600B46FB70FB78002B08D07B68EE
:101E58001B889BB243F040039AB27B681A8007E064
:101E68007B681B889BB223F040039AB27B681A8078
:101E78000C37BD465DF8047B704700BF80B483B063
:101E880000AF78600B46FB70FB78002B0AD07B68AC
:101E98001B889BB26FEA43436FEA53439AB27B684D
:101EA8001A8007E07B681B889BB2C3F30E039AB2C3
:101EB8007B681A800C37BD465DF8047B704700BF0D
:101EC80080B483B000AF78600B46FB70FB78002BC2
:101ED80008D17B681B889BB243F080039AB27B6869
:101EE8001A8007E07B681B889BB223F080039AB2B4
:101EF8007B681A800C37BD465DF8047B704700BFCD
:101F080080B483B000AF78600B467B807B88B3F5E4
:101F1800804F08D07B689B8B9BB223F480439AB296
:101F28007B689A8307E07B689B8B9BB243F4804372
:101F38009AB27B689A830C37BD465DF8047B70477C
:101F480080B483B000AF78600B467B807B88B3F5A4
:101F5800006F08D17B681B889BB243F400639AB278
:101F68007B681A8007E07B681B889BB223F40063B8
:101F78009AB27B681A800C37BD465DF8047B7047BF
:101F880080B483B000AF78600B467B807B88B3F564
:101F9800005F08D17B681B889BB243F400539AB258
:101FA8007B681A8007E07B681B889BB223F4005388
:101FB8009AB27B681A800C37BD465DF8047B70477F
:101FC80080B483B000AF78600B46FB70FB78002BC1
:101FD80008D07B681B889BB243F010039AB27B68D9
:101FE8001A8007E07B681B889BB223F010039AB223
:101FF8007B681A800C37BD465DF8047B704700BFCC
:1020080080B483B000AF78600B46FB70FB789AB25F
:102018007B681A820C37BD465DF8047B704700BFA9
:1020280080B483B000AF78607B681B8A9BB2DBB258
:1020380018460C37BD465DF8047B704780B483B002
:1020480000AF78600B46FB70FB78002B08D07B68EC
:102058001B889BB243F480539AB27B681A8007E0CE
:102068007B681B889BB223F480539AB27B681A80E2
:102078000C37BD465DF8047B704700BF80B483B061
:1020880000AF78600B467B807B88B3F5006F08D182
:102098007B681B889BB243F400639AB27B681A8002
:1020A80007E07B681B889BB223F400639AB27B68C5
:1020B8001A800C37BD465DF8047B704780B483B046
:1020C80000AF78600B46FB70FB78002B08D07B686C
:1020D8001B889BB243F020039AB27B681A8007E002
:1020E8007B681B889BB223F020039AB27B681A8016
:1020F8000C37BD465DF8047B704700BF80B483B0E1
:1021080000AF78607B681B8B9BB21B0A9BB2DBB26B
:1021180018460C37BD465DF8047B704780B483B021
:1021280000AF78600B46FB70FB78002B08D07B680B
:102138009B889BB243F400639AB27B689A8007E05D
:102148007B689B889BB223F400639AB27B689A8071
:102158000C37BD465DF8047B704700BF80B483B080
:1021680000AF78600B46FB70FB78002B08D07B68CB
:102178009B889BB243F480539AB27B689A8007E0AD
:102188007B689B889BB223F480539AB27B689A80C1
:102198000C37BD465DF8047B704700BF80B485B03E
:1021A80000AF78600B46FB700023FB607B68FB6028
:1021B800FA78FB681344FB60FB681B889BB21846DF
:1021C8001437BD465DF8047B704700BF80B483B008
:1021D80000AF78600B467B8013467B707B78002BC2
:1021E80008D07B689B889AB27B8813439AB27B6835
:1021F8009A8009E07B689B889AB27B88DB439BB214
:1022080013409AB27B689A800C37BD465DF8047B10
:10221800704700BF80B487B000AF78603960002392
:102228003B610023FB600023BB600023FB757B68D8
:102238009B8A9BB2FB607B681B8B9BB2BB60BB68B5
:102248001B04BB60FA68BB68134323F07F433B6100
:102258003A693B681A403B689A4202D10123FB75F0
:1022680001E00023FB75FB7D18461C37BD465DF871
:10227800047B704780B487B000AF786000237B612F
:1022880000233B610023FB607B689B8A9BB23B6118
:102298007B681B8B9BB2FB60FB681B04FB603A6985
:1022A800FB68134323F07F437B617B6918461C3727
:1022B800BD465DF8047B704780B487B000AF786096
:1022C80039600023FB7500233B610023FB607B68BA
:1022D800FB603B681B0F3B613B6823F07F433B601F
:1022E8003B69002B03D0FB681433FB6005E03B68B7
:1022F8001B0C3B60FB681833FB60FB681A683B6883
:102308001340002B02D00123FB7501E00023FB756D
:10231800FB7D18461C37BD465DF8047B704700BF3F
:1023280080B485B000AF786039600023FB603B68FB
:1023380023F07F43FB60FB689BB2DB439AB27B6868
:102348009A821437BD465DF8047B704780B485B027
:1023580000AF786039600023FB730023BB603B68E3
:1023680003F0E0631B0C7A68928892B21340BB605A
:102378003B6823F07F433B607B689B8A9BB21A468D
:102388003B681340002B05D0BB68002B02D001230B
:10239800FB7301E00023FB73FB7B18461437BD4633
:1023A8005DF8047B704700BF80B485B000AF7860EB
:1023B80039600023FB603B6823F07F43FB60FB68C8
:1023C8009BB2DB439AB27B689A821437BD465DF8AC
:1023D800047B704780B584B000AF00237B60002386
:1023E800BB600023FB73304BCA225A622E4B532228
:1023F8005A6200F0C5F80346002B02D10023FB7394
:1024080049E0294B00221A60274B42F201125A6018
:10241800254A254B9B6803F007039360224BDB6832
:1024280003F00403BB607B6801337B607B68B3F512
:10243800803F02D0BB68002BF0D01B4BDB6803F059
:102448000403002B02D10023FB7324E0164B9B6886
:10245800154B00229A60144B4FF6FF725A61124BCB
:10246800124A1A61104B00229A610F4B0022DA615E
:102478000D4B00221A620C4B0022DA600A4B002234
:102488001A6400F0C5F80346002B02D10023FB7341
:1024980001E00123FB73044BFF225A62FB7B1846C1
:1024A8001037BD4680BD00BF00280040FF007F00F8
:1024B80080B584B000AF78600023FB73194BCA2243
:1024C8005A62184B53225A6200F05AF80346002BFE
:1024D80002D10023FB731CE0124A124B9B6823F0C5
:1024E800400393600F490F4B9A687B681B6813433E
:1024F8008B600C4A7B689B6813610A49094B1A690F
:102508007B685B681B0413430B6100F073F80123BD
:10251800FB73044BFF225A62FB7B18461037BD46FB
:1025280080BD00BF0028004080B483B000AF786051
:102538007B6800221A607B687F225A607B68FF22D2
:102548009A600C37BD465DF8047B704780B483B051
:1025580000AF0346FB71FB79002B03D0074BFF222A
:102568005A6205E0054BCA225A62044B53225A624A
:102578000C37BD465DF8047B704700BF002800405B
:1025880080B485B000AF00237B600023FB73002379
:10259800BB60174BDB6803F04003002B1ED1144BC4
:1025A8004FF0FF32DA60124BDB6803F04003BB6088
:1025B8007B6801337B607B68B3F5803F02D0BB68E2
:1025C800002BF0D00A4BDB6803F04003002B02D04D
:1025D8000123FB7304E00023FB7301E00123FB7379
:1025E800FB7B18461437BD465DF8047B704700BF77
:1025F8000028004080B400AF044A044BDB6823F095
:102608008003D360BD465DF8047B70470028004016
:1026180080B485B000AF00237B600023FB730023E8
:10262800BB60184BCA225A62164B53225A62154A8B
:10263800144BDB6823F0A003D360124BDB6803F074
:102648002003BB607B6801337B607B68B3F5003F88
:1026580002D0BB68002BF0D00A4BDB6803F02003E4
:10266800002B02D00123FB7301E00023FB73054B11
:10267800FF225A62FB7B18461437BD465DF8047B7F
:10268800704700BF0028004080B584B000AF034603
:10269800FB710023FB73154BCA225A62134B53225A
:1026A8005A62FFF76DFF0346002B02D10023FB732C
:1026B80013E0FB79002B06D00C4A0C4B9B6843F0C7
:1026C8001003936005E0094A084B9B6823F0100348
:1026D8009360FFF78FFF0123FB73044BFF225A62BD
:1026E800FB7B18461037BD4680BD00BF0028004060
:1026F80080B483B000AF0346FB710F4BCA225A6205
:102708000D4B53225A62FB79002B06D00A4A0A4B1A
:102718009B6843F02003936005E0074A064B9B68DB
:1027280003F0DF039360044BFF225A620C37BD4667
:102738005DF8047B704700BF0028004090B585B065
:1027480000AF786039600023FB600023FB727B6870
:10275800002B09D1394B9B6803F04003002B14D19F
:102768003B680022DA7010E0344B9B6803F04003AA
:10277800002B07D03B681B78184601F075F8034614
:10278800FB6002E03B680022DA707B68002B0FD008
:102798003B681B781A043B685B781B0213433A6852
:1027A80092781A433B68DB781B041343FB601BE0F9
:1027B8003B681B78184601F039F803461C043B684F
:1027C8005B78184601F032F803461B021C433B684D
:1027D8009B78184601F02AF8034644EA03023B684E
:1027E800DB781B041343FB60144BCA225A62134B59
:1027F80053225A62FFF7C4FE0346002B02D100237E
:10280800FB7212E00D4AFB6803F07F3323F0FE43AE
:102818001360FFF7EFFEFFF7FBFE0346002B02D124
:102828000023FB7201E00123FB72044BFF225A6272
:10283800FB7A18461437BD4690BD00BF00280040FB
:1028480080B483B000AF78607B680022DA707B6860
:1028580000221A707B6800225A707B6800229A70E6
:102868000C37BD465DF8047B704700BF80B584B067
:1028780000AF786039600023FB60224B1B6803F0CF
:102888007F3323F0FE43FB60FB6803F47C131B0CCF
:10289800DAB23B681A70FB6803F4FE431B0ADAB22B
:1028A8003B685A70FB68DBB203F07F03DAB23B681F
:1028B8009A70FB6803F480031B0CDAB23B68DA7089
:1028C8007B68002B1AD13B681B78184600F0CCFFB8
:1028D80003461A463B681A703B685B78184600F056
:1028E800C3FF03461A463B685A703B689B781846F4
:1028F80000F0BAFF03461A463B689A701037BD4687
:1029080080BD00BF0028004080B483B000AF002322
:102918007B60064B9B6A7B60044B5B687B68184650
:102928000C37BD465DF8047B704700BF00280040A7
:1029380090B585B000AF786039600023FB60002354
:10294800FB727B68002B0ED13B685B7803F01003A9
:10295800002B08D03B685B7823F01003DBB20A3306
:10296800DAB23B685A707B68002B0DD03B685B7805
:10297800184600F079FF0346FB603B689B781846D1
:1029880000F072FF0346FB607B68002B0FD03B68AA
:10299800DB781A043B685B781B0213433A68927829
:1029A8001A433B681B785B031343FB601BE03B68DF
:1029B800DB78184600F03AFF03461C043B685B7856
:1029C800184600F033FF03461B021C433B689B7804
:1029D800184600F02BFF034644EA03023B681B78C5
:1029E8005B031343FB60144BCA225A62124B5322F7
:1029F8005A62FFF7C5FD0346002B02D10023FB7284
:102A080012E00D4AFB6823F07F4323F0C0035360B4
:102A1800FFF7F0FDFFF7FCFD0346002B02D1002372
:102A2800FB7201E00123FB72034BFF225A62FB7A1F
:102A380018461437BD4690BD0028004080B483B0C6
:102A480000AF78607B6801221A707B6801229A7057
:102A58007B6801225A707B680022DA700C37BD4609
:102A68005DF8047B704700BF80B584B000AF786024
:102A780039600023FB60224B5B6823F07F4323F01F
:102A8800C003FB60FB6803F47F031B0CDAB23B68EE
:102A9800DA70FB6803F4F8531B0ADAB23B685A7021
:102AA800FB68DBB203F03F03DAB23B689A70FB685D
:102AB80003F460435B0BDAB23B681A707B68002B47
:102AC8001AD13B68DB78184600F0CEFE03461A465A
:102AD8003B68DA703B685B78184600F0C5FE034631
:102AE8001A463B685A703B689B78184600F0BCFE53
:102AF80003461A463B689A701037BD4680BD00BF32
:102B08000028004090B587B000AFF860B9607A60DF
:102B180000237B61FB68002B09D1474B9B6803F0BE
:102B28004003002B27D17B680022DA7023E0424B58
:102B38009B6803F04003002B07D07B681B7818467E
:102B480000F092FE03467B6102E07B680022DA70A7
:102B58007B689B68002B07D17B681B7B184600F0BD
:102B680083FE03467B6106E07B681B7B184600F00A
:102B78007BFE03467B61FB68002B19D07B681B78C2
:102B88001A047B685B781B0213437A6892781A43AD
:102B98007B68DB781B041A437B681B7B1B061A4384
:102BA8007B689B681A437B685B6813437B612BE0F7
:102BB8007B681B78184600F039FE03461C047B68C6
:102BC8005B78184600F032FE03461B021C437B6804
:102BD8009B78184600F02AFE034644EA03027B6805
:102BE800DB781B0442EA03047B681B7B184600F071
:102BF8001DFE03461B0644EA03027B689B681A43D2
:102C08007B685B6813437B610B4BCA225A620A4B91
:102C180053225A62BB68B3F5807F03D1064A7B69A9
:102C2800D36102E0044A7B691362034BFF225A62B4
:102C38001C37BD4690BD00BF0028004080B483B05B
:102C480000AF78607B680022DA707B6800221A7017
:102C58007B6800225A707B6800229A707B68002289
:102C68009A607B6801221A737B6800225A600C37CD
:102C7800BD465DF8047B704780B586B000AFF8604C
:102C8800B9607A6000237B61BB68B3F5807F03D1AC
:102C98002E4BDB697B6102E02C4B1B6A7B617B69F5
:102CA80003F47C131B0CDAB27B681A707B6903F49B
:102CB800FE431B0ADAB27B685A707B69DBB203F009
:102CC8007F03DAB27B689A707B6903F480031B0C7C
:102CD800DAB27B68DA707B6903F07C531B0EDAB2D8
:102CE8007B681A737B6903F080427B689A607B6912
:102CF80003F080327B685A60FB68002B23D17B6825
:102D08001B78184600F0B0FD03461A467B681A7017
:102D18007B685B78184600F0A7FD03461A467B6877
:102D28005A707B689B78184600F09EFD03461A4649
:102D38007B689A707B681B7B184600F095FD0346FC
:102D48001A467B681A731837BD4680BD00280040B4
:102D580080B487B000AF78600B46FB700023FB603F
:102D680000233B610023FB751F4BCA225A621E4B8E
:102D780053225A62FB78002B08D01B491A4B9A68D9
:102D88007B6813438B600123FB7522E01649164BC1
:102D98009A687B68DB4313408B60134BDA687B6867
:102DA8001B0A13403B61FB680133FB60FB68B3F50A
:102DB800803F02D03B69002BEFD00B4BDA687B6871
:102DC8001B0A1340002B02D10023FB7501E00123ED
:102DD800FB75054BFF225A62FB7D18461C37BD4622
:102DE8005DF8047B704700BF0028004080B487B0BE
:102DF80000AFF860B9607A6000237B610E4BCA228D
:102E08005A620D4B53225A62BA687B6813437B613E
:102E1800FB68B3F5807F03D1074A7B69536402E0FE
:102E2800054A7B699364044BFF225A621C37BD46EE
:102E38005DF8047B704700BF0028004080B485B06F
:102E480000AF78600023FB607B68B3F5807F05D115
:102E5800084B5B6CC3F30E03FB6004E0054B9B6CF3
:102E6800C3F30E03FB60FB6818461437BD465DF8D4
:102E7800047B70470028004080B483B000AF7860BE
:102E88000C4BCA225A620B4B53225A62094A094B0D
:102E98009B6823F0070393600649064B9A687B6892
:102EA80013438B60034BFF225A620C37BD465DF813
:102EB800047B70470028004080B483B000AF78607E
:102EC800084BCA225A62074B53225A62054A7B684A
:102ED8005361044BFF225A620C37BD465DF8047BF0
:102EE800704700BF0028004080B400AF034B5B6907
:102EF8009BB21846BD465DF8047B70470028004029
:102F080080B487B000AF0346FB710023FB60002349
:102F18003B610023FB751E4BCA225A621C4B53228D
:102F28005A62FB79002B08D0194A194B9B6843F465
:102F3800806393600123FB751FE0154A144B9B685F
:102F480023F480639360124BDB6803F004033B6156
:102F5800FB680133FB60FB68B3F5803F02D03B6937
:102F6800002BF0D00A4BDB6803F00403002B02D1DE
:102F78000023FB7501E00123FB75054BFF225A6214
:102F8800FB7D18461C37BD465DF8047B704700BFC3
:102F98000028004080B483B000AF786039600E4BE1
:102FA800CA225A620C4B53225A620B4A0A4B9B683C
:102FB80023F4802393600848074B9A6879683B6834
:102FC8000B4313438360044BFF225A620C37BD4600
:102FD8005DF8047B704700BF0028004080B400AF54
:102FE800044B9B6803F480231846BD465DF8047BB8
:102FF800704700BF0028004080B483B000AF7860FD
:1030080039600E4BCA225A620C4B53225A620B4A41
:103018000A4B9B6823F4E00393600848074B9A68BF
:1030280079683B680B4313438360044BFF225A6261
:103038000C37BD465DF8047B704700BF0028004090
:1030480080B584B000AF786039600023FB730F4B04
:10305800CA225A620D4B53225A62FFF791FA03466D
:10306800002B02D10023FB7308E008497A683B680B
:1030780013438B61FFF7BEFA0123FB73034BFF2257
:103088005A62FB7B18461037BD4680BD00280040B9
:1030980080B584B000AF0346FB710023FB73154B6A
:1030A800CA225A62134B53225A62FFF769FA03463F
:1030B800002B02D10023FB7313E0FB79002B06D011
:1030C8000C4A0C4B9B6843F08003936005E0094A67
:1030D800084B9B6823F080039360FFF78BFA01236A
:1030E800FB73044BFF225A62FB7B18461037BD4620
:1030F80080BD00BF0028004080B483B000AF034605
:10310800FB710F4BCA225A620D4B53225A62FB794C
:10311800002B06D00A4A0A4B9B6843F400039360CD
:1031280005E0074A064B9B6823F400039360044BB1
:10313800FF225A620C37BD465DF8047B704700BF1A
:103148000028004080B483B000AF78600C4BCA22DE
:103158005A620B4B53225A62094A094B9B6823F463
:10316800002393600649064B9A687B6813438B607B
:10317800034BFF225A620C37BD465DF8047B70474B
:103188000028004080B487B000AFF860B9607A606A
:103198000023FB7500233B611A4BCA225A62194B64
:1031A80053225A62174BDB6803F48033002B0DD08F
:1031B80002E03B6901333B61124BDB6803F4803367
:1031C800002B03D03B69B3F5003FF2D10D4BDB6810
:1031D80003F48033002B09D10A49FA68BB681A4303
:1031E8007B681343CB630123FB7501E00023FB7568
:1031F800044BFF225A62FB7D18461C37BD465DF81A
:10320800047B70470028004080B485B000AF786028
:103218000B46FB700023FB60124B9B6823F4006392
:1032280023F00803FB60FB78002B06D07A68FB6864
:10323800134343F40063FB6003E0FA687B681343BD
:10324800FB60084BCA225A62064B53225A62054A4F
:10325800FB689360034BFF225A621437BD465DF842
:10326800047B70470028004080B586B000AFF86046
:10327800B9607A6000237B6100233B613E4B1B6B86
:1032880003F07F3323F0FE437B613B4B5B6B23F002
:103298007F4323F0C0033B617B6903F47C131B0C61
:1032A800DAB2BB681A707B6903F4FE431B0ADAB210
:1032B800BB685A707B69DBB203F07F03DAB2BB6884
:1032C8009A707B6903F480031B0CDAB2BB68DA706E
:1032D8007B680022DA703B6903F4F8531B0ADAB200
:1032E8007B685A703B69DBB203F03F03DAB27B6854
:1032F8009A703B6903F460435B0BDAB27B681A701F
:10330800FB68002B35D1BB681B78184600F0ACFA77
:1033180003461A46BB681A70BB685B78184600F00B
:10332800A3FA03461A46BB685A70BB689B781846CE
:1033380000F09AFA03461A46BB689A707B685B7875
:10334800184600F091FA03461A467B685A707B6863
:103358009B78184600F088FA03461A467B689A70EC
:103368007B681B78184600F07FFA03461A467B688C
:103378001A701837BD4680BD0028004080B400AFE1
:10338800034B9B6B1846BD465DF8047B704700BF36
:103398000028004080B483B000AF786039603B6893
:1033A800002B08D10A490A4B1A6C7B685B00DB4387
:1033B80013400B6406E00649054B1A6C7B685B00FA
:1033C80013430B640C37BD465DF8047B704700BFA0
:1033D8000028004080B483B000AF78600B46FB70D3
:1033E800FB78002B06D00949084B1A6C7B681343FD
:1033F8000B6406E00549054B1A6C7B68DB431340F8
:103408000B640C37BD465DF8047B7047002800400C
:1034180080B483B000AF7860084A084B1B6C23F473
:10342800C05313640549054B1A6C7B6813430B643E
:103438000C37BD465DF8047B704700BF002800408C
:1034480080B483B000AF7860084A084B1B6C23F443
:10345800E06313640549054B1A6C7B6813430B64DE
:103468000C37BD465DF8047B704700BF002800405C
:1034780080B483B000AF7860084A084B1B6C23F413
:10348800C04313640549054B1A6C7B6813430B64EE
:103498000C37BD465DF8047B704700BF002800402C
:1034A80080B483B000AF0346FB71FB79002B06D0D4
:1034B800084A084B1B6C43F08003136405E0054A77
:1034C800044B1B6C23F0800313640C37BD465DF876
:1034D800047B70470028004080B483B000AF0346E7
:1034E800FB71FB79002B06D0084A084B1B6C23F4B0
:1034F8000043136405E0054A044B1B6C43F4004386
:1035080013640C37BD465DF8047B70470028004003
:1035180080B485B000AF786039600023FB60084B49
:10352800FB607B689A00FB681344FB60FB681A46E3
:103538003B6813601437BD465DF8047B704700BFD5
:103548005028004080B485B000AF78600023FB604D
:10355800074BFB607B689A00FB681344FB60FB68C1
:103568001B6818461437BD465DF8047B704700BFDA
:103578005028004080B483B000AF7860084A084BF8
:103588001B6C23F4803313640549054B1A6C7B6864
:1035980013430B640C37BD465DF8047B704700BFCE
:1035A8000028004080B483B000AF7860084A084B18
:1035B8001B6C23F4003313640549054B1A6C7B68B4
:1035C80013430B640C37BD465DF8047B704700BF9E
:1035D8000028004080B483B000AF7860084A084BE8
:1035E8001B6C23F4802313640549054B1A6C7B6814
:1035F80013430B640C37BD465DF8047B704700BF6E
:103608000028004080B584B000AF7860396000239E
:10361800FB730023BB60214BCA225A621F4B532203
:103628005A621E4BDB6803F00803002B0DD002E042
:10363800BB680133BB60194BDB6803F00803002B40
:1036480003D0BB68B3F5805FF2D1144BDB6803F09D
:103658000803002B18D1114B9B6803F01003002BB3
:103668000FD10E493A687B681343CB62FEF7D0FF4F
:103678000346002B02D10023FB7307E00123FB73F1
:1036880004E00023FB7301E00023FB73034BFF22DC
:103698005A62FB7B18461037BD4680BD00280040A3
:1036A80080B483B000AF78600B46FB70194BCA2218
:1036B8005A62184B53225A62FB78002B10D01549D6
:1036C800144B9A687B6823F0040313438B601149F9
:1036D800104B1A6C7B6803F0040313430B6411E06E
:1036E8000C490C4B9A687B6823F00403DB431340B6
:1036F8008B600849074B1A6C7B6803F00403DB43B3
:1037080013400B64034BFF225A620C37BD465DF829
:10371800047B70470028004080B485B000AF786013
:103728000023FB730023BB600B4BDA6843F6777307
:103738001340BB60BA687B681340002B02D001239A
:10374800FB7301E00023FB73FB7B18461437BD466F
:103758005DF8047B704700BF0028004080B483B048
:1037680000AF786008497B689BB243F08003DA4376
:10377800054BDB6803F080031343CB600C37BD4671
:103788005DF8047B704700BF0028004080B487B014
:1037980000AF78600023FB7500233B610023FB60CA
:1037A800134B1B6C03F004033B61114B9A687B6855
:1037B8001A407B68D90B3B690B401343FB600C4BE9
:1037C800DA687B681B0913403B61FB68002B06D055
:1037D8003B699BB2002B02D00123FB7501E000235B
:1037E800FB75FB7D18461C37BD465DF8047B7047AA
:1037F8000028004080B485B000AF78600023FB60EB
:103808007B681B09FB600849FB689BB243F0800397
:10381800DA43054BDB6803F080031343CB601437AE
:10382800BD465DF8047B70470028004080B485B031
:1038380000AF0346FB710023FB7305E0FB7B0133FC
:10384800FB73FB790A3BFB71FB79092BF6D8FB7BF1
:103858001B01DAB2FB791343DBB218461437BD46B5
:103868005DF8047B704700BF80B485B000AF0346A5
:10387800FB710023FB73FB791B09DBB21A4692002C
:1038880013445B00FB73FB7903F00F03DAB2FB7B95
:103898001344DBB218461437BD465DF8047B704705
:1038A80080B582B000AF78607B680D4A93420AD138
:1038B8004FF000700121FDF727FB4FF00070002149
:1038C800FDF722FB09E04FF080600121FDF71CFBAA
:1038D8004FF080600021FDF717FB0837BD4680BD1B
:1038E8000064004080B485B000AF78603960002380
:1038F800FB730023BB607B681B6823F002027B68B4
:103908001A607B681B6843F001027B681A6002E05A
:10391800BB680133BB607B685B6803F00103002B65
:1039280004D1BB684FF6FF729342F1D17B685B68A4
:1039380003F00103002B02D10023FB739CE03B68DA
:103948009B79012B06D17B681B6843F080027B685A
:103958001A6005E07B681B6823F080027B681A60A8
:103968003B68DB79012B06D17B681B6843F040027A
:103978007B681A6005E07B681B6823F040027B685F
:103988001A603B681B7A012B06D17B681B6843F0E1
:1039980020027B681A6005E07B681B6823F0200220
:1039A8007B681A603B685B7A012B06D17B681B68D1
:1039B80043F010027B681A6005E07B681B6823F0FF
:1039C80010027B681A603B689B7A012B06D17B68E2
:1039D8001B6843F008027B681A6005E07B681B6877
:1039E80023F008027B681A603B68DB7A012B06D15A
:1039F8007B681B6843F004027B681A6005E07B68FB
:103A08001B6823F004027B681A603B689B789A075E
:103A18003B68DB781B061A433B681B791B041A4377
:103A28003B685B791B051A433B681B88013B1A43BB
:103A38007B68DA617B681B6823F001027B681A6087
:103A48000023BB6002E0BB680133BB607B685B6836
:103A580003F00103002B04D0BB684FF6FF729342BA
:103A6800F1D17B685B6803F00103002B02D00023CF
:103A7800FB7301E00123FB73FB7B18461437BD463B
:103A88005DF8047B704700BF80B485B000AF7860F4
:103A98000023FB607B689B7A1A4601239340FB60F6
:103AA800554A554BD3F8003243F00103C2F80032AF
:103AB8005149514BD3F81C22FB68DB431340C1F832
:103AC8001C327B681B7B002B25D14B494A4BD3F812
:103AD8000C22FB68DB431340C1F80C3246497B6873
:103AE8009B7A18467B68DB881B047A6852881A43DD
:103AF80000F1480341F833203F497B689B7A184618
:103B08007B689B881B047A6812881A4300F1480373
:103B1800DB000B445A607B681B7B012B24D13649A0
:103B2800354BD3F80C22FB681343C1F80C323249E9
:103B38007B689B7A18467B681B881B047A685288C6
:103B48001A4300F1480341F833202B497B689B7ADC
:103B580018467B689B881B047A68D2881A4300F150
:103B68004803DB000B445A607B68DB7A002B09D1E1
:103B78002149214BD3F80422FB68DB431340C1F8E9
:103B8800043207E01C491C4BD3F80422FB6813439A
:103B9800C1F804327B681B89002B08D11649164BE3
:103BA800D3F81422FB68DB431340C1F814327B6856
:103BB8001B89012B07D110490F4BD3F81422FB683E
:103BC8001343C1F814327B685B7B012B07D10A4988
:103BD800094BD3F81C22FB681343C1F81C32064A70
:103BE800054BD3F8003223F00103C2F80032143732
:103BF800BD465DF8047B70470064004080B483B024
:103C080000AF78607B6800229A717B680022DA71C5
:103C18007B6800221A727B6800225A727B68002235
:103C28009A727B680022DA727B6800229A707B683D
:103C38000022DA707B6803221A717B6802225A71AB
:103C48007B6801221A800C37BD465DF8047B7047FB
:103C580080B483B000AF0346FB71144A134BD3F80A
:103C6800003243F00103C2F80032104A0F4BD3F878
:103C7800003223F47C5323F00E03C2F800320B49C0
:103C88000A4BD3F80022FB791B021343C1F8003218
:103C9800064A064BD3F8003223F00103C2F800327B
:103CA8000C37BD465DF8047B704700BF00640040D8
:103CB80080B483B000AF78600B46FB70FB78002BB4
:103CC80006D07B681B6843F480327B681A6005E085
:103CD8007B681B6823F480327B681A600C37BD460A
:103CE8005DF8047B704700BF80B483B000AF786094
:103CF8000B46FB70FB78002B1ED07B681B6843F0DB
:103D080080027B681A607B68D3F8843143F4807240
:103D18007B68C3F884217B68D3F8943143F48072BC
:103D28007B68C3F894217B68D3F8A43143F480728C
:103D38007B68C3F8A4211DE07B681B6823F0800220
:103D48007B681A607B68D3F8843123F480727B68BF
:103D5800C3F884217B68D3F8943123F480727B689C
:103D6800C3F894217B68D3F8A43123F480727B686C
:103D7800C3F8A4210C37BD465DF8047B704700BF2B
:103D880080B485B000AF786039600023FB737B682E
:103D98009B6803F08063002B02D00023FB7313E0C1
:103DA8007B689B6803F00063002B02D00123FB7340
:103DB8000AE07B689B6803F08053002B02D0022343
:103DC800FB7301E00423FB73FB7B042B00F098805A
:103DD800FB7BFA7B7968183212010A44126802F0F8
:103DE8000102796818331B010B441A603B681B7A7F
:103DF800002B13D1FB7BFA7B7968183212010A4435
:103E080011683A68126852053868407A02430A43D2
:103E1800796818331B010B441A6015E0FB7BFA7BA9
:103E28007968183212010A4411683A685268D20057
:103E38003868007A02433868407A02430A4379684E
:103E480018331B010B441A603B689B7A03F00F037D
:103E5800DAB23B689A72FB7BFA7B796818321201F6
:103E68000A44526822F00F02796818331B010B4488
:103E78005A60FB7BFA7B7968183212010A4452684F
:103E88003968897A0A43796818331B010B445A60E8
:103E9800FB7B3A68927B11063A68527B1204114305
:103EA8003A68127B12020A433968C97A0A43796868
:103EB8001B010B4403F5C4731A60FB7B3A68927CC0
:103EC80011063A68527C120411433A68127C1202B5
:103ED8000A433968C97B0A4379681B010B4403F517
:103EE800C4735A60FB7BFA7B7968183212010A4462
:103EF800126842F00102796818331B010B441A60FA
:103F0800FB7B18461437BD465DF8047B704700BF3D
:103F180080B485B000AF78600B46FB700023FB606F
:103F2800FB78012B09D0022B0DD0002B11D17B6817
:103F38009A68264B1340FB600EE07B689A68244B16
:103F48001340FB6008E07B689A68224B1340FB60D3
:103F580002E00023FB6000BFFB681F4A93421BD0AE
:103F68001D4A934208D81D4A934212D0174A9342D9
:103F780018D0002B0AD01EE0194A93420FD0154AD8
:103F8800934215D0124A93420FD014E00223FB60EB
:103F980014E00023FB6011E00023FB600EE0002327
:103FA800FB600BE00123FB6008E00123FB6005E0F8
:103FB8000123FB6002E00023FB6000BFFB68DBB26B
:103FC80018461437BD465DF8047B704703000004AB
:103FD80000030008000003100001000801000004AD
:103FE8000000011080B483B000AF78600B46FB700E
:103FF800FB78012B0BD0022B10D0002B00D014E043
:104008007B689B6843F080027B689A600DE07B6860
:104018009B6843F400427B689A6006E07B689B6873
:1040280043F400027B689A6000BF0C37BD465DF818
:10403800047B704780B485B000AFF8600B467A60A7
:10404800FB72FB7AFA681B331B0113441B68DBB253
:1040580003F00403DAB27B681A727B681B7A002BC0
:1040680009D1FB7AFA681B331B0113441B685A0DEC
:104078007B681A6008E0FB7AFA681B331B0113445B
:104088001B68DA087B685A60FB7AFA681B331B01E5
:1040980013441B68DBB203F00203DAB27B685A727E
:1040A800FB7AFA681B331B0113445B68DBB203F02D
:1040B8000F03DAB27B689A72FB7AFA681B331B012A
:1040C80013445B681B0ADAB27B68DA74FB7AFA6815
:1040D8001B01134403F5DC731B68DAB27B68DA72E0
:1040E800FB7AFA681B01134403F5DC731B681B0A8F
:1040F800DAB27B681A73FB7AFA681B01134403F57A
:10410800DC731B681B0CDAB27B685A73FB7AFA689B
:104118001B01134403F5DC731B681B0EDAB27B68C2
:104128009A73FB7AFA681B01134403F5DC735B6826
:10413800DAB27B68DA73FB7AFA681B01134403F579
:10414800DC735B681B0ADAB27B681A74FB7AFA685C
:104158001B01134403F5DC735B681B0CDAB27B6844
:104168005A74FB7AFA681B01134403F5DC735B6825
:104178001B0EDAB27B689A74FB7A002B06D1FB68B7
:10418800DB6843F02002FB68DA6005E0FB681B6926
:1041980043F02002FB681A611437BD465DF8047BC2
:1041A800704700BF80B483B000AF78600B46FB70E7
:1041B800FB78002B06D17B68DB6843F020027B6824
:1041C800DA6005E07B681B6943F020027B681A61AE
:1041D8000C37BD465DF8047B704700BF80B485B0DE
:1041E80000AF78600B46FB700023FB73FB78002B55
:1041F80006D17B68DB68DBB203F00303FB730BE0DB
:10420800FB78012B06D17B681B69DBB203F0030343
:10421800FB7301E00023FB73FB7B18461437BD4694
:104228005DF8047B704700BF80B485B000AF78604C
:104238000B46FB700023FB734FF6FF73BB60FB78E4
:10424800002B20D17B681B6823F0030343F0010295
:104258007B681A6002E0BB68013BBB607B685B68F7
:1042680003F00303012B02D0BB68002BF3D17B685A
:104278005B6803F00303012B02D00023FB734AE0C1
:104288000123FB7347E0FB78012B1ED17B681B6879
:1042980023F003027B681A6002E0BB68013BBB6045
:1042A8007B685B6803F00303002B02D0BB68002B1C
:1042B800F3D17B685B6803F00303002B02D0002373
:1042C800FB7328E00123FB7325E0FB78022B20D148
:1042D8007B681B6823F0030343F002027B681A60C3
:1042E80002E0BB68013BBB607B685B6803F00303CB
:1042F800022B02D0BB68002BF3D17B685B6803F00C
:104308000303022B02D00023FB7304E00123FB7399
:1043180001E00023FB73FB7B18461437BD465DF8AC
:10432800047B704780B485B000AF78600023FB73CE
:104338007B681B6823F0030343F002027B681A6062
:104348007B685B6803F00303022B01D10123FB7335
:10435800FB7B18461437BD465DF8047B704700BFE9
:1043680080B485B000AF78604FF6FF73FB60002320
:10437800FB727B681B6823F002027B681A6002E00C
:10438800FB68013BFB607B685B6803F00203002B62
:1043980002D0FB68002BF3D17B685B6803F0020353
:1043A800002B01D10123FB72FB7A18461437BD4656
:1043B8005DF8047B704700BF80B485B000AF7860BB
:1043C8000023FB737B689B69DBB203F07003FB730C
:1043D800FB7B18461437BD465DF8047B704700BF69
:1043E80080B485B000AF78600023FB737B689B695D
:1043F8001B0EFB73FB7B18461437BD465DF8047B28
:10440800704700BF80B485B000AF78600023FB73AD
:104418007B689B6903F47F031B0CFB73FB7B1846CB
:104428001437BD465DF8047B704700BF80B485B083
:1044380000AFF860B9601346FB71FB79002B06D01A
:10444800FB685A69BB681A43FB685A6106E0FB6857
:104458005A69BB68DB431A40FB685A611437BD468A
:104468005DF8047B704700BF80B485B000AF78600A
:1044780039600023FB733B6803F47003002B0DD0F5
:104488007B689A693B681340C3F31303002B02D07F
:104498000123FB7348E00023FB7345E03B6803F00E
:1044A8008073002B0DD07B685A683B681340C3F3B8
:1044B8001303002B02D00123FB7335E00023FB73A9
:1044C80032E03B6803F00063002B0DD07B689A68EC
:1044D8003B681340C3F31303002B02D00123FB7383
:1044E80022E00023FB731FE03B6803F00073002BFE
:1044F8000DD07B68DA683B681340C3F31303002BC5
:1045080002D00123FB730FE00023FB730CE07B68F0
:104518001A693B681340C3F31303002B02D001232D
:10452800FB7301E00023FB73FB7B18461437BD4681
:104538005DF8047B704700BF80B485B000AF786039
:1045480039600023FB603B68164A934203D17B68BD
:1045580000229A6121E03B68C3F31303FB603B68C8
:1045680003F00073002B03D07B68FA68DA6014E06C
:104578003B6803F08063002B03D07B68FA681A61FC
:104588000BE03B6803F00063002B03D07B68FA68FC
:104598009A6002E07B68FA685A601437BD465DF895
:1045A800047B70477000F03080B584B000AF78604D
:1045B80039600023FB737B685A693B681340002B02
:1045C80000F0B2803B68402B62D0402B0FD8042B00
:1045D8003AD0042B04D8012B24D0022B2BD09FE0F7
:1045E800102B43D0202B4AD0082B36D098E0B3F5B7
:1045F800006F00F08380B3F5006F09D8B3F5007F32
:104608006AD0B3F5806F70D0B3F5807F5BD087E058
:10461800B3F5803F45D0B3F5003F4BD0B3F5004F1D
:1046280075D07DE07B689B681846434900F0F4F834
:104638000346FB7377E07B68DB681846032100F0CC
:10464800EBF80346FB736EE07B68DB6818460821CD
:1046580000F0E2F80346FB7365E07B68DB68184608
:10466800102100F0D9F80346FB735CE07B681B69F6
:104678001846032100F0D0F80346FB7353E07B682B
:104688001B691846082100F0C7F80346FB734AE087
:104698007B681B691846102100F0BEF80346FB73BF
:1046A80041E07B685B681846082100F0B5F80346CE
:1046B800FB7338E07B685B681846102100F0ACF8A3
:1046C8000346FB732FE07B689B691846012100F0C5
:1046D800A3F80346FB7326E07B689B691846022112
:1046E80000F09AF80346FB731DE07B689B69184647
:1046F800042100F091F80346FB7314E07B689B6982
:104708001846702100F088F80346FB730BE07B68BD
:104718005B681846042100F07FF80346FB7302E04B
:104728000023FB7300BF01E00023FB73FB7B1846EB
:104738001037BD4680BD00BF0101010080B483B0C1
:1047480000AF786039603B68B3F5807F43D0B3F53C
:10475800807F0DD8082B2AD0082B04D8012B1ED017
:10476800042B20D051E0202B25D0402B27D04CE023
:10477800B3F5006F3BD0B3F5006F06D8B3F5007FF3
:104788002DD0B3F5806F2ED03FE0B3F5803F1AD01F
:10479800B3F5003F1BD0B3F5004F2FD035E07B6851
:1047A8001C4A9A6031E07B680822DA602DE07B6859
:1047B8001022DA6029E07B6808221A6125E07B680C
:1047C80010221A6121E07B6808225A601DE07B688C
:1047D80010225A6019E07B6804225A6015E07B6851
:1047E80004225A6011E07B6804225A600DE07B685D
:1047F80000229A617B6804225A6006E07B680022E6
:104808009A617B6804225A6000BF0C37BD465DF888
:10481800047B70470101010080B485B000AF786067
:1048280039600023FB737A683B681340002B02D081
:104838000123FB7301E00023FB73FB7B184614374D
:10484800BD465DF8047B704780B500AF4FF48040EB
:104858000121FCF777FB4FF480400021FCF772FB45
:1048680080BD00BF80B483B000AF0346FB71044A2B
:10487800FB7913600C37BD465DF8047B704700BFB9
:104888000038014090B484B000AF03460A46FB717B
:104898001346BB710023FB60BB7903F003039B0045
:1048A8000F2202FA03F3FB601649BB799B08DBB2BF
:1048B8001846144ABB799B08DBB2023352F823200E
:1048C800FB68DB431A40831C41F823200D48BB7961
:1048D8009B08DBB21C460B4ABB799B08DBB2023350
:1048E80052F82320F979BB7903F003039B0001FAFE
:1048F80003F31A43A31C40F823201037BD4690BC8D
:10490800704700BF0038014080B483B000AF7860C2
:10491800034A7B6813600C37BD465DF8047B70471B
:10492800DC00274280B483B000AF0346FB71044A21
:10493800FB7913600C37BD465DF8047B704700BFF8
:104948000004274280B483B000AF0023FB71094BF9
:104958001B6A03F48073002B02D00123FB7101E072
:104968000023FB71FB7918460C37BD465DF8047BC4
:10497800704700BF0038014080B582B000AF786052
:104988007B68174A93420AD14FF480500121FCF703
:10499800D9FA4FF480500021FCF7D4FA1CE07B6868
:1049A800104A93420AD14FF480400121FCF7ACFA37
:1049B8004FF480400021FCF7A7FA0DE07B680A4A13
:1049C800934209D14FF400400121FCF79DFA4FF4BE
:1049D80000400021FCF798FA0837BD4680BD00BFAB
:1049E8000030014000380040003C004080B485B0F1
:1049F80000AF786039600023FB817B681B88FB81EE
:104A0800FB8903F44153FB813B681A883B685B8848
:104A180013439AB23B689B8813439AB23B68DB887E
:104A280013439AB23B681B8913439AB23B685B896C
:104A380013439AB23B689B8913439AB23B68DB895C
:104A480013439AB2FB891343FB817B68FA891A8066
:104A58007B689B8B9BB223F400639AB27B689A8332
:104A68003B681A8A7B681A821437BD465DF8047B56
:104A7800704700BF80B48BB000AF78603960002306
:104A88007B830223FB840023BB8401237B840023D4
:104A9800FB6100237B6100233B610023FB60002353
:104AA800BB607B689B8B9BB223F47B6323F00F0373
:104AB8009AB27B689A837B6802221A847B689B8BF4
:104AC8007B833B689B68022B04D10023BB840223B1
:104AD800FB8472E03B689B88002B02D101237B8416
:104AE80001E002237B844D4B9B6803F40003002BF9
:104AF80005D04A4A494B9B6823F400039360474B0F
:104B0800D3F8842047F6C07313409B09C3F3080306
:104B1800FB60424BD3F8843003F0E0431B0F03F0F3
:104B28000703BB603D4B5B6803F03F033B613C4AB6
:104B38003B69B2FBF3F3FA6802FB03F2BB68B2FB12
:104B4800F3F37B613B68DB88B3F5007F0FD17B69AA
:104B58001A0A13469B0013445B001A463B689B687D
:104B6800B2FBF3F39BB205339BB2FB6112E07B8C83
:104B78005B011A467B69B3FBF2F213469B001344B0
:104B88005B001A463B689B68B2FBF3F39BB20533A4
:104B98009BB2FB61FB69234AA2FB0323DB08FB6191
:104BA800FB699BB203F00103BB84BB8CFA69D31A7F
:104BB8005B08FB84BB8C1B02BB84FB8C012B02D9DA
:104BC800FB8CFF2B03D90223FB840023BB843B68A7
:104BD800DA88BB8C13439AB2FB8C13439AB27B6876
:104BE8001A843B681A883B6859883B6898883B68F0
:104BF8009B8903439BB20B439BB213439AB27B8BB3
:104C080013439BB243F400637B837B687A8B9A835C
:104C18002C37BD465DF8047B704700BF0038024062
:104C280000127A00CDCCCCCC80B483B000AF7860D1
:104C38007B6800221A807B6800225A807B680022E9
:104C48009A807B680022DA807B6800221A817B6860
:104C580000225A817B6800229A817B680022DA81CF
:104C68007B6807221A820C37BD465DF8047B7047C3
:104C780080B483B000AF78607B6800221A807B68BC
:104C880000225A807B6800229A807B680022DA80A2
:104C98007B6802229A607B6800229A810C37BD46A5
:104CA8005DF8047B704700BF80B483B000AF7860C4
:104CB8000B46FB70FB78002B08D07B681B889BB2E7
:104CC80043F040039AB27B681A8007E07B681B8830
:104CD8009BB223F040039AB27B681A800C37BD461A
:104CE8005DF8047B704700BF80B483B000AF786084
:104CF8000B46FB70FB78002B08D07B689B8B9BB224
:104D080043F480639AB27B689A8307E07B689B8B45
:104D18009BB223F480639AB27B689A830C37BD46B2
:104D28005DF8047B704700BF80B483B000AF786043
:104D38000B467B807B681B889BB223F400639AB286
:104D48007B681A807B681B889AB27B8813439AB267
:104D58007B681A800C37BD465DF8047B704700BF3E
:104D680080B483B000AF78600B467B807B88B3F556
:104D7800804F08D17B681B889BB243F480439AB26A
:104D88007B681A8007E07B681B889BB223F480430A
:104D98009AB27B681A800C37BD465DF8047B704771
:104DA80080B483B000AF78600B467B807B884FF679
:104DB800FF62934208D07B681B889BB243F48073E0
:104DC8009AB27B681A8007E07B681B889BB223F441
:104DD80080739AB27B681A800C37BD465DF8047BF5
:104DE800704700BF80B483B000AF78600B46FB709B
:104DF800FB78002B08D07B689B889BB243F00403A8
:104E08009AB27B689A8007E07B689B889BB223F004
:104E180004039AB27B689A800C37BD465DF8047B20
:104E2800704700BF80B483B000AF78600B46FB705A
:104E3800FB78002B08D07B689B889BB243F010035B
:104E48009AB27B689A8007E07B689B889BB223F0C4
:104E580010039AB27B689A800C37BD465DF8047BD4
:104E6800704700BF80B485B000AF78603960002318
:104E7800BB810023FB817B689B8B9BB223F47B6304
:104E880023F00F039AB27B689A837B6802221A8404
:104E98007B689B8BBB813B681B88B3F5007F03D085
:104EA8003B681B88002B03D14FF48073FB810BE018
:104EB8003B681B88B3F5407F04D03B681B88B3F57B
:104EC800807F01D10023FB813B685A883B68998821
:104ED8003B689B890B439BB213439AB2FB891343EC
:104EE8009AB2BB8913439BB243F40063BB817B68CE
:104EF800BA899A831437BD465DF8047B704700BFB2
:104F080080B483B000AF78607B689B899BB21846F9
:104F18000C37BD465DF8047B704700BF80B483B092
:104F280000AF78600B467B807B687A889A810C3763
:104F3800BD465DF8047B704780B483B000AF7860ED
:104F48000B46FB70FB78002B08D07B681B889BB254
:104F580043F400539AB27B681A8007E07B681B8889
:104F68009BB223F400539AB27B681A800C37BD4673
:104F78005DF8047B704700BF80B483B000AF7860F1
:104F88007B681B889BB243F480539AB27B681A8073
:104F98000C37BD465DF8047B704700BF80B485B010
:104FA80000AF78600B46FB700023FB81FB78012B78
:104FB80003D07B681B8BFB8102E07B689B8AFB81AB
:104FC800FB8918461437BD465DF8047B704700BF5F
:104FD80080B483B000AF78607B681B8A9BB21846A8
:104FE8000C37BD465DF8047B704700BF80B483B0C2
:104FF80000AF78600B467B8013467B707B78002B74
:1050080008D07B689B889AB27B8813439AB27B68E6
:105018009A8009E07B689B889AB27B88DB439BB2C5
:1050280013409AB27B689A800C37BD465DF8047BC2
:10503800704700BF80B485B000AF78600B46FB7046
:105048001346BB700023FB810023BB81FB781B093F
:10505800DBB2FB81FB89012202FA03F3BB81BB7837
:10506800002B08D07B689B889AB2BB8913439AB2FD
:105078007B689A8009E07B689B889AB2BB89DB438E
:105088009BB213409AB27B689A801437BD465DF88C
:10509800047B704780B485B000AF78600B467B8096
:1050A8000023FB737B681B899AB27B8813409BB2F1
:1050B800002B02D00123FB7301E00023FB73FB7B71
:1050C80018461437BD465DF8047B704780B483B03A
:1050D80000AF78600B467B807B88DB439AB27B68A5
:1050E8001A810C37BD465DF8047B704780B485B0E3
:1050F80000AF78600B46FB700023FB730023BB8175
:1051080000237B8100233B81FB7803F00F030122FE
:1051180002FA03F3BB81FB781B09DBB27B817B8935
:10512800012202FA03F37B817B689B889AB27B8910
:1051380013403B817B681B899AB2BB8913409BB2A1
:10514800002B05D03B89002B02D00123FB7301E023
:105158000023FB73FB7B18461437BD465DF8047BC0
:10516800704700BF80B485B000AF78600B46FB7015
:105178000023FB81FB7803F00F03012202FA03F3FB
:10518800FB81FB89DB439AB27B681A811437BD46E1
:105198005DF8047B704700BF90B5BBB000AFB96045
:1051A8007B600346FB731346BB8100237B610023AE
:1051B800C7F8D430012387F8E730BB68C7F8D03088
:1051C8007B68C7F8E030D7F8FC30C7F8DC3000233C
:1051D800C7F8D83007F11803184605F0EDFBBB896E
:1051E800C02B4CD0B3F5807F00F0B480802B00D06A
:1051F8001FE10023FB87D7F8D0301B68C7F8CC30F5
:10520800D7F8CC301BBAC7F8C830D7F8C830BB625B
:10521800D7F8D0300433C7F8D030D7F8D0301B686F
:10522800C7F8C430D7F8C4301BBAC7F8C030D7F8AD
:10523800C030FB62D7F8D0300433C7F8D030D7F885
:10524800D0301B68C7F8BC30D7F8BC301BBAC7F8D9
:10525800B830D7F8B8303B63D7F8D0300433C7F844
:10526800D030D7F8D0301B68C7F8B430D7F8B4308E
:105278001BBAC7F8B030D7F8B0307B63D9E04FF429
:105288008073FB87D7F8D0301B68C7F8AC30D7F8E5
:10529800AC301BBAC7F8A830D7F8A8303B62D7F8AB
:1052A800D0300433C7F8D030D7F8D0301B68C7F8EF
:1052B800A430D7F8A4301BBAC7F8A030D7F8A0306C
:1052C8007B62D7F8D0300433C7F8D030D7F8D03065
:1052D8001B68C7F89C30D7F89C301BBAC7F89830C1
:1052E800D7F89830BB62D7F8D0300433C7F8D0303D
:1052F800D7F8D0301B68C7F89430D7F894301BBA69
:10530800C7F89030D7F89030FB62D7F8D030043324
:10531800C7F8D030D7F8D0301B68C7F88C30D7F82A
:105328008C301BBAC7F88830D7F888303B63D7F879
:10533800D0300433C7F8D030D7F8D0301B68C7F85E
:105348008430D7F884301BBAC7F88030D7F880305B
:105358007B636EE04FF40073FB87D7F8D0301B688F
:10536800FB67FB6F1BBABB67BB6FBB61D7F8D0305D
:105378000433C7F8D030D7F8D0301B687B677B6F11
:105388001BBA3B673B6FFB61D7F8D0300433C7F8D3
:10539800D030D7F8D0301B68FB66FB6E1BBABB66F3
:1053A800BB6E3B62D7F8D0300433C7F8D030D7F89B
:1053B800D0301B687B667B6E1BBA3B663B6E7B629C
:1053C800D7F8D0300433C7F8D030D7F8D0301B68BE
:1053D800FB65FB6D1BBABB65BB6DBB62D7F8D030F4
:1053E8000433C7F8D030D7F8D0301B687B657B6DA5
:1053F8001BBA3B653B6DFB62D7F8D0300433C7F866
:10540800D030D7F8D0301B68FB64FB6C1BBABB6488
:10541800BB6C3B63D7F8D0300433C7F8D030D7F82B
:10542800D0301B687B647B6C1BBA3B643B6C7B6332
:1054380000BFFB7B002B30D105F012FB04233B8718
:1054480038237B870023BB8707F13803184605F00C
:1054580021FA07F11803184605F082FA012005F031
:105468000DFB102005F068FC0346C7F8D4307B69B3
:1054780001337B617B69B3F5803F03D0D7F8D43023
:10548800002BEED1D7F8D430002B03D0002387F8B7
:10549800E73009E004233B8706E007F118031846C4
:1054A80005F05EFA00233B8720237B878023BB8798
:1054B80007F13803184605F0EDF905F0D1FA012097
:1054C80005F0DCFA0023C7F8D83077E0D7F8E030E9
:1054D8001B68184605F0EEFAD7F8E0300433C7F831
:1054E800E030D7F8E0301B68184605F0E3FAD7F843
:1054F800E0300433C7F8E030D7F8E0301B681846CE
:1055080005F0D8FAD7F8E0300433C7F8E030D7F818
:10551800E0301B68184605F0CDFAD7F8E0300433C0
:10552800C7F8E03000237B61102005F005FC034636
:10553800C7F8D4307B6901337B617B69B3F5803F61
:1055480003D0D7F8D430002BEED1D7F8D430002BC5
:1055580003D0002387F8E7302BE0D7F8DC4005F0CC
:10556800B7FA03462360D7F8DC300433C7F8DC30D9
:10557800D7F8DC4005F0ACFA03462360D7F8DC30F6
:105588000433C7F8DC30D7F8DC4005F0A1FA03464D
:105598002360D7F8DC300433C7F8DC30D7F8DC40B8
:1055A80005F096FA03462360D7F8DC300433C7F8D1
:1055B800DC30D7F8D8301033C7F8D830D7F8D8202F
:1055C800D7F8F8309A4204D297F8E730002B7FF4E6
:1055D8007DAF002005F052FA97F8E7301846EC370F
:1055E800BD4690BD90B5C7B000AF044607F10800AE
:1055F8000160391D0A60194607F10F0322461A7027
:1056080007F10C030A461A8007F1100300221A60FA
:105618000023C7F80431012387F817313B1D1B68A5
:10562800C7F80031D7F82831C7F81031D7F830312A
:10563800C7F80C3107F108031B68C7F8FC300023D2
:10564800C7F8083107F12403184605F0B5F907F142
:105658000C031B88C02B4DD0B3F5807F00F0B680BB
:10566800802B00D038E10023A7F84A30D7F8003162
:105678001B68C7F8F830D7F8F8301BBAC7F8F43009
:10568800D7F8F4307B63D7F800310433C7F800311A
:10569800D7F800311B68C7F8F030D7F8F0301BBADC
:1056A800C7F8EC30D7F8EC30BB63D7F800310433D7
:1056B800C7F80031D7F800311B68C7F8E830D7F8C9
:1056C800E8301BBAC7F8E430D7F8E430FB63D7F802
:1056D80000310433C7F80031D7F800311B68C7F828
:1056E800E030D7F8E0301BBAC7F8DC30D7F8DC3048
:1056F8003B64F1E04FF48073A7F84A30D7F80031E3
:105708001B68C7F8D830D7F8D8301BBAC7F8D430D8
:10571800D7F8D430FB62D7F800310433C7F800312A
:10572800D7F800311B68C7F8D030D7F8D0301BBA8B
:10573800C7F8CC30D7F8CC303B63D7F80031043306
:10574800C7F80031D7F800311B68C7F8C830D7F858
:10575800C8301BBAC7F8C430D7F8C4307B63D7F851
:1057680000310433C7F80031D7F800311B68C7F897
:10577800C030D7F8C0301BBAC7F8BC30D7F8BC3037
:10578800BB63D7F800310433C7F80031D7F80031CC
:105798001B68C7F8B830D7F8B8301BBAC7F8B430A8
:1057A800D7F8B430FB63D7F800310433C7F80031B9
:1057B800D7F800311B68C7F8B030D7F8B0301BBA3B
:1057C800C7F8AC30D7F8AC303B6485E04FF40073D1
:1057D800A7F84A30D7F800311B68C7F8A830D7F8BF
:1057E800A8301BBAC7F8A430D7F8A4307B62D7F822
:1057F80000310433C7F80031D7F800311B68C7F807
:10580800A030D7F8A0301BBAC7F89C30D7F89C3026
:10581800BB62D7F800310433C7F80031D7F800313C
:105828001B68C7F89830D7F898301BBAC7F8943077
:10583800D7F89430FB62D7F800310433C7F8003149
:10584800D7F800311B68C7F89030D7F890301BBAEA
:10585800C7F88C30D7F88C303B63D7F80031043365
:10586800C7F80031D7F800311B68C7F88830D7F877
:1058780088301BBAC7F88430D7F884307B63D7F8F0
:1058880000310433C7F80031D7F800311B68C7F876
:105898008030D7F880301BBAFB67FB6FBB63D7F843
:1058A80000310433C7F80031D7F800311B68BB67F3
:1058B800BB6F1BBA7B677B6FFB63D7F80031043380
:1058C800C7F80031D7F800311B683B673B6F1BBA3C
:1058D800FB66FB6E3B6400BFD7F8FC301B68BB66F9
:1058E800BB6E1BBA7B667A6E07F114031A60D7F891
:1058F800FC300433C7F8FC30D7F8FC301B683B6633
:105908003B6E1BBAFB65FA6D07F114035A60D7F8B2
:10591800FC300433C7F8FC30D7F8FC301B68BB6593
:10592800BB6D1BBA7B657A6D07F114039A60D7F8D3
:10593800FC300433C7F8FC30D7F8FC301B683B65F3
:105948003B6D1BBAFB64FA6C07F11403DA6007F1CC
:105958000F031B78002B3AD105F082F80423A7F82F
:1059680044303823A7F846300023A7F8483007F119
:105978004403184604F08EFF07F12403184604F088
:10598800EFFF012005F07AF8102005F0D5F903465D
:10599800C7F8043107F110031B685A1C07F11003FC
:1059A8001A6007F110031B68B3F5803F03D0D7F8DE
:1059B8000431002BE8D1D7F80431002B03D00023A1
:1059C80087F817310BE00423A7F8443007E007F104
:1059D8002403184604F0C4FF0023A7F84430282302
:1059E800A7F846308023A7F8483007F14403184643
:1059F80004F050FF07F11403184604F0FFFF05F008
:105A08002FF8012005F03AF80023C7F808317FE0A5
:105A1800D7F810311B68184605F04CF8D7F8103144
:105A28000433C7F81031D7F810311B68184605F051
:105A380041F8D7F810310433C7F81031D7F81031CE
:105A48001B68184605F036F8D7F810310433C7F844
:105A58001031D7F810311B68184605F02BF8D7F825
:105A680010310433C7F8103107F1100300221A600F
:105A7800102005F061F90346C7F8043107F1100357
:105A88001B685A1C07F110031A6007F110031B6802
:105A9800B3F5803F03D0D7F80431002BE8D1D7F80D
:105AA8000431002B03D0002387F817312BE0D7F8F7
:105AB8000C4105F00DF803462360D7F80C31043388
:105AC800C7F80C31D7F80C4105F002F803462360FB
